{
  "_format": "hh-sol-artifact-1",
  "contractName": "RecordWarden",
  "sourceName": "contracts/RecordWarden.sol",
  "abi": [
    {
      "inputs": [],
      "stateMutability": "nonpayable",
      "type": "constructor"
    },
    {
      "anonymous": false,
      "inputs": [
        {
          "indexed": true,
          "internalType": "uint256",
          "name": "id",
          "type": "uint256"
        },
        {
          "indexed": true,
          "internalType": "address",
          "name": "lawyer",
          "type": "address"
        },
        {
          "components": [
            {
              "internalType": "uint256",
              "name": "id",
              "type": "uint256"
            },
            {
              "internalType": "string",
              "name": "description",
              "type": "string"
            },
            {
              "internalType": "enum CaseStatus",
              "name": "status",
              "type": "uint8"
            },
            {
              "internalType": "address",
              "name": "client",
              "type": "address"
            },
            {
              "internalType": "uint256",
              "name": "createdAt",
              "type": "uint256"
            },
            {
              "internalType": "uint256",
              "name": "closedAt",
              "type": "uint256"
            },
            {
              "internalType": "uint256",
              "name": "updatedAt",
              "type": "uint256"
            },
            {
              "internalType": "address",
              "name": "updatedBy",
              "type": "address"
            },
            {
              "internalType": "uint256",
              "name": "nextHearing",
              "type": "uint256"
            },
            {
              "internalType": "uint256[]",
              "name": "documents",
              "type": "uint256[]"
            },
            {
              "internalType": "address[]",
              "name": "lawyers",
              "type": "address[]"
            }
          ],
          "indexed": false,
          "internalType": "struct Case",
          "name": "c",
          "type": "tuple"
        }
      ],
      "name": "CaseClosed",
      "type": "event"
    },
    {
      "anonymous": false,
      "inputs": [
        {
          "indexed": true,
          "internalType": "uint256",
          "name": "id",
          "type": "uint256"
        },
        {
          "indexed": true,
          "internalType": "address",
          "name": "lawyer",
          "type": "address"
        },
        {
          "components": [
            {
              "internalType": "uint256",
              "name": "id",
              "type": "uint256"
            },
            {
              "internalType": "string",
              "name": "description",
              "type": "string"
            },
            {
              "internalType": "enum CaseStatus",
              "name": "status",
              "type": "uint8"
            },
            {
              "internalType": "address",
              "name": "client",
              "type": "address"
            },
            {
              "internalType": "uint256",
              "name": "createdAt",
              "type": "uint256"
            },
            {
              "internalType": "uint256",
              "name": "closedAt",
              "type": "uint256"
            },
            {
              "internalType": "uint256",
              "name": "updatedAt",
              "type": "uint256"
            },
            {
              "internalType": "address",
              "name": "updatedBy",
              "type": "address"
            },
            {
              "internalType": "uint256",
              "name": "nextHearing",
              "type": "uint256"
            },
            {
              "internalType": "uint256[]",
              "name": "documents",
              "type": "uint256[]"
            },
            {
              "internalType": "address[]",
              "name": "lawyers",
              "type": "address[]"
            }
          ],
          "indexed": false,
          "internalType": "struct Case",
          "name": "c",
          "type": "tuple"
        }
      ],
      "name": "CaseCreated",
      "type": "event"
    },
    {
      "anonymous": false,
      "inputs": [
        {
          "indexed": true,
          "internalType": "uint256",
          "name": "id",
          "type": "uint256"
        },
        {
          "indexed": true,
          "internalType": "address",
          "name": "lawyer",
          "type": "address"
        },
        {
          "components": [
            {
              "internalType": "uint256",
              "name": "id",
              "type": "uint256"
            },
            {
              "internalType": "string",
              "name": "description",
              "type": "string"
            },
            {
              "internalType": "enum CaseStatus",
              "name": "status",
              "type": "uint8"
            },
            {
              "internalType": "address",
              "name": "client",
              "type": "address"
            },
            {
              "internalType": "uint256",
              "name": "createdAt",
              "type": "uint256"
            },
            {
              "internalType": "uint256",
              "name": "closedAt",
              "type": "uint256"
            },
            {
              "internalType": "uint256",
              "name": "updatedAt",
              "type": "uint256"
            },
            {
              "internalType": "address",
              "name": "updatedBy",
              "type": "address"
            },
            {
              "internalType": "uint256",
              "name": "nextHearing",
              "type": "uint256"
            },
            {
              "internalType": "uint256[]",
              "name": "documents",
              "type": "uint256[]"
            },
            {
              "internalType": "address[]",
              "name": "lawyers",
              "type": "address[]"
            }
          ],
          "indexed": false,
          "internalType": "struct Case",
          "name": "c",
          "type": "tuple"
        }
      ],
      "name": "CaseUpdated",
      "type": "event"
    },
    {
      "anonymous": false,
      "inputs": [
        {
          "indexed": true,
          "internalType": "bytes32",
          "name": "role",
          "type": "bytes32"
        },
        {
          "indexed": true,
          "internalType": "bytes32",
          "name": "previousAdminRole",
          "type": "bytes32"
        },
        {
          "indexed": true,
          "internalType": "bytes32",
          "name": "newAdminRole",
          "type": "bytes32"
        }
      ],
      "name": "RoleAdminChanged",
      "type": "event"
    },
    {
      "anonymous": false,
      "inputs": [
        {
          "indexed": true,
          "internalType": "bytes32",
          "name": "role",
          "type": "bytes32"
        },
        {
          "indexed": true,
          "internalType": "address",
          "name": "account",
          "type": "address"
        },
        {
          "indexed": true,
          "internalType": "address",
          "name": "sender",
          "type": "address"
        }
      ],
      "name": "RoleGranted",
      "type": "event"
    },
    {
      "anonymous": false,
      "inputs": [
        {
          "indexed": true,
          "internalType": "bytes32",
          "name": "role",
          "type": "bytes32"
        },
        {
          "indexed": true,
          "internalType": "address",
          "name": "account",
          "type": "address"
        },
        {
          "indexed": true,
          "internalType": "address",
          "name": "sender",
          "type": "address"
        }
      ],
      "name": "RoleRevoked",
      "type": "event"
    },
    {
      "anonymous": false,
      "inputs": [
        {
          "indexed": true,
          "internalType": "address",
          "name": "user",
          "type": "address"
        },
        {
          "components": [
            {
              "internalType": "string",
              "name": "name",
              "type": "string"
            },
            {
              "internalType": "string",
              "name": "username",
              "type": "string"
            },
            {
              "internalType": "string",
              "name": "avatar",
              "type": "string"
            },
            {
              "internalType": "string",
              "name": "bio",
              "type": "string"
            },
            {
              "internalType": "string",
              "name": "location",
              "type": "string"
            },
            {
              "internalType": "string",
              "name": "email",
              "type": "string"
            }
          ],
          "indexed": false,
          "internalType": "struct User",
          "name": "u",
          "type": "tuple"
        }
      ],
      "name": "UserCreated",
      "type": "event"
    },
    {
      "anonymous": false,
      "inputs": [
        {
          "indexed": true,
          "internalType": "address",
          "name": "user",
          "type": "address"
        },
        {
          "components": [
            {
              "internalType": "string",
              "name": "name",
              "type": "string"
            },
            {
              "internalType": "string",
              "name": "username",
              "type": "string"
            },
            {
              "internalType": "string",
              "name": "avatar",
              "type": "string"
            },
            {
              "internalType": "string",
              "name": "bio",
              "type": "string"
            },
            {
              "internalType": "string",
              "name": "location",
              "type": "string"
            },
            {
              "internalType": "string",
              "name": "email",
              "type": "string"
            }
          ],
          "indexed": false,
          "internalType": "struct User",
          "name": "u",
          "type": "tuple"
        }
      ],
      "name": "UserUpdated",
      "type": "event"
    },
    {
      "inputs": [],
      "name": "DEFAULT_ADMIN_ROLE",
      "outputs": [
        {
          "internalType": "bytes32",
          "name": "",
          "type": "bytes32"
        }
      ],
      "stateMutability": "view",
      "type": "function"
    },
    {
      "inputs": [],
      "name": "DetectiveRole",
      "outputs": [
        {
          "internalType": "bytes32",
          "name": "",
          "type": "bytes32"
        }
      ],
      "stateMutability": "view",
      "type": "function"
    },
    {
      "inputs": [],
      "name": "JudgeRole",
      "outputs": [
        {
          "internalType": "bytes32",
          "name": "",
          "type": "bytes32"
        }
      ],
      "stateMutability": "view",
      "type": "function"
    },
    {
      "inputs": [],
      "name": "LawyerRole",
      "outputs": [
        {
          "internalType": "bytes32",
          "name": "",
          "type": "bytes32"
        }
      ],
      "stateMutability": "view",
      "type": "function"
    },
    {
      "inputs": [
        {
          "internalType": "uint256",
          "name": "id",
          "type": "uint256"
        },
        {
          "internalType": "string",
          "name": "name",
          "type": "string"
        },
        {
          "internalType": "string",
          "name": "cid",
          "type": "string"
        }
      ],
      "name": "addCaseDocument",
      "outputs": [],
      "stateMutability": "nonpayable",
      "type": "function"
    },
    {
      "inputs": [
        {
          "internalType": "uint256",
          "name": "id",
          "type": "uint256"
        },
        {
          "internalType": "address",
          "name": "lawyer",
          "type": "address"
        }
      ],
      "name": "addCaseLawyer",
      "outputs": [],
      "stateMutability": "nonpayable",
      "type": "function"
    },
    {
      "inputs": [
        {
          "internalType": "address",
          "name": "detective",
          "type": "address"
        }
      ],
      "name": "addDetective",
      "outputs": [],
      "stateMutability": "nonpayable",
      "type": "function"
    },
    {
      "inputs": [
        {
          "internalType": "uint256",
          "name": "id",
          "type": "uint256"
        },
        {
          "internalType": "uint256",
          "name": "docId",
          "type": "uint256"
        },
        {
          "internalType": "address",
          "name": "user",
          "type": "address"
        }
      ],
      "name": "addDocumentAuthorized",
      "outputs": [],
      "stateMutability": "nonpayable",
      "type": "function"
    },
    {
      "inputs": [
        {
          "internalType": "address",
          "name": "judge",
          "type": "address"
        }
      ],
      "name": "addJudge",
      "outputs": [],
      "stateMutability": "nonpayable",
      "type": "function"
    },
    {
      "inputs": [
        {
          "internalType": "address",
          "name": "lawyer",
          "type": "address"
        }
      ],
      "name": "addLawyer",
      "outputs": [],
      "stateMutability": "nonpayable",
      "type": "function"
    },
    {
      "inputs": [],
      "name": "caseCount",
      "outputs": [
        {
          "internalType": "uint256",
          "name": "",
          "type": "uint256"
        }
      ],
      "stateMutability": "view",
      "type": "function"
    },
    {
      "inputs": [
        {
          "internalType": "uint256",
          "name": "",
          "type": "uint256"
        }
      ],
      "name": "cases",
      "outputs": [
        {
          "internalType": "uint256",
          "name": "id",
          "type": "uint256"
        },
        {
          "internalType": "string",
          "name": "description",
          "type": "string"
        },
        {
          "internalType": "enum CaseStatus",
          "name": "status",
          "type": "uint8"
        },
        {
          "internalType": "address",
          "name": "client",
          "type": "address"
        },
        {
          "internalType": "uint256",
          "name": "createdAt",
          "type": "uint256"
        },
        {
          "internalType": "uint256",
          "name": "closedAt",
          "type": "uint256"
        },
        {
          "internalType": "uint256",
          "name": "updatedAt",
          "type": "uint256"
        },
        {
          "internalType": "address",
          "name": "updatedBy",
          "type": "address"
        },
        {
          "internalType": "uint256",
          "name": "nextHearing",
          "type": "uint256"
        }
      ],
      "stateMutability": "view",
      "type": "function"
    },
    {
      "inputs": [
        {
          "internalType": "uint256",
          "name": "id",
          "type": "uint256"
        }
      ],
      "name": "closeCase",
      "outputs": [],
      "stateMutability": "nonpayable",
      "type": "function"
    },
    {
      "inputs": [
        {
          "internalType": "string",
          "name": "description",
          "type": "string"
        },
        {
          "internalType": "address",
          "name": "client",
          "type": "address"
        },
        {
          "internalType": "uint256",
          "name": "nextHearing",
          "type": "uint256"
        }
      ],
      "name": "createCase",
      "outputs": [],
      "stateMutability": "nonpayable",
      "type": "function"
    },
    {
      "inputs": [
        {
          "internalType": "string",
          "name": "name",
          "type": "string"
        },
        {
          "internalType": "string",
          "name": "username",
          "type": "string"
        },
        {
          "internalType": "string",
          "name": "avatar",
          "type": "string"
        },
        {
          "internalType": "string",
          "name": "bio",
          "type": "string"
        },
        {
          "internalType": "string",
          "name": "location",
          "type": "string"
        },
        {
          "internalType": "string",
          "name": "email",
          "type": "string"
        }
      ],
      "name": "createUser",
      "outputs": [],
      "stateMutability": "nonpayable",
      "type": "function"
    },
    {
      "inputs": [
        {
          "internalType": "uint256",
          "name": "id",
          "type": "uint256"
        },
        {
          "internalType": "uint256",
          "name": "docId",
          "type": "uint256"
        }
      ],
      "name": "deleteCaseDocument",
      "outputs": [],
      "stateMutability": "nonpayable",
      "type": "function"
    },
    {
      "inputs": [
        {
          "internalType": "uint256",
          "name": "id",
          "type": "uint256"
        },
        {
          "internalType": "address",
          "name": "lawyer",
          "type": "address"
        }
      ],
      "name": "deleteCaseLawyer",
      "outputs": [],
      "stateMutability": "nonpayable",
      "type": "function"
    },
    {
      "inputs": [
        {
          "internalType": "address",
          "name": "detective",
          "type": "address"
        }
      ],
      "name": "deleteDetective",
      "outputs": [],
      "stateMutability": "nonpayable",
      "type": "function"
    },
    {
      "inputs": [
        {
          "internalType": "uint256",
          "name": "id",
          "type": "uint256"
        },
        {
          "internalType": "uint256",
          "name": "docId",
          "type": "uint256"
        },
        {
          "internalType": "address",
          "name": "user",
          "type": "address"
        }
      ],
      "name": "deleteDocumentAuthorized",
      "outputs": [],
      "stateMutability": "nonpayable",
      "type": "function"
    },
    {
      "inputs": [
        {
          "internalType": "address",
          "name": "judge",
          "type": "address"
        }
      ],
      "name": "deleteJudge",
      "outputs": [],
      "stateMutability": "nonpayable",
      "type": "function"
    },
    {
      "inputs": [
        {
          "internalType": "address",
          "name": "lawyer",
          "type": "address"
        }
      ],
      "name": "deleteLawyer",
      "outputs": [],
      "stateMutability": "nonpayable",
      "type": "function"
    },
    {
      "inputs": [],
      "name": "documentCount",
      "outputs": [
        {
          "internalType": "uint256",
          "name": "",
          "type": "uint256"
        }
      ],
      "stateMutability": "view",
      "type": "function"
    },
    {
      "inputs": [
        {
          "internalType": "uint256",
          "name": "id",
          "type": "uint256"
        }
      ],
      "name": "getDocumentCID",
      "outputs": [
        {
          "internalType": "string",
          "name": "",
          "type": "string"
        }
      ],
      "stateMutability": "view",
      "type": "function"
    },
    {
      "inputs": [
        {
          "internalType": "bytes32",
          "name": "role",
          "type": "bytes32"
        }
      ],
      "name": "getRoleAdmin",
      "outputs": [
        {
          "internalType": "bytes32",
          "name": "",
          "type": "bytes32"
        }
      ],
      "stateMutability": "view",
      "type": "function"
    },
    {
      "inputs": [
        {
          "internalType": "bytes32",
          "name": "role",
          "type": "bytes32"
        },
        {
          "internalType": "address",
          "name": "account",
          "type": "address"
        }
      ],
      "name": "grantRole",
      "outputs": [],
      "stateMutability": "nonpayable",
      "type": "function"
    },
    {
      "inputs": [
        {
          "internalType": "bytes32",
          "name": "role",
          "type": "bytes32"
        },
        {
          "internalType": "address",
          "name": "account",
          "type": "address"
        }
      ],
      "name": "hasRole",
      "outputs": [
        {
          "internalType": "bool",
          "name": "",
          "type": "bool"
        }
      ],
      "stateMutability": "view",
      "type": "function"
    },
    {
      "inputs": [
        {
          "internalType": "bytes32",
          "name": "role",
          "type": "bytes32"
        },
        {
          "internalType": "address",
          "name": "account",
          "type": "address"
        }
      ],
      "name": "hasRoleWithSwitch",
      "outputs": [
        {
          "internalType": "bool",
          "name": "",
          "type": "bool"
        }
      ],
      "stateMutability": "view",
      "type": "function"
    },
    {
      "inputs": [
        {
          "internalType": "bytes32",
          "name": "role",
          "type": "bytes32"
        },
        {
          "internalType": "address",
          "name": "account",
          "type": "address"
        }
      ],
      "name": "renounceRole",
      "outputs": [],
      "stateMutability": "nonpayable",
      "type": "function"
    },
    {
      "inputs": [
        {
          "internalType": "bytes32",
          "name": "role",
          "type": "bytes32"
        },
        {
          "internalType": "address",
          "name": "account",
          "type": "address"
        }
      ],
      "name": "revokeRole",
      "outputs": [],
      "stateMutability": "nonpayable",
      "type": "function"
    },
    {
      "inputs": [
        {
          "internalType": "uint256",
          "name": "id",
          "type": "uint256"
        },
        {
          "internalType": "string",
          "name": "description",
          "type": "string"
        }
      ],
      "name": "updateCaseDescription",
      "outputs": [],
      "stateMutability": "nonpayable",
      "type": "function"
    },
    {
      "inputs": [
        {
          "internalType": "uint256",
          "name": "id",
          "type": "uint256"
        },
        {
          "internalType": "uint256",
          "name": "nextHearing",
          "type": "uint256"
        }
      ],
      "name": "updateNextHearing",
      "outputs": [],
      "stateMutability": "nonpayable",
      "type": "function"
    },
    {
      "inputs": [
        {
          "internalType": "string",
          "name": "avatar",
          "type": "string"
        }
      ],
      "name": "updateUserAvatar",
      "outputs": [],
      "stateMutability": "nonpayable",
      "type": "function"
    },
    {
      "inputs": [
        {
          "internalType": "string",
          "name": "bio",
          "type": "string"
        }
      ],
      "name": "updateUserBio",
      "outputs": [],
      "stateMutability": "nonpayable",
      "type": "function"
    },
    {
      "inputs": [
        {
          "internalType": "string",
          "name": "email",
          "type": "string"
        }
      ],
      "name": "updateUserEmail",
      "outputs": [],
      "stateMutability": "nonpayable",
      "type": "function"
    },
    {
      "inputs": [
        {
          "internalType": "string",
          "name": "location",
          "type": "string"
        }
      ],
      "name": "updateUserLocation",
      "outputs": [],
      "stateMutability": "nonpayable",
      "type": "function"
    },
    {
      "inputs": [
        {
          "internalType": "string",
          "name": "name",
          "type": "string"
        }
      ],
      "name": "updateUserName",
      "outputs": [],
      "stateMutability": "nonpayable",
      "type": "function"
    },
    {
      "inputs": [
        {
          "internalType": "string",
          "name": "username",
          "type": "string"
        }
      ],
      "name": "updateUserUsername",
      "outputs": [],
      "stateMutability": "nonpayable",
      "type": "function"
    },
    {
      "inputs": [
        {
          "internalType": "address",
          "name": "",
          "type": "address"
        }
      ],
      "name": "users",
      "outputs": [
        {
          "internalType": "string",
          "name": "name",
          "type": "string"
        },
        {
          "internalType": "string",
          "name": "username",
          "type": "string"
        },
        {
          "internalType": "string",
          "name": "avatar",
          "type": "string"
        },
        {
          "internalType": "string",
          "name": "bio",
          "type": "string"
        },
        {
          "internalType": "string",
          "name": "location",
          "type": "string"
        },
        {
          "internalType": "string",
          "name": "email",
          "type": "string"
        }
      ],
      "stateMutability": "view",
      "type": "function"
    }
  ],
  "bytecode": "0x60806040523480156200001157600080fd5b50620000276000801b336200002d60201b60201c565b620000f4565b600160008084815260200190815260200160002060008373ffffffffffffffffffffffffffffffffffffffff1673ffffffffffffffffffffffffffffffffffffffff16815260200190815260200160002060006101000a81548160ff0219169083151502179055503373ffffffffffffffffffffffffffffffffffffffff168173ffffffffffffffffffffffffffffffffffffffff16837f2f8788117e7eff1d82e926ec794901d17c78024a50270940304540a733656f0d60405160405180910390a45050565b615f8180620001046000396000f3fe608060405234801561001057600080fd5b50600436106102325760003560e01c80639079b5c511610130578063aaa536f4116100b8578063bf97c2bd1161007c578063bf97c2bd14610642578063d547741f14610660578063da2d7e951461067c578063e8db61bb1461069a578063f09790dd146106b857610232565b8063aaa536f4146105b6578063af9036a1146105d2578063b5712f1f146105ee578063b6306af41461060a578063be2bb3501461062657610232565b8063a217fddf116100ff578063a217fddf146104f9578063a28a454814610517578063a32fa5b314610533578063a5b16b2e14610563578063a87430ba1461058157610232565b80639079b5c51461047357806391d148541461048f578063927cab47146104bf5780639c0574f3146104db57610232565b80633ffad912116101be5780635a724ef0116101825780635a724ef0146103d35780635fe73215146103ef57806369e354a71461040b578063735d9fbb1461043b5780638d97d5061461045757610232565b80633ffad912146103475780634081b9341461036357806344fa961d1461037f5780634522e4311461039b578063470d3b4c146103b757610232565b80632e5ff4da116102055780632e5ff4da146102bb5780632f2ff15d146102d757806336568abe146102f357806337683eb81461030f578063386f8fe71461032b57610232565b806301dadb2b14610237578063064e0e58146102535780630fc3c8b21461026f578063248a9ca31461028b575b600080fd5b610251600480360381019061024c9190613c58565b6106f0565b005b61026d60048036038101906102689190613d8d565b610999565b005b61028960048036038101906102849190613e34565b610a78565b005b6102a560048036038101906102a09190613e97565b610af1565b6040516102b29190613ed3565b60405180910390f35b6102d560048036038101906102d09190613d8d565b610b0e565b005b6102f160048036038101906102ec9190613eee565b610bed565b005b61030d60048036038101906103089190613eee565b610cb5565b005b61032960048036038101906103249190613f64565b610d31565b005b61034560048036038101906103409190613fa4565b610edf565b005b610361600480360381019061035c919061402f565b61126c565b005b61037d6004803603810190610378919061405c565b61144e565b005b61039960048036038101906103949190613e34565b6115a7565b005b6103b560048036038101906103b0919061409c565b611620565b005b6103d160048036038101906103cc9190613d8d565b6119c1565b005b6103ed60048036038101906103e89190613e34565b611aa0565b005b61040960048036038101906104049190613d8d565b611b19565b005b6104256004803603810190610420919061402f565b611bf8565b604051610432919061416e565b60405180910390f35b61045560048036038101906104509190613f64565b611e46565b005b610471600480360381019061046c919061409c565b612128565b005b61048d60048036038101906104889190613e34565b61233b565b005b6104a960048036038101906104a49190613eee565b6123b4565b6040516104b691906141ab565b60405180910390f35b6104d960048036038101906104d49190613e34565b61241b565b005b6104e3612494565b6040516104f09190613ed3565b60405180910390f35b6105016124b8565b60405161050e9190613ed3565b60405180910390f35b610531600480360381019061052c9190613d8d565b6124bf565b005b61054d60048036038101906105489190613eee565b61262f565b60405161055a91906141ab565b60405180910390f35b61056b612701565b60405161057891906141d5565b60405180910390f35b61059b60048036038101906105969190613e34565b612707565b6040516105ad969594939291906141f0565b60405180910390f35b6105d060048036038101906105cb919061427b565b612a73565b005b6105ec60048036038101906105e79190613d8d565b612ddd565b005b6106086004803603810190610603919061405c565b612ebc565b005b610624600480360381019061061f9190613e34565b613146565b005b610640600480360381019061063b91906142ea565b6131bf565b005b61064a613352565b6040516106579190613ed3565b60405180910390f35b61067a60048036038101906106759190613eee565b613376565b005b6106846133a1565b60405161069191906141d5565b60405180910390f35b6106a26133a7565b6040516106af9190613ed3565b60405180910390f35b6106d260048036038101906106cd919061402f565b6133cb565b6040516106e7999897969594939291906143cc565b60405180910390f35b6000600260003373ffffffffffffffffffffffffffffffffffffffff1673ffffffffffffffffffffffffffffffffffffffff168152602001908152602001600020600101805461073f9061448f565b905014610781576040517f08c379a00000000000000000000000000000000000000000000000000000000081526004016107789061450c565b60405180910390fd5b6000600260003373ffffffffffffffffffffffffffffffffffffffff1673ffffffffffffffffffffffffffffffffffffffff16815260200190815260200160002060010180546107d09061448f565b905014610812576040517f08c379a000000000000000000000000000000000000000000000000000000000815260040161080990614578565b60405180910390fd5b6040518060c0016040528087815260200186815260200185815260200184815260200183815260200182815250600260003373ffffffffffffffffffffffffffffffffffffffff1673ffffffffffffffffffffffffffffffffffffffff16815260200190815260200160002060008201518160000190816108939190614744565b5060208201518160010190816108a99190614744565b5060408201518160020190816108bf9190614744565b5060608201518160030190816108d59190614744565b5060808201518160040190816108eb9190614744565b5060a08201518160050190816109019190614744565b509050503373ffffffffffffffffffffffffffffffffffffffff167f9cc4cf5bb33683f960046cee1f7588a07d47fdd2d774b48920524a15b2069f54600260003373ffffffffffffffffffffffffffffffffffffffff1673ffffffffffffffffffffffffffffffffffffffff1681526020019081526020016000206040516109899190614953565b60405180910390a2505050505050565b80600260003373ffffffffffffffffffffffffffffffffffffffff1673ffffffffffffffffffffffffffffffffffffffff16815260200190815260200160002060030190816109e89190614744565b503373ffffffffffffffffffffffffffffffffffffffff167ff12465ed0fb713415cff89dd51510fda6b6eba598e2fa46ec320b0219e549a62600260003373ffffffffffffffffffffffffffffffffffffffff1673ffffffffffffffffffffffffffffffffffffffff168152602001908152602001600020604051610a6d9190614953565b60405180910390a250565b610a856000801b336123b4565b610ac4576040517f08c379a0000000000000000000000000000000000000000000000000000000008152600401610abb906149e7565b60405180910390fd5b610aee7f3420d2a02f28e92b971806872c4fa85469cb08e4ff28a33001ea8f96d6f4025a82613376565b50565b600060016000838152602001908152602001600020549050919050565b80600260003373ffffffffffffffffffffffffffffffffffffffff1673ffffffffffffffffffffffffffffffffffffffff1681526020019081526020016000206002019081610b5d9190614744565b503373ffffffffffffffffffffffffffffffffffffffff167ff12465ed0fb713415cff89dd51510fda6b6eba598e2fa46ec320b0219e549a62600260003373ffffffffffffffffffffffffffffffffffffffff1673ffffffffffffffffffffffffffffffffffffffff168152602001908152602001600020604051610be29190614953565b60405180910390a250565b610c0a6001600084815260200190815260200160002054336134ee565b60008083815260200190815260200160002060008273ffffffffffffffffffffffffffffffffffffffff1673ffffffffffffffffffffffffffffffffffffffff16815260200190815260200160002060009054906101000a900460ff1615610ca7576040517f08c379a0000000000000000000000000000000000000000000000000000000008152600401610c9e90614a53565b60405180910390fd5b610cb182826135de565b5050565b8073ffffffffffffffffffffffffffffffffffffffff163373ffffffffffffffffffffffffffffffffffffffff1614610d23576040517f08c379a0000000000000000000000000000000000000000000000000000000008152600401610d1a90614abf565b60405180910390fd5b610d2d82826136a5565b5050565b60006003600084815260200190815260200160002090503373ffffffffffffffffffffffffffffffffffffffff168160020160019054906101000a900473ffffffffffffffffffffffffffffffffffffffff1673ffffffffffffffffffffffffffffffffffffffff1614610dda576040517f08c379a0000000000000000000000000000000000000000000000000000000008152600401610dd190614b51565b60405180910390fd5b80600901829080600181540180825580915050600190039060005260206000200160009091909190916101000a81548173ffffffffffffffffffffffffffffffffffffffff021916908373ffffffffffffffffffffffffffffffffffffffff160217905550428160050181905550338160060160006101000a81548173ffffffffffffffffffffffffffffffffffffffff021916908373ffffffffffffffffffffffffffffffffffffffff1602179055503373ffffffffffffffffffffffffffffffffffffffff16837f9b6a6e8fb680032b5e363d78ba0b4ce647f5623d5d6868b57803dcc3cb75eb3183604051610ed29190614f3d565b60405180910390a3505050565b60006003600085815260200190815260200160002090506000805b8260090180549050811015610f98573373ffffffffffffffffffffffffffffffffffffffff16836009018281548110610f3657610f35614f5f565b5b9060005260206000200160009054906101000a900473ffffffffffffffffffffffffffffffffffffffff1673ffffffffffffffffffffffffffffffffffffffff1603610f855760019150610f98565b8080610f9090614fbd565b915050610efa565b503373ffffffffffffffffffffffffffffffffffffffff168260020160019054906101000a900473ffffffffffffffffffffffffffffffffffffffff1673ffffffffffffffffffffffffffffffffffffffff161480610ff45750805b611033576040517f08c379a000000000000000000000000000000000000000000000000000000000815260040161102a90615077565b60405180910390fd5b60006040518060c001604052806006548152602001868152602001858152602001600067ffffffffffffffff81111561106f5761106e613b2d565b5b60405190808252806020026020018201604052801561109d5781602001602082028036833780820191505090505b5081526020014281526020013373ffffffffffffffffffffffffffffffffffffffff168152509050806004600060065481526020019081526020016000206000820151816000015560208201518160010190816110fa9190614744565b5060408201518160020190816111109190614744565b50606082015181600301908051906020019061112d9291906139a9565b506080820151816004015560a08201518160050160006101000a81548173ffffffffffffffffffffffffffffffffffffffff021916908373ffffffffffffffffffffffffffffffffffffffff1602179055509050506006600081548092919061119590614fbd565b91905055508260080181600001519080600181540180825580915050600190039060005260206000200160009091909190915055428360050181905550338360060160006101000a81548173ffffffffffffffffffffffffffffffffffffffff021916908373ffffffffffffffffffffffffffffffffffffffff1602179055503373ffffffffffffffffffffffffffffffffffffffff16867f9b6a6e8fb680032b5e363d78ba0b4ce647f5623d5d6868b57803dcc3cb75eb318560405161125c9190614f3d565b60405180910390a3505050505050565b6112967f314036e221c52b2e9bffe531890cefb6b09cd8682ad89fc9f25d863bad9622a6336123b4565b806112c757506112c67fbf8b635bcfcd8642c9b343eafd77cdb76547a8c3ff41e4316e9996047ad954b8336123b4565b5b611306576040517f08c379a00000000000000000000000000000000000000000000000000000000081526004016112fd90615109565b60405180910390fd5b6000600181111561131a57611319614346565b5b6003600083815260200190815260200160002060020160009054906101000a900460ff1660018111156113505761134f614346565b5b14611390576040517f08c379a000000000000000000000000000000000000000000000000000000000815260040161138790615175565b60405180910390fd5b60016003600083815260200190815260200160002060020160006101000a81548160ff021916908360018111156113ca576113c9614346565b5b02179055504260036000838152602001908152602001600020600401819055503373ffffffffffffffffffffffffffffffffffffffff16817f5929886f02db1e3db5cd7195cf9c452e7740e10ea5326a07c1dba33f367473a26003600085815260200190815260200160002060405161144391906152df565b60405180910390a350565b6114787fbf8b635bcfcd8642c9b343eafd77cdb76547a8c3ff41e4316e9996047ad954b8336123b4565b6114b7576040517f08c379a00000000000000000000000000000000000000000000000000000000081526004016114ae90615373565b60405180910390fd5b806003600084815260200190815260200160002060070181905550426003600084815260200190815260200160002060050181905550336003600084815260200190815260200160002060060160006101000a81548173ffffffffffffffffffffffffffffffffffffffff021916908373ffffffffffffffffffffffffffffffffffffffff1602179055503373ffffffffffffffffffffffffffffffffffffffff16827f9b6a6e8fb680032b5e363d78ba0b4ce647f5623d5d6868b57803dcc3cb75eb316003600086815260200190815260200160002060405161159b91906152df565b60405180910390a35050565b6115b46000801b336123b4565b6115f3576040517f08c379a00000000000000000000000000000000000000000000000000000000081526004016115ea90615405565b60405180910390fd5b61161d7f314036e221c52b2e9bffe531890cefb6b09cd8682ad89fc9f25d863bad9622a682613376565b50565b60006003600085815260200190815260200160002090503373ffffffffffffffffffffffffffffffffffffffff168160020160019054906101000a900473ffffffffffffffffffffffffffffffffffffffff1673ffffffffffffffffffffffffffffffffffffffff16146116c9576040517f08c379a00000000000000000000000000000000000000000000000000000000081526004016116c090615497565b60405180910390fd5b60005b816008018054905081101561191f57838260080182815481106116f2576116f1614f5f565b5b90600052602060002001540361190c5760005b6004600086815260200190815260200160002060030180549050811015611906578373ffffffffffffffffffffffffffffffffffffffff1660046000878152602001908152602001600020600301828154811061176557611764614f5f565b5b9060005260206000200160009054906101000a900473ffffffffffffffffffffffffffffffffffffffff1673ffffffffffffffffffffffffffffffffffffffff16036118f35760046000868152602001908152602001600020600301600160046000888152602001908152602001600020600301805490506117e791906154b7565b815481106117f8576117f7614f5f565b5b9060005260206000200160009054906101000a900473ffffffffffffffffffffffffffffffffffffffff1660046000878152602001908152602001600020600301828154811061184b5761184a614f5f565b5b9060005260206000200160006101000a81548173ffffffffffffffffffffffffffffffffffffffff021916908373ffffffffffffffffffffffffffffffffffffffff160217905550600460008681526020019081526020016000206003018054806118b9576118b86154eb565b5b6001900381819060005260206000200160006101000a81549073ffffffffffffffffffffffffffffffffffffffff02191690559055611906565b80806118fe90614fbd565b915050611705565b5061191f565b808061191790614fbd565b9150506116cc565b50428160050181905550338160060160006101000a81548173ffffffffffffffffffffffffffffffffffffffff021916908373ffffffffffffffffffffffffffffffffffffffff1602179055503373ffffffffffffffffffffffffffffffffffffffff16847f9b6a6e8fb680032b5e363d78ba0b4ce647f5623d5d6868b57803dcc3cb75eb31836040516119b39190614f3d565b60405180910390a350505050565b80600260003373ffffffffffffffffffffffffffffffffffffffff1673ffffffffffffffffffffffffffffffffffffffff1681526020019081526020016000206005019081611a109190614744565b503373ffffffffffffffffffffffffffffffffffffffff167ff12465ed0fb713415cff89dd51510fda6b6eba598e2fa46ec320b0219e549a62600260003373ffffffffffffffffffffffffffffffffffffffff1673ffffffffffffffffffffffffffffffffffffffff168152602001908152602001600020604051611a959190614953565b60405180910390a250565b611aad6000801b336123b4565b611aec576040517f08c379a0000000000000000000000000000000000000000000000000000000008152600401611ae39061558c565b60405180910390fd5b611b167f314036e221c52b2e9bffe531890cefb6b09cd8682ad89fc9f25d863bad9622a6826135de565b50565b80600260003373ffffffffffffffffffffffffffffffffffffffff1673ffffffffffffffffffffffffffffffffffffffff1681526020019081526020016000206004019081611b689190614744565b503373ffffffffffffffffffffffffffffffffffffffff167ff12465ed0fb713415cff89dd51510fda6b6eba598e2fa46ec320b0219e549a62600260003373ffffffffffffffffffffffffffffffffffffffff1673ffffffffffffffffffffffffffffffffffffffff168152602001908152602001600020604051611bed9190614953565b60405180910390a250565b606060006004600084815260200190815260200160002090506000805b8260030180549050811015611cb3573373ffffffffffffffffffffffffffffffffffffffff16836003018281548110611c5157611c50614f5f565b5b9060005260206000200160009054906101000a900473ffffffffffffffffffffffffffffffffffffffff1673ffffffffffffffffffffffffffffffffffffffff1603611ca05760019150611cb3565b8080611cab90614fbd565b915050611c15565b508160050160009054906101000a900473ffffffffffffffffffffffffffffffffffffffff1673ffffffffffffffffffffffffffffffffffffffff163373ffffffffffffffffffffffffffffffffffffffff161480611d0f5750805b80611d405750611d3f7fbf8b635bcfcd8642c9b343eafd77cdb76547a8c3ff41e4316e9996047ad954b8336123b4565b5b80611d715750611d707f3420d2a02f28e92b971806872c4fa85469cb08e4ff28a33001ea8f96d6f4025a336123b4565b5b611db0576040517f08c379a0000000000000000000000000000000000000000000000000000000008152600401611da79061561e565b60405180910390fd5b816002018054611dbf9061448f565b80601f0160208091040260200160405190810160405280929190818152602001828054611deb9061448f565b8015611e385780601f10611e0d57610100808354040283529160200191611e38565b820191906000526020600020905b815481529060010190602001808311611e1b57829003601f168201915b505050505092505050919050565b60006003600084815260200190815260200160002090503373ffffffffffffffffffffffffffffffffffffffff168160020160019054906101000a900473ffffffffffffffffffffffffffffffffffffffff1673ffffffffffffffffffffffffffffffffffffffff1614611eef576040517f08c379a0000000000000000000000000000000000000000000000000000000008152600401611ee6906156b0565b60405180910390fd5b60005b8160090180549050811015612087578273ffffffffffffffffffffffffffffffffffffffff16826009018281548110611f2e57611f2d614f5f565b5b9060005260206000200160009054906101000a900473ffffffffffffffffffffffffffffffffffffffff1673ffffffffffffffffffffffffffffffffffffffff1603612074578160090160018360090180549050611f8c91906154b7565b81548110611f9d57611f9c614f5f565b5b9060005260206000200160009054906101000a900473ffffffffffffffffffffffffffffffffffffffff16826009018281548110611fde57611fdd614f5f565b5b9060005260206000200160006101000a81548173ffffffffffffffffffffffffffffffffffffffff021916908373ffffffffffffffffffffffffffffffffffffffff1602179055508160090180548061203a576120396154eb565b5b6001900381819060005260206000200160006101000a81549073ffffffffffffffffffffffffffffffffffffffff02191690559055612087565b808061207f90614fbd565b915050611ef2565b50428160050181905550338160060160006101000a81548173ffffffffffffffffffffffffffffffffffffffff021916908373ffffffffffffffffffffffffffffffffffffffff1602179055503373ffffffffffffffffffffffffffffffffffffffff16837f9b6a6e8fb680032b5e363d78ba0b4ce647f5623d5d6868b57803dcc3cb75eb318360405161211b9190614f3d565b60405180910390a3505050565b60006003600085815260200190815260200160002090503373ffffffffffffffffffffffffffffffffffffffff168160020160019054906101000a900473ffffffffffffffffffffffffffffffffffffffff1673ffffffffffffffffffffffffffffffffffffffff16146121d1576040517f08c379a00000000000000000000000000000000000000000000000000000000081526004016121c890615742565b60405180910390fd5b60005b816008018054905081101561229957838260080182815481106121fa576121f9614f5f565b5b9060005260206000200154036122865760046000858152602001908152602001600020600301839080600181540180825580915050600190039060005260206000200160009091909190916101000a81548173ffffffffffffffffffffffffffffffffffffffff021916908373ffffffffffffffffffffffffffffffffffffffff160217905550612299565b808061229190614fbd565b9150506121d4565b50428160050181905550338160060160006101000a81548173ffffffffffffffffffffffffffffffffffffffff021916908373ffffffffffffffffffffffffffffffffffffffff1602179055503373ffffffffffffffffffffffffffffffffffffffff16847f9b6a6e8fb680032b5e363d78ba0b4ce647f5623d5d6868b57803dcc3cb75eb318360405161232d9190614f3d565b60405180910390a350505050565b6123486000801b336123b4565b612387576040517f08c379a000000000000000000000000000000000000000000000000000000000815260040161237e906157d4565b60405180910390fd5b6123b17fbf8b635bcfcd8642c9b343eafd77cdb76547a8c3ff41e4316e9996047ad954b882613376565b50565b600080600084815260200190815260200160002060008373ffffffffffffffffffffffffffffffffffffffff1673ffffffffffffffffffffffffffffffffffffffff16815260200190815260200160002060009054906101000a900460ff16905092915050565b6124286000801b336123b4565b612467576040517f08c379a000000000000000000000000000000000000000000000000000000000815260040161245e90615866565b60405180910390fd5b6124917fbf8b635bcfcd8642c9b343eafd77cdb76547a8c3ff41e4316e9996047ad954b8826135de565b50565b7f314036e221c52b2e9bffe531890cefb6b09cd8682ad89fc9f25d863bad9622a681565b6000801b81565b6000600260003373ffffffffffffffffffffffffffffffffffffffff1673ffffffffffffffffffffffffffffffffffffffff168152602001908152602001600020600101805461250e9061448f565b905014612550576040517f08c379a000000000000000000000000000000000000000000000000000000000815260040161254790614578565b60405180910390fd5b80600260003373ffffffffffffffffffffffffffffffffffffffff1673ffffffffffffffffffffffffffffffffffffffff168152602001908152602001600020600101908161259f9190614744565b503373ffffffffffffffffffffffffffffffffffffffff167ff12465ed0fb713415cff89dd51510fda6b6eba598e2fa46ec320b0219e549a62600260003373ffffffffffffffffffffffffffffffffffffffff1673ffffffffffffffffffffffffffffffffffffffff1681526020019081526020016000206040516126249190614953565b60405180910390a250565b600080600084815260200190815260200160002060008073ffffffffffffffffffffffffffffffffffffffff1673ffffffffffffffffffffffffffffffffffffffff16815260200190815260200160002060009054906101000a900460ff166126f65760008084815260200190815260200160002060008373ffffffffffffffffffffffffffffffffffffffff1673ffffffffffffffffffffffffffffffffffffffff16815260200190815260200160002060009054906101000a900460ff1690506126fb565b600190505b92915050565b60065481565b600260205280600052604060002060009150905080600001805461272a9061448f565b80601f01602080910402602001604051908101604052809291908181526020018280546127569061448f565b80156127a35780601f10612778576101008083540402835291602001916127a3565b820191906000526020600020905b81548152906001019060200180831161278657829003601f168201915b5050505050908060010180546127b89061448f565b80601f01602080910402602001604051908101604052809291908181526020018280546127e49061448f565b80156128315780601f1061280657610100808354040283529160200191612831565b820191906000526020600020905b81548152906001019060200180831161281457829003601f168201915b5050505050908060020180546128469061448f565b80601f01602080910402602001604051908101604052809291908181526020018280546128729061448f565b80156128bf5780601f10612894576101008083540402835291602001916128bf565b820191906000526020600020905b8154815290600101906020018083116128a257829003601f168201915b5050505050908060030180546128d49061448f565b80601f01602080910402602001604051908101604052809291908181526020018280546129009061448f565b801561294d5780601f106129225761010080835404028352916020019161294d565b820191906000526020600020905b81548152906001019060200180831161293057829003601f168201915b5050505050908060040180546129629061448f565b80601f016020809104026020016040519081016040528092919081815260200182805461298e9061448f565b80156129db5780601f106129b0576101008083540402835291602001916129db565b820191906000526020600020905b8154815290600101906020018083116129be57829003601f168201915b5050505050908060050180546129f09061448f565b80601f0160208091040260200160405190810160405280929190818152602001828054612a1c9061448f565b8015612a695780601f10612a3e57610100808354040283529160200191612a69565b820191906000526020600020905b815481529060010190602001808311612a4c57829003601f168201915b5050505050905086565b612a9d7f314036e221c52b2e9bffe531890cefb6b09cd8682ad89fc9f25d863bad9622a6336123b4565b612adc576040517f08c379a0000000000000000000000000000000000000000000000000000000008152600401612ad3906158f8565b60405180910390fd5b60006001600554612aed9190615918565b9050600060405180610160016040528083815260200186815260200160006001811115612b1d57612b1c614346565b5b81526020018573ffffffffffffffffffffffffffffffffffffffff168152602001428152602001600081526020014281526020013373ffffffffffffffffffffffffffffffffffffffff168152602001848152602001600067ffffffffffffffff811115612b8e57612b8d613b2d565b5b604051908082528060200260200182016040528015612bbc5781602001602082028036833780820191505090505b508152602001600067ffffffffffffffff811115612bdd57612bdc613b2d565b5b604051908082528060200260200182016040528015612c0b5781602001602082028036833780820191505090505b5081525090508060036000848152602001908152602001600020600082015181600001556020820151816001019081612c449190614744565b5060408201518160020160006101000a81548160ff02191690836001811115612c7057612c6f614346565b5b021790555060608201518160020160016101000a81548173ffffffffffffffffffffffffffffffffffffffff021916908373ffffffffffffffffffffffffffffffffffffffff1602179055506080820151816003015560a0820151816004015560c0820151816005015560e08201518160060160006101000a81548173ffffffffffffffffffffffffffffffffffffffff021916908373ffffffffffffffffffffffffffffffffffffffff1602179055506101008201518160070155610120820151816008019080519060200190612d49929190613a33565b50610140820151816009019080519060200190612d679291906139a9565b5090505060056000815480929190612d7e90614fbd565b91905055503373ffffffffffffffffffffffffffffffffffffffff1681600001517f8be421981ddf495943cb2795a688edb49cec6f69cfd7640ca308a70e894bf7d183604051612dce9190615b8e565b60405180910390a35050505050565b80600260003373ffffffffffffffffffffffffffffffffffffffff1673ffffffffffffffffffffffffffffffffffffffff1681526020019081526020016000206000019081612e2c9190614744565b503373ffffffffffffffffffffffffffffffffffffffff167ff12465ed0fb713415cff89dd51510fda6b6eba598e2fa46ec320b0219e549a62600260003373ffffffffffffffffffffffffffffffffffffffff1673ffffffffffffffffffffffffffffffffffffffff168152602001908152602001600020604051612eb19190614953565b60405180910390a250565b600060036000848152602001908152602001600020905060006004600084815260200190815260200160002090506000805b8260030180549050811015612f8c573373ffffffffffffffffffffffffffffffffffffffff16836003018281548110612f2a57612f29614f5f565b5b9060005260206000200160009054906101000a900473ffffffffffffffffffffffffffffffffffffffff1673ffffffffffffffffffffffffffffffffffffffff1603612f795760019150612f8c565b8080612f8490614fbd565b915050612eee565b503373ffffffffffffffffffffffffffffffffffffffff168360020160019054906101000a900473ffffffffffffffffffffffffffffffffffffffff1673ffffffffffffffffffffffffffffffffffffffff161480612fe85750805b613027576040517f08c379a000000000000000000000000000000000000000000000000000000000815260040161301e90615c22565b60405180910390fd5b600460008581526020019081526020016000206000808201600090556001820160006130539190613a80565b6002820160006130639190613a80565b6003820160006130739190613ac0565b60048201600090556005820160006101000a81549073ffffffffffffffffffffffffffffffffffffffff02191690555050428360050181905550338360060160006101000a81548173ffffffffffffffffffffffffffffffffffffffff021916908373ffffffffffffffffffffffffffffffffffffffff1602179055503373ffffffffffffffffffffffffffffffffffffffff16857f9b6a6e8fb680032b5e363d78ba0b4ce647f5623d5d6868b57803dcc3cb75eb31856040516131379190614f3d565b60405180910390a35050505050565b6131536000801b336123b4565b613192576040517f08c379a000000000000000000000000000000000000000000000000000000000815260040161318990615cb4565b60405180910390fd5b6131bc7f3420d2a02f28e92b971806872c4fa85469cb08e4ff28a33001ea8f96d6f4025a826135de565b50565b6131e97f314036e221c52b2e9bffe531890cefb6b09cd8682ad89fc9f25d863bad9622a6336123b4565b8061321a57506132197fbf8b635bcfcd8642c9b343eafd77cdb76547a8c3ff41e4316e9996047ad954b8336123b4565b5b613259576040517f08c379a000000000000000000000000000000000000000000000000000000000815260040161325090615d46565b60405180910390fd5b8060036000848152602001908152602001600020600101908161327c9190614744565b50426003600084815260200190815260200160002060050181905550336003600084815260200190815260200160002060060160006101000a81548173ffffffffffffffffffffffffffffffffffffffff021916908373ffffffffffffffffffffffffffffffffffffffff1602179055503373ffffffffffffffffffffffffffffffffffffffff16827f9b6a6e8fb680032b5e363d78ba0b4ce647f5623d5d6868b57803dcc3cb75eb316003600086815260200190815260200160002060405161334691906152df565b60405180910390a35050565b7f3420d2a02f28e92b971806872c4fa85469cb08e4ff28a33001ea8f96d6f4025a81565b6133936001600084815260200190815260200160002054336134ee565b61339d82826136a5565b5050565b60055481565b7fbf8b635bcfcd8642c9b343eafd77cdb76547a8c3ff41e4316e9996047ad954b881565b60036020528060005260406000206000915090508060000154908060010180546133f49061448f565b80601f01602080910402602001604051908101604052809291908181526020018280546134209061448f565b801561346d5780601f106134425761010080835404028352916020019161346d565b820191906000526020600020905b81548152906001019060200180831161345057829003601f168201915b5050505050908060020160009054906101000a900460ff16908060020160019054906101000a900473ffffffffffffffffffffffffffffffffffffffff16908060030154908060040154908060050154908060060160009054906101000a900473ffffffffffffffffffffffffffffffffffffffff16908060070154905089565b60008083815260200190815260200160002060008273ffffffffffffffffffffffffffffffffffffffff1673ffffffffffffffffffffffffffffffffffffffff16815260200190815260200160002060009054906101000a900460ff166135da576135708173ffffffffffffffffffffffffffffffffffffffff16601461376d565b61357e8360001c602061376d565b60405160200161358f929190615e3a565b6040516020818303038152906040526040517f08c379a00000000000000000000000000000000000000000000000000000000081526004016135d1919061416e565b60405180910390fd5b5050565b600160008084815260200190815260200160002060008373ffffffffffffffffffffffffffffffffffffffff1673ffffffffffffffffffffffffffffffffffffffff16815260200190815260200160002060006101000a81548160ff0219169083151502179055503373ffffffffffffffffffffffffffffffffffffffff168173ffffffffffffffffffffffffffffffffffffffff16837f2f8788117e7eff1d82e926ec794901d17c78024a50270940304540a733656f0d60405160405180910390a45050565b6136af82826134ee565b60008083815260200190815260200160002060008273ffffffffffffffffffffffffffffffffffffffff1673ffffffffffffffffffffffffffffffffffffffff16815260200190815260200160002060006101000a81549060ff02191690553373ffffffffffffffffffffffffffffffffffffffff168173ffffffffffffffffffffffffffffffffffffffff16837ff6391f5c32d9c69d2a47ea670b442974b53935d1edc7fd64eb21e047a839171b60405160405180910390a45050565b6060600060028360026137809190615e74565b61378a9190615918565b67ffffffffffffffff8111156137a3576137a2613b2d565b5b6040519080825280601f01601f1916602001820160405280156137d55781602001600182028036833780820191505090505b5090507f30000000000000000000000000000000000000000000000000000000000000008160008151811061380d5761380c614f5f565b5b60200101907effffffffffffffffffffffffffffffffffffffffffffffffffffffffffffff1916908160001a9053507f78000000000000000000000000000000000000000000000000000000000000008160018151811061387157613870614f5f565b5b60200101907effffffffffffffffffffffffffffffffffffffffffffffffffffffffffffff1916908160001a905350600060018460026138b19190615e74565b6138bb9190615918565b90505b600181111561395b577f3031323334353637383961626364656600000000000000000000000000000000600f8616601081106138fd576138fc614f5f565b5b1a60f81b82828151811061391457613913614f5f565b5b60200101907effffffffffffffffffffffffffffffffffffffffffffffffffffffffffffff1916908160001a905350600485901c94508061395490615eb6565b90506138be565b506000841461399f576040517f08c379a000000000000000000000000000000000000000000000000000000000815260040161399690615f2b565b60405180910390fd5b8091505092915050565b828054828255906000526020600020908101928215613a22579160200282015b82811115613a215782518260006101000a81548173ffffffffffffffffffffffffffffffffffffffff021916908373ffffffffffffffffffffffffffffffffffffffff160217905550916020019190600101906139c9565b5b509050613a2f9190613ae1565b5090565b828054828255906000526020600020908101928215613a6f579160200282015b82811115613a6e578251825591602001919060010190613a53565b5b509050613a7c9190613ae1565b5090565b508054613a8c9061448f565b6000825580601f10613a9e5750613abd565b601f016020900490600052602060002090810190613abc9190613ae1565b5b50565b5080546000825590600052602060002090810190613ade9190613ae1565b50565b5b80821115613afa576000816000905550600101613ae2565b5090565b6000604051905090565b600080fd5b600080fd5b600080fd5b600080fd5b6000601f19601f8301169050919050565b7f4e487b7100000000000000000000000000000000000000000000000000000000600052604160045260246000fd5b613b6582613b1c565b810181811067ffffffffffffffff82111715613b8457613b83613b2d565b5b80604052505050565b6000613b97613afe565b9050613ba38282613b5c565b919050565b600067ffffffffffffffff821115613bc357613bc2613b2d565b5b613bcc82613b1c565b9050602081019050919050565b82818337600083830152505050565b6000613bfb613bf684613ba8565b613b8d565b905082815260208101848484011115613c1757613c16613b17565b5b613c22848285613bd9565b509392505050565b600082601f830112613c3f57613c3e613b12565b5b8135613c4f848260208601613be8565b91505092915050565b60008060008060008060c08789031215613c7557613c74613b08565b5b600087013567ffffffffffffffff811115613c9357613c92613b0d565b5b613c9f89828a01613c2a565b965050602087013567ffffffffffffffff811115613cc057613cbf613b0d565b5b613ccc89828a01613c2a565b955050604087013567ffffffffffffffff811115613ced57613cec613b0d565b5b613cf989828a01613c2a565b945050606087013567ffffffffffffffff811115613d1a57613d19613b0d565b5b613d2689828a01613c2a565b935050608087013567ffffffffffffffff811115613d4757613d46613b0d565b5b613d5389828a01613c2a565b92505060a087013567ffffffffffffffff811115613d7457613d73613b0d565b5b613d8089828a01613c2a565b9150509295509295509295565b600060208284031215613da357613da2613b08565b5b600082013567ffffffffffffffff811115613dc157613dc0613b0d565b5b613dcd84828501613c2a565b91505092915050565b600073ffffffffffffffffffffffffffffffffffffffff82169050919050565b6000613e0182613dd6565b9050919050565b613e1181613df6565b8114613e1c57600080fd5b50565b600081359050613e2e81613e08565b92915050565b600060208284031215613e4a57613e49613b08565b5b6000613e5884828501613e1f565b91505092915050565b6000819050919050565b613e7481613e61565b8114613e7f57600080fd5b50565b600081359050613e9181613e6b565b92915050565b600060208284031215613ead57613eac613b08565b5b6000613ebb84828501613e82565b91505092915050565b613ecd81613e61565b82525050565b6000602082019050613ee86000830184613ec4565b92915050565b60008060408385031215613f0557613f04613b08565b5b6000613f1385828601613e82565b9250506020613f2485828601613e1f565b9150509250929050565b6000819050919050565b613f4181613f2e565b8114613f4c57600080fd5b50565b600081359050613f5e81613f38565b92915050565b60008060408385031215613f7b57613f7a613b08565b5b6000613f8985828601613f4f565b9250506020613f9a85828601613e1f565b9150509250929050565b600080600060608486031215613fbd57613fbc613b08565b5b6000613fcb86828701613f4f565b935050602084013567ffffffffffffffff811115613fec57613feb613b0d565b5b613ff886828701613c2a565b925050604084013567ffffffffffffffff81111561401957614018613b0d565b5b61402586828701613c2a565b9150509250925092565b60006020828403121561404557614044613b08565b5b600061405384828501613f4f565b91505092915050565b6000806040838503121561407357614072613b08565b5b600061408185828601613f4f565b925050602061409285828601613f4f565b9150509250929050565b6000806000606084860312156140b5576140b4613b08565b5b60006140c386828701613f4f565b93505060206140d486828701613f4f565b92505060406140e586828701613e1f565b9150509250925092565b600081519050919050565b600082825260208201905092915050565b60005b8381101561412957808201518184015260208101905061410e565b60008484015250505050565b6000614140826140ef565b61414a81856140fa565b935061415a81856020860161410b565b61416381613b1c565b840191505092915050565b600060208201905081810360008301526141888184614135565b905092915050565b60008115159050919050565b6141a581614190565b82525050565b60006020820190506141c0600083018461419c565b92915050565b6141cf81613f2e565b82525050565b60006020820190506141ea60008301846141c6565b92915050565b600060c082019050818103600083015261420a8189614135565b9050818103602083015261421e8188614135565b905081810360408301526142328187614135565b905081810360608301526142468186614135565b9050818103608083015261425a8185614135565b905081810360a083015261426e8184614135565b9050979650505050505050565b60008060006060848603121561429457614293613b08565b5b600084013567ffffffffffffffff8111156142b2576142b1613b0d565b5b6142be86828701613c2a565b93505060206142cf86828701613e1f565b92505060406142e086828701613f4f565b9150509250925092565b6000806040838503121561430157614300613b08565b5b600061430f85828601613f4f565b925050602083013567ffffffffffffffff8111156143305761432f613b0d565b5b61433c85828601613c2a565b9150509250929050565b7f4e487b7100000000000000000000000000000000000000000000000000000000600052602160045260246000fd5b6002811061438657614385614346565b5b50565b600081905061439782614375565b919050565b60006143a782614389565b9050919050565b6143b78161439c565b82525050565b6143c681613df6565b82525050565b6000610120820190506143e2600083018c6141c6565b81810360208301526143f4818b614135565b9050614403604083018a6143ae565b61441060608301896143bd565b61441d60808301886141c6565b61442a60a08301876141c6565b61443760c08301866141c6565b61444460e08301856143bd565b6144526101008301846141c6565b9a9950505050505050505050565b7f4e487b7100000000000000000000000000000000000000000000000000000000600052602260045260246000fd5b600060028204905060018216806144a757607f821691505b6020821081036144ba576144b9614460565b5b50919050565b7f5573657220616c72656164792065786973747300000000000000000000000000600082015250565b60006144f66013836140fa565b9150614501826144c0565b602082019050919050565b60006020820190508181036000830152614525816144e9565b9050919050565b7f557365726e616d6520616c72656164792074616b656e00000000000000000000600082015250565b60006145626016836140fa565b915061456d8261452c565b602082019050919050565b6000602082019050818103600083015261459181614555565b9050919050565b60008190508160005260206000209050919050565b60006020601f8301049050919050565b600082821b905092915050565b6000600883026145fa7fffffffffffffffffffffffffffffffffffffffffffffffffffffffffffffffff826145bd565b61460486836145bd565b95508019841693508086168417925050509392505050565b6000819050919050565b600061464161463c61463784613f2e565b61461c565b613f2e565b9050919050565b6000819050919050565b61465b83614626565b61466f61466782614648565b8484546145ca565b825550505050565b600090565b614684614677565b61468f818484614652565b505050565b5b818110156146b3576146a860008261467c565b600181019050614695565b5050565b601f8211156146f8576146c981614598565b6146d2846145ad565b810160208510156146e1578190505b6146f56146ed856145ad565b830182614694565b50505b505050565b600082821c905092915050565b600061471b600019846008026146fd565b1980831691505092915050565b6000614734838361470a565b9150826002028217905092915050565b61474d826140ef565b67ffffffffffffffff81111561476657614765613b2d565b5b614770825461448f565b61477b8282856146b7565b600060209050601f8311600181146147ae576000841561479c578287015190505b6147a68582614728565b86555061480e565b601f1984166147bc86614598565b60005b828110156147e4578489015182556001820191506020850194506020810190506147bf565b8683101561480157848901516147fd601f89168261470a565b8355505b6001600288020188555050505b505050505050565b600082825260208201905092915050565b600081546148348161448f565b61483e8186614816565b94506001821660008114614859576001811461486f576148a2565b60ff1983168652811515602002860193506148a2565b61487885614598565b60005b8381101561489a5781548189015260018201915060208101905061487b565b808801955050505b50505092915050565b600060c08301600080840185830360008701526148c88382614827565b9250506001840185830360208701526148e18382614827565b9250506002840185830360408701526148fa8382614827565b9250506003840185830360608701526149138382614827565b92505060048401858303608087015261492c8382614827565b9250506005840185830360a08701526149458382614827565b925050819250505092915050565b6000602082019050818103600083015261496d81846148ab565b905092915050565b7f4d75737420686176652061646d696e20726f6c6520746f2064656c657465206460008201527f6574656374697665000000000000000000000000000000000000000000000000602082015250565b60006149d16028836140fa565b91506149dc82614975565b604082019050919050565b60006020820190508181036000830152614a00816149c4565b9050919050565b7f43616e206f6e6c79206772616e7420746f206e6f6e20686f6c64657273000000600082015250565b6000614a3d601d836140fa565b9150614a4882614a07565b602082019050919050565b60006020820190508181036000830152614a6c81614a30565b9050919050565b7f43616e206f6e6c792072656e6f756e636520666f722073656c66000000000000600082015250565b6000614aa9601a836140fa565b9150614ab482614a73565b602082019050919050565b60006020820190508181036000830152614ad881614a9c565b9050919050565b7f4d75737420626520636c69656e7420746f20616464206c617779657220746f2060008201527f6361736500000000000000000000000000000000000000000000000000000000602082015250565b6000614b3b6024836140fa565b9150614b4682614adf565b604082019050919050565b60006020820190508181036000830152614b6a81614b2e565b9050919050565b60008160001c9050919050565b6000819050919050565b6000614b9b614b9683614b71565b614b7e565b9050919050565b614bab81613f2e565b82525050565b600060ff82169050919050565b6000614bd1614bcc83614b71565b614bb1565b9050919050565b614be18161439c565b82525050565b60008160081c9050919050565b600073ffffffffffffffffffffffffffffffffffffffff82169050919050565b6000614c27614c2283614be7565b614bf4565b9050919050565b614c3781613df6565b82525050565b6000614c50614c4b83614b71565b614bf4565b9050919050565b600081549050919050565b600082825260208201905092915050565b60008190508160005260206000209050919050565b6000614c948383614ba2565b60208301905092915050565b6000614cac8254614b88565b9050919050565b6000600182019050919050565b6000614ccb82614c57565b614cd58185614c62565b9350614ce083614c73565b8060005b83811015614d1857614cf582614ca0565b614cff8882614c88565b9750614d0a83614cb3565b925050600181019050614ce4565b5085935050505092915050565b600081549050919050565b600082825260208201905092915050565b60008190508160005260206000209050919050565b6000614d628383614c2e565b60208301905092915050565b6000614d7a8254614c3d565b9050919050565b6000600182019050919050565b6000614d9982614d25565b614da38185614d30565b9350614dae83614d41565b8060005b83811015614de657614dc382614d6e565b614dcd8882614d56565b9750614dd883614d81565b925050600181019050614db2565b5085935050505092915050565b600061016083016000808401549050614e0b81614b88565b614e186000870182614ba2565b50600184018583036020870152614e2f8382614827565b92505060028401549050614e4281614bbe565b614e4f6040870182614bd8565b50614e5981614c14565b614e666060870182614c2e565b5060038401549050614e7781614b88565b614e846080870182614ba2565b5060048401549050614e9581614b88565b614ea260a0870182614ba2565b5060058401549050614eb381614b88565b614ec060c0870182614ba2565b5060068401549050614ed181614c3d565b614ede60e0870182614c2e565b5060078401549050614eef81614b88565b614efd610100870182614ba2565b5060088401858303610120870152614f158382614cc0565b92505060098401858303610140870152614f2f8382614d8e565b925050819250505092915050565b60006020820190508181036000830152614f578184614df3565b905092915050565b7f4e487b7100000000000000000000000000000000000000000000000000000000600052603260045260246000fd5b7f4e487b7100000000000000000000000000000000000000000000000000000000600052601160045260246000fd5b6000614fc882613f2e565b91507fffffffffffffffffffffffffffffffffffffffffffffffffffffffffffffffff8203614ffa57614ff9614f8e565b5b600182019050919050565b7f4d75737420626520636c69656e74206f72206c617779657220746f206164642060008201527f646f63756d656e74000000000000000000000000000000000000000000000000602082015250565b60006150616028836140fa565b915061506c82615005565b604082019050919050565b6000602082019050818103600083015261509081615054565b9050919050565b7f4d7573742068617665204c61777965722f4a7564676520726f6c6520746f206360008201527f6c6f736520612063617365000000000000000000000000000000000000000000602082015250565b60006150f3602b836140fa565b91506150fe82615097565b604082019050919050565b60006020820190508181036000830152615122816150e6565b9050919050565b7f43617365206d757374206265206f70656e20746f20636c6f7365000000000000600082015250565b600061515f601a836140fa565b915061516a82615129565b602082019050919050565b6000602082019050818103600083015261518e81615152565b9050919050565b6000610160830160008084015490506151ad81614b88565b6151ba6000870182614ba2565b506001840185830360208701526151d18382614827565b925050600284015490506151e481614bbe565b6151f16040870182614bd8565b506151fb81614c14565b6152086060870182614c2e565b506003840154905061521981614b88565b6152266080870182614ba2565b506004840154905061523781614b88565b61524460a0870182614ba2565b506005840154905061525581614b88565b61526260c0870182614ba2565b506006840154905061527381614c3d565b61528060e0870182614c2e565b506007840154905061529181614b88565b61529f610100870182614ba2565b50600884018583036101208701526152b78382614cc0565b925050600984018583036101408701526152d18382614d8e565b925050819250505092915050565b600060208201905081810360008301526152f98184615195565b905092915050565b7f4d7573742068617665204a7564676520726f6c6520746f20757064617465206160008201527f206e6578742068656172696e6700000000000000000000000000000000000000602082015250565b600061535d602d836140fa565b915061536882615301565b604082019050919050565b6000602082019050818103600083015261538c81615350565b9050919050565b7f4d75737420686176652061646d696e20726f6c6520746f2064656c657465206c60008201527f6177796572000000000000000000000000000000000000000000000000000000602082015250565b60006153ef6025836140fa565b91506153fa82615393565b604082019050919050565b6000602082019050818103600083015261541e816153e2565b9050919050565b7f4d75737420626520636c69656e7420746f2064656c65746520617574686f726960008201527f7a65642075736572000000000000000000000000000000000000000000000000602082015250565b60006154816028836140fa565b915061548c82615425565b604082019050919050565b600060208201905081810360008301526154b081615474565b9050919050565b60006154c282613f2e565b91506154cd83613f2e565b92508282039050818111156154e5576154e4614f8e565b5b92915050565b7f4e487b7100000000000000000000000000000000000000000000000000000000600052603160045260246000fd5b7f4d75737420686176652061646d696e20726f6c6520746f20616464206c61777960008201527f6572000000000000000000000000000000000000000000000000000000000000602082015250565b60006155766022836140fa565b91506155818261551a565b604082019050919050565b600060208201905081810360008301526155a581615569565b9050919050565b7f4d757374206861766520436c69656e742f4c61777965722f4a756467652f446560008201527f7465637469766520726f6c6520746f2067657420646f63756d656e7420636964602082015250565b60006156086040836140fa565b9150615613826155ac565b604082019050919050565b60006020820190508181036000830152615637816155fb565b9050919050565b7f4d75737420626520636c69656e7420746f2064656c657465206c61777965722060008201527f66726f6d20636173650000000000000000000000000000000000000000000000602082015250565b600061569a6029836140fa565b91506156a58261563e565b604082019050919050565b600060208201905081810360008301526156c98161568d565b9050919050565b7f4d75737420626520636c69656e7420746f2061646420617574686f72697a656460008201527f2075736572000000000000000000000000000000000000000000000000000000602082015250565b600061572c6025836140fa565b9150615737826156d0565b604082019050919050565b6000602082019050818103600083015261575b8161571f565b9050919050565b7f4d75737420686176652061646d696e20726f6c6520746f2064656c657465206a60008201527f7564676500000000000000000000000000000000000000000000000000000000602082015250565b60006157be6024836140fa565b91506157c982615762565b604082019050919050565b600060208201905081810360008301526157ed816157b1565b9050919050565b7f4d75737420686176652061646d696e20726f6c6520746f20616464206a75646760008201527f6500000000000000000000000000000000000000000000000000000000000000602082015250565b60006158506021836140fa565b915061585b826157f4565b604082019050919050565b6000602082019050818103600083015261587f81615843565b9050919050565b7f4d7573742068617665204c617779657220726f6c6520746f206372656174652060008201527f6120636173650000000000000000000000000000000000000000000000000000602082015250565b60006158e26026836140fa565b91506158ed82615886565b604082019050919050565b60006020820190508181036000830152615911816158d5565b9050919050565b600061592382613f2e565b915061592e83613f2e565b925082820190508082111561594657615945614f8e565b5b92915050565b6000615957826140ef565b6159618185614816565b935061597181856020860161410b565b61597a81613b1c565b840191505092915050565b600081519050919050565b6000819050602082019050919050565b6000602082019050919050565b60006159b882615985565b6159c28185614c62565b93506159cd83615990565b8060005b838110156159fe5781516159e58882614c88565b97506159f0836159a0565b9250506001810190506159d1565b5085935050505092915050565b600081519050919050565b6000819050602082019050919050565b6000602082019050919050565b6000615a3e82615a0b565b615a488185614d30565b9350615a5383615a16565b8060005b83811015615a84578151615a6b8882614d56565b9750615a7683615a26565b925050600181019050615a57565b5085935050505092915050565b600061016083016000830151615aaa6000860182614ba2565b5060208301518482036020860152615ac2828261594c565b9150506040830151615ad76040860182614bd8565b506060830151615aea6060860182614c2e565b506080830151615afd6080860182614ba2565b5060a0830151615b1060a0860182614ba2565b5060c0830151615b2360c0860182614ba2565b5060e0830151615b3660e0860182614c2e565b50610100830151615b4b610100860182614ba2565b50610120830151848203610120860152615b6582826159ad565b915050610140830151848203610140860152615b818282615a33565b9150508091505092915050565b60006020820190508181036000830152615ba88184615a91565b905092915050565b7f4d75737420626520636c69656e74206f72206c617779657220746f2064656c6560008201527f746520646f63756d656e74000000000000000000000000000000000000000000602082015250565b6000615c0c602b836140fa565b9150615c1782615bb0565b604082019050919050565b60006020820190508181036000830152615c3b81615bff565b9050919050565b7f4d75737420686176652061646d696e20726f6c6520746f20616464206465746560008201527f6374697665000000000000000000000000000000000000000000000000000000602082015250565b6000615c9e6025836140fa565b9150615ca982615c42565b604082019050919050565b60006020820190508181036000830152615ccd81615c91565b9050919050565b7f4d7573742068617665204c61777965722f4a7564676520726f6c6520746f207560008201527f7064617465206120636173650000000000000000000000000000000000000000602082015250565b6000615d30602c836140fa565b9150615d3b82615cd4565b604082019050919050565b60006020820190508181036000830152615d5f81615d23565b9050919050565b600081905092915050565b7f5065726d697373696f6e733a206163636f756e74200000000000000000000000600082015250565b6000615da7601583615d66565b9150615db282615d71565b601582019050919050565b6000615dc8826140ef565b615dd28185615d66565b9350615de281856020860161410b565b80840191505092915050565b7f206973206d697373696e6720726f6c6520000000000000000000000000000000600082015250565b6000615e24601183615d66565b9150615e2f82615dee565b601182019050919050565b6000615e4582615d9a565b9150615e518285615dbd565b9150615e5c82615e17565b9150615e688284615dbd565b91508190509392505050565b6000615e7f82613f2e565b9150615e8a83613f2e565b9250828202615e9881613f2e565b91508282048414831517615eaf57615eae614f8e565b5b5092915050565b6000615ec182613f2e565b915060008203615ed457615ed3614f8e565b5b600182039050919050565b7f537472696e67733a20686578206c656e67746820696e73756666696369656e74600082015250565b6000615f156020836140fa565b9150615f2082615edf565b602082019050919050565b60006020820190508181036000830152615f4481615f08565b905091905056fea264697066735822122044a9c49ae524339ed391d941c3e7d508138895635a989bc54208edb995d839cd64736f6c63430008130033",
  "linkReferences": {},
  "deployedLinkReferences": {}
}