{
  "_format": "hh-sol-artifact-1",
  "contractName": "RecordWarden",
  "sourceName": "contracts/RecordWarden.sol",
  "abi": [
    {
      "inputs": [],
      "stateMutability": "nonpayable",
      "type": "constructor"
    },
    {
      "anonymous": false,
      "inputs": [
        {
          "indexed": true,
          "internalType": "uint256",
          "name": "id",
          "type": "uint256"
        },
        {
          "indexed": true,
          "internalType": "address",
          "name": "lawyer",
          "type": "address"
        },
        {
          "components": [
            {
              "internalType": "uint256",
              "name": "id",
              "type": "uint256"
            },
            {
              "internalType": "string",
              "name": "description",
              "type": "string"
            },
            {
              "internalType": "enum CaseStatus",
              "name": "status",
              "type": "uint8"
            },
            {
              "internalType": "address",
              "name": "client",
              "type": "address"
            },
            {
              "internalType": "uint256",
              "name": "createdAt",
              "type": "uint256"
            },
            {
              "internalType": "uint256",
              "name": "closedAt",
              "type": "uint256"
            },
            {
              "internalType": "uint256",
              "name": "updatedAt",
              "type": "uint256"
            },
            {
              "internalType": "address",
              "name": "updatedBy",
              "type": "address"
            },
            {
              "internalType": "uint256",
              "name": "nextHearing",
              "type": "uint256"
            },
            {
              "internalType": "uint256[]",
              "name": "documents",
              "type": "uint256[]"
            },
            {
              "internalType": "address[]",
              "name": "lawyers",
              "type": "address[]"
            }
          ],
          "indexed": false,
          "internalType": "struct Case",
          "name": "c",
          "type": "tuple"
        }
      ],
      "name": "CaseClosed",
      "type": "event"
    },
    {
      "anonymous": false,
      "inputs": [
        {
          "indexed": true,
          "internalType": "uint256",
          "name": "id",
          "type": "uint256"
        },
        {
          "indexed": true,
          "internalType": "address",
          "name": "lawyer",
          "type": "address"
        },
        {
          "components": [
            {
              "internalType": "uint256",
              "name": "id",
              "type": "uint256"
            },
            {
              "internalType": "string",
              "name": "description",
              "type": "string"
            },
            {
              "internalType": "enum CaseStatus",
              "name": "status",
              "type": "uint8"
            },
            {
              "internalType": "address",
              "name": "client",
              "type": "address"
            },
            {
              "internalType": "uint256",
              "name": "createdAt",
              "type": "uint256"
            },
            {
              "internalType": "uint256",
              "name": "closedAt",
              "type": "uint256"
            },
            {
              "internalType": "uint256",
              "name": "updatedAt",
              "type": "uint256"
            },
            {
              "internalType": "address",
              "name": "updatedBy",
              "type": "address"
            },
            {
              "internalType": "uint256",
              "name": "nextHearing",
              "type": "uint256"
            },
            {
              "internalType": "uint256[]",
              "name": "documents",
              "type": "uint256[]"
            },
            {
              "internalType": "address[]",
              "name": "lawyers",
              "type": "address[]"
            }
          ],
          "indexed": false,
          "internalType": "struct Case",
          "name": "c",
          "type": "tuple"
        }
      ],
      "name": "CaseCreated",
      "type": "event"
    },
    {
      "anonymous": false,
      "inputs": [
        {
          "indexed": true,
          "internalType": "uint256",
          "name": "id",
          "type": "uint256"
        },
        {
          "indexed": true,
          "internalType": "address",
          "name": "lawyer",
          "type": "address"
        },
        {
          "components": [
            {
              "internalType": "uint256",
              "name": "id",
              "type": "uint256"
            },
            {
              "internalType": "string",
              "name": "description",
              "type": "string"
            },
            {
              "internalType": "enum CaseStatus",
              "name": "status",
              "type": "uint8"
            },
            {
              "internalType": "address",
              "name": "client",
              "type": "address"
            },
            {
              "internalType": "uint256",
              "name": "createdAt",
              "type": "uint256"
            },
            {
              "internalType": "uint256",
              "name": "closedAt",
              "type": "uint256"
            },
            {
              "internalType": "uint256",
              "name": "updatedAt",
              "type": "uint256"
            },
            {
              "internalType": "address",
              "name": "updatedBy",
              "type": "address"
            },
            {
              "internalType": "uint256",
              "name": "nextHearing",
              "type": "uint256"
            },
            {
              "internalType": "uint256[]",
              "name": "documents",
              "type": "uint256[]"
            },
            {
              "internalType": "address[]",
              "name": "lawyers",
              "type": "address[]"
            }
          ],
          "indexed": false,
          "internalType": "struct Case",
          "name": "c",
          "type": "tuple"
        }
      ],
      "name": "CaseUpdated",
      "type": "event"
    },
    {
      "anonymous": false,
      "inputs": [
        {
          "indexed": true,
          "internalType": "bytes32",
          "name": "role",
          "type": "bytes32"
        },
        {
          "indexed": true,
          "internalType": "bytes32",
          "name": "previousAdminRole",
          "type": "bytes32"
        },
        {
          "indexed": true,
          "internalType": "bytes32",
          "name": "newAdminRole",
          "type": "bytes32"
        }
      ],
      "name": "RoleAdminChanged",
      "type": "event"
    },
    {
      "anonymous": false,
      "inputs": [
        {
          "indexed": true,
          "internalType": "bytes32",
          "name": "role",
          "type": "bytes32"
        },
        {
          "indexed": true,
          "internalType": "address",
          "name": "account",
          "type": "address"
        },
        {
          "indexed": true,
          "internalType": "address",
          "name": "sender",
          "type": "address"
        }
      ],
      "name": "RoleGranted",
      "type": "event"
    },
    {
      "anonymous": false,
      "inputs": [
        {
          "indexed": true,
          "internalType": "bytes32",
          "name": "role",
          "type": "bytes32"
        },
        {
          "indexed": true,
          "internalType": "address",
          "name": "account",
          "type": "address"
        },
        {
          "indexed": true,
          "internalType": "address",
          "name": "sender",
          "type": "address"
        }
      ],
      "name": "RoleRevoked",
      "type": "event"
    },
    {
      "anonymous": false,
      "inputs": [
        {
          "indexed": true,
          "internalType": "address",
          "name": "user",
          "type": "address"
        },
        {
          "components": [
            {
              "internalType": "string",
              "name": "name",
              "type": "string"
            },
            {
              "internalType": "string",
              "name": "username",
              "type": "string"
            },
            {
              "internalType": "string",
              "name": "avatar",
              "type": "string"
            },
            {
              "internalType": "string",
              "name": "bio",
              "type": "string"
            },
            {
              "internalType": "string",
              "name": "location",
              "type": "string"
            },
            {
              "internalType": "string",
              "name": "email",
              "type": "string"
            }
          ],
          "indexed": false,
          "internalType": "struct User",
          "name": "u",
          "type": "tuple"
        }
      ],
      "name": "UserCreated",
      "type": "event"
    },
    {
      "anonymous": false,
      "inputs": [
        {
          "indexed": true,
          "internalType": "address",
          "name": "user",
          "type": "address"
        },
        {
          "components": [
            {
              "internalType": "string",
              "name": "name",
              "type": "string"
            },
            {
              "internalType": "string",
              "name": "username",
              "type": "string"
            },
            {
              "internalType": "string",
              "name": "avatar",
              "type": "string"
            },
            {
              "internalType": "string",
              "name": "bio",
              "type": "string"
            },
            {
              "internalType": "string",
              "name": "location",
              "type": "string"
            },
            {
              "internalType": "string",
              "name": "email",
              "type": "string"
            }
          ],
          "indexed": false,
          "internalType": "struct User",
          "name": "u",
          "type": "tuple"
        }
      ],
      "name": "UserUpdated",
      "type": "event"
    },
    {
      "inputs": [],
      "name": "DEFAULT_ADMIN_ROLE",
      "outputs": [
        {
          "internalType": "bytes32",
          "name": "",
          "type": "bytes32"
        }
      ],
      "stateMutability": "view",
      "type": "function"
    },
    {
      "inputs": [],
      "name": "DetectiveRole",
      "outputs": [
        {
          "internalType": "bytes32",
          "name": "",
          "type": "bytes32"
        }
      ],
      "stateMutability": "view",
      "type": "function"
    },
    {
      "inputs": [],
      "name": "JudgeRole",
      "outputs": [
        {
          "internalType": "bytes32",
          "name": "",
          "type": "bytes32"
        }
      ],
      "stateMutability": "view",
      "type": "function"
    },
    {
      "inputs": [],
      "name": "LawyerRole",
      "outputs": [
        {
          "internalType": "bytes32",
          "name": "",
          "type": "bytes32"
        }
      ],
      "stateMutability": "view",
      "type": "function"
    },
    {
      "inputs": [
        {
          "internalType": "uint256",
          "name": "id",
          "type": "uint256"
        },
        {
          "internalType": "string",
          "name": "name",
          "type": "string"
        },
        {
          "internalType": "string",
          "name": "cid",
          "type": "string"
        }
      ],
      "name": "addCaseDocument",
      "outputs": [],
      "stateMutability": "nonpayable",
      "type": "function"
    },
    {
      "inputs": [
        {
          "internalType": "uint256",
          "name": "id",
          "type": "uint256"
        },
        {
          "internalType": "address",
          "name": "lawyer",
          "type": "address"
        }
      ],
      "name": "addCaseLawyer",
      "outputs": [],
      "stateMutability": "nonpayable",
      "type": "function"
    },
    {
      "inputs": [
        {
          "internalType": "uint256",
          "name": "id",
          "type": "uint256"
        },
        {
          "internalType": "uint256",
          "name": "docId",
          "type": "uint256"
        },
        {
          "internalType": "address",
          "name": "user",
          "type": "address"
        }
      ],
      "name": "addDocumentAuthorized",
      "outputs": [],
      "stateMutability": "nonpayable",
      "type": "function"
    },
    {
      "inputs": [],
      "name": "caseCount",
      "outputs": [
        {
          "internalType": "uint256",
          "name": "",
          "type": "uint256"
        }
      ],
      "stateMutability": "view",
      "type": "function"
    },
    {
      "inputs": [
        {
          "internalType": "uint256",
          "name": "",
          "type": "uint256"
        }
      ],
      "name": "cases",
      "outputs": [
        {
          "internalType": "uint256",
          "name": "id",
          "type": "uint256"
        },
        {
          "internalType": "string",
          "name": "description",
          "type": "string"
        },
        {
          "internalType": "enum CaseStatus",
          "name": "status",
          "type": "uint8"
        },
        {
          "internalType": "address",
          "name": "client",
          "type": "address"
        },
        {
          "internalType": "uint256",
          "name": "createdAt",
          "type": "uint256"
        },
        {
          "internalType": "uint256",
          "name": "closedAt",
          "type": "uint256"
        },
        {
          "internalType": "uint256",
          "name": "updatedAt",
          "type": "uint256"
        },
        {
          "internalType": "address",
          "name": "updatedBy",
          "type": "address"
        },
        {
          "internalType": "uint256",
          "name": "nextHearing",
          "type": "uint256"
        }
      ],
      "stateMutability": "view",
      "type": "function"
    },
    {
      "inputs": [
        {
          "internalType": "uint256",
          "name": "id",
          "type": "uint256"
        }
      ],
      "name": "closeCase",
      "outputs": [],
      "stateMutability": "nonpayable",
      "type": "function"
    },
    {
      "inputs": [
        {
          "internalType": "string",
          "name": "description",
          "type": "string"
        },
        {
          "internalType": "address",
          "name": "client",
          "type": "address"
        },
        {
          "internalType": "uint256",
          "name": "nextHearing",
          "type": "uint256"
        }
      ],
      "name": "createCase",
      "outputs": [],
      "stateMutability": "nonpayable",
      "type": "function"
    },
    {
      "inputs": [
        {
          "internalType": "string",
          "name": "name",
          "type": "string"
        },
        {
          "internalType": "string",
          "name": "username",
          "type": "string"
        },
        {
          "internalType": "string",
          "name": "avatar",
          "type": "string"
        },
        {
          "internalType": "string",
          "name": "bio",
          "type": "string"
        },
        {
          "internalType": "string",
          "name": "location",
          "type": "string"
        },
        {
          "internalType": "string",
          "name": "email",
          "type": "string"
        }
      ],
      "name": "createUser",
      "outputs": [],
      "stateMutability": "nonpayable",
      "type": "function"
    },
    {
      "inputs": [
        {
          "internalType": "uint256",
          "name": "id",
          "type": "uint256"
        },
        {
          "internalType": "uint256",
          "name": "docId",
          "type": "uint256"
        }
      ],
      "name": "deleteCaseDocument",
      "outputs": [],
      "stateMutability": "nonpayable",
      "type": "function"
    },
    {
      "inputs": [
        {
          "internalType": "uint256",
          "name": "id",
          "type": "uint256"
        },
        {
          "internalType": "address",
          "name": "lawyer",
          "type": "address"
        }
      ],
      "name": "deleteCaseLawyer",
      "outputs": [],
      "stateMutability": "nonpayable",
      "type": "function"
    },
    {
      "inputs": [
        {
          "internalType": "uint256",
          "name": "id",
          "type": "uint256"
        },
        {
          "internalType": "uint256",
          "name": "docId",
          "type": "uint256"
        },
        {
          "internalType": "address",
          "name": "user",
          "type": "address"
        }
      ],
      "name": "deleteDocumentAuthorized",
      "outputs": [],
      "stateMutability": "nonpayable",
      "type": "function"
    },
    {
      "inputs": [],
      "name": "documentCount",
      "outputs": [
        {
          "internalType": "uint256",
          "name": "",
          "type": "uint256"
        }
      ],
      "stateMutability": "view",
      "type": "function"
    },
    {
      "inputs": [
        {
          "internalType": "uint256",
          "name": "id",
          "type": "uint256"
        }
      ],
      "name": "getDocumentCID",
      "outputs": [
        {
          "internalType": "string",
          "name": "",
          "type": "string"
        }
      ],
      "stateMutability": "view",
      "type": "function"
    },
    {
      "inputs": [
        {
          "internalType": "bytes32",
          "name": "role",
          "type": "bytes32"
        }
      ],
      "name": "getRoleAdmin",
      "outputs": [
        {
          "internalType": "bytes32",
          "name": "",
          "type": "bytes32"
        }
      ],
      "stateMutability": "view",
      "type": "function"
    },
    {
      "inputs": [
        {
          "internalType": "bytes32",
          "name": "role",
          "type": "bytes32"
        },
        {
          "internalType": "address",
          "name": "account",
          "type": "address"
        }
      ],
      "name": "grantRole",
      "outputs": [],
      "stateMutability": "nonpayable",
      "type": "function"
    },
    {
      "inputs": [
        {
          "internalType": "bytes32",
          "name": "role",
          "type": "bytes32"
        },
        {
          "internalType": "address",
          "name": "account",
          "type": "address"
        }
      ],
      "name": "hasRole",
      "outputs": [
        {
          "internalType": "bool",
          "name": "",
          "type": "bool"
        }
      ],
      "stateMutability": "view",
      "type": "function"
    },
    {
      "inputs": [
        {
          "internalType": "bytes32",
          "name": "role",
          "type": "bytes32"
        },
        {
          "internalType": "address",
          "name": "account",
          "type": "address"
        }
      ],
      "name": "hasRoleWithSwitch",
      "outputs": [
        {
          "internalType": "bool",
          "name": "",
          "type": "bool"
        }
      ],
      "stateMutability": "view",
      "type": "function"
    },
    {
      "inputs": [
        {
          "internalType": "bytes32",
          "name": "role",
          "type": "bytes32"
        },
        {
          "internalType": "address",
          "name": "account",
          "type": "address"
        }
      ],
      "name": "renounceRole",
      "outputs": [],
      "stateMutability": "nonpayable",
      "type": "function"
    },
    {
      "inputs": [
        {
          "internalType": "bytes32",
          "name": "role",
          "type": "bytes32"
        },
        {
          "internalType": "address",
          "name": "account",
          "type": "address"
        }
      ],
      "name": "revokeRole",
      "outputs": [],
      "stateMutability": "nonpayable",
      "type": "function"
    },
    {
      "inputs": [
        {
          "internalType": "uint256",
          "name": "id",
          "type": "uint256"
        },
        {
          "internalType": "string",
          "name": "description",
          "type": "string"
        }
      ],
      "name": "updateCaseDescription",
      "outputs": [],
      "stateMutability": "nonpayable",
      "type": "function"
    },
    {
      "inputs": [
        {
          "internalType": "uint256",
          "name": "id",
          "type": "uint256"
        },
        {
          "internalType": "uint256",
          "name": "nextHearing",
          "type": "uint256"
        }
      ],
      "name": "updateNextHearing",
      "outputs": [],
      "stateMutability": "nonpayable",
      "type": "function"
    },
    {
      "inputs": [
        {
          "internalType": "string",
          "name": "field",
          "type": "string"
        },
        {
          "internalType": "string",
          "name": "value",
          "type": "string"
        }
      ],
      "name": "updateUserField",
      "outputs": [],
      "stateMutability": "nonpayable",
      "type": "function"
    },
    {
      "inputs": [
        {
          "internalType": "address",
          "name": "",
          "type": "address"
        }
      ],
      "name": "users",
      "outputs": [
        {
          "internalType": "string",
          "name": "name",
          "type": "string"
        },
        {
          "internalType": "string",
          "name": "username",
          "type": "string"
        },
        {
          "internalType": "string",
          "name": "avatar",
          "type": "string"
        },
        {
          "internalType": "string",
          "name": "bio",
          "type": "string"
        },
        {
          "internalType": "string",
          "name": "location",
          "type": "string"
        },
        {
          "internalType": "string",
          "name": "email",
          "type": "string"
        }
      ],
      "stateMutability": "view",
      "type": "function"
    }
  ],
  "bytecode": "0x60806040523480156200001157600080fd5b506200001f60003362000025565b6200007e565b6000828152602081815260408083206001600160a01b0385168085529252808320805460ff1916600117905551339285917f2f8788117e7eff1d82e926ec794901d17c78024a50270940304540a733656f0d9190a45050565b6135aa806200008e6000396000f3fe608060405234801561001057600080fd5b50600436106101a95760003560e01c80639c0574f3116100f9578063be2bb35011610097578063da2d7e9511610071578063da2d7e95146103b5578063e24b18b6146103be578063e8db61bb146103d1578063f09790dd146103e657600080fd5b8063be2bb35014610368578063bf97c2bd1461037b578063d547741f146103a257600080fd5b8063a5b16b2e116100d3578063a5b16b2e14610314578063a87430ba1461031d578063aaa536f414610342578063b5712f1f1461035557600080fd5b80639c0574f3146102e4578063a217fddf146102f9578063a32fa5b31461030157600080fd5b80633ffad9121161016657806369e354a71161014057806369e354a71461027b578063735d9fbb1461029b5780638d97d506146102ae57806391d14854146102c157600080fd5b80633ffad912146102425780634081b934146102555780634522e4311461026857600080fd5b806301dadb2b146101ae578063248a9ca3146101c35780632f2ff15d146101f657806336568abe1461020957806337683eb81461021c578063386f8fe71461022f575b600080fd5b6101c16101bc36600461297e565b61040e565b005b6101e36101d1366004612a73565b60009081526001602052604090205490565b6040519081526020015b60405180910390f35b6101c1610204366004612aa8565b6105e4565b6101c1610217366004612aa8565b61067c565b6101c161022a366004612aa8565b6106de565b6101c161023d366004612ad4565b6108c8565b6101c1610250366004612a73565b610c32565b6101c1610263366004612b41565b610d9c565b6101c1610276366004612b63565b610e74565b61028e610289366004612a73565b6111da565b6040516101ed9190612be8565b6101c16102a9366004612aa8565b6113be565b6101c16102bc366004612b63565b611592565b6102d46102cf366004612aa8565b611695565b60405190151581526020016101ed565b6101e360008051602061353583398151915281565b6101e3600081565b6102d461030f366004612aa8565b6116c0565b6101e360065481565b61033061032b366004612bfb565b611712565b6040516101ed96959493929190612c16565b6101c1610350366004612c98565b611a76565b6101c1610363366004612b41565b611d36565b6101c1610376366004612cef565b611fbe565b6101e37f3420d2a02f28e92b971806872c4fa85469cb08e4ff28a33001ea8f96d6f4025a81565b6101c16103b0366004612aa8565b6120bc565b6101e360055481565b6101c16103cc366004612d36565b6120d5565b6101e360008051602061351583398151915281565b6103f96103f4366004612a73565b6123d2565b6040516101ed99989796959493929190612dc8565b336000908152600260205260409020600101805461042b90612e31565b1590506104755760405162461bcd60e51b81526020600482015260136024820152725573657220616c72656164792065786973747360681b60448201526064015b60405180910390fd5b336000908152600260205260409020600101805461049290612e31565b1590506104da5760405162461bcd60e51b81526020600482015260166024820152752ab9b2b93730b6b29030b63932b0b23c903a30b5b2b760511b604482015260640161046c565b6040805160c0810182528781526020808201889052818301879052606082018690526080820185905260a08201849052336000908152600290915291909120815181906105279082612eba565b506020820151600182019061053c9082612eba565b50604082015160028201906105519082612eba565b50606082015160038201906105669082612eba565b506080820151600482019061057b9082612eba565b5060a082015160058201906105909082612eba565b5050336000818152600260205260409081902090519192507f9cc4cf5bb33683f960046cee1f7588a07d47fdd2d774b48920524a15b2069f54916105d49190613083565b60405180910390a2505050505050565b6000828152600160205260409020546105fd90336124b5565b6000828152602081815260408083206001600160a01b038516845290915290205460ff161561066e5760405162461bcd60e51b815260206004820152601d60248201527f43616e206f6e6c79206772616e7420746f206e6f6e20686f6c64657273000000604482015260640161046c565b6106788282612533565b5050565b336001600160a01b038216146106d45760405162461bcd60e51b815260206004820152601a60248201527f43616e206f6e6c792072656e6f756e636520666f722073656c66000000000000604482015260640161046c565b610678828261258c565b6000828152600360205260409020600281015461010090046001600160a01b031633146107595760405162461bcd60e51b8152602060048201526024808201527f4d75737420626520636c69656e7420746f20616464206c617779657220746f206044820152636361736560e01b606482015260840161046c565b600981018054600181810183556000928352602080842090920180546001600160a01b0387166001600160a01b0319918216179091554260058601556006850180549091163317905585835260039091526040909120825481558291818101906107c590840182613096565b50600282810154908201805460ff9092169160ff1916600183818111156107ee576107ee612d90565b021790555060028281015490820180546001600160a01b03610100938490048116909302610100600160a81b031990911617905560038084015490830155600480840154908301556005808401549083015560068084015490830180546001600160a01b03191691909216179055600780830154908201556008808301805461087a928401919061278f565b506009828101805461088f928401919061278f565b50905050336001600160a01b031683600080516020613555833981519152836040516108bb919061329a565b60405180910390a3505050565b600083815260036020526040812090805b600983015481101561093957336001600160a01b0316836009018281548110610904576109046132ad565b6000918252602090912001546001600160a01b0316036109275760019150610939565b80610931816132d9565b9150506108d9565b50600282015461010090046001600160a01b03163314806109575750805b6109b45760405162461bcd60e51b815260206004820152602860248201527f4d75737420626520636c69656e74206f72206c617779657220746f2061646420604482015267191bd8dd5b595b9d60c21b606482015260840161046c565b60006040518060c001604052806006548152602001868152602001858152602001600067ffffffffffffffff8111156109ef576109ef6128db565b604051908082528060200260200182016040528015610a18578160200160208202803683370190505b508152426020808301919091523360409283015260065460009081526004825291909120825181559082015191925082916001820190610a589082612eba565b5060408201516002820190610a6d9082612eba565b5060608201518051610a899160038401916020909101906127df565b506080820151600482015560a090910151600590910180546001600160a01b0319166001600160a01b0390921691909117905560068054906000610acc836132d9565b909155505080516008840180546001818101835560009283526020808420909201939093554260058701556006860180546001600160a01b03191633179055888252600390526040902084548155849181810190610b2c90840182613096565b50600282810154908201805460ff9092169160ff191660018381811115610b5557610b55612d90565b021790555060028281015490820180546001600160a01b03610100938490048116909302610100600160a81b031990911617905560038084015490830155600480840154908301556005808401549083015560068084015490830180546001600160a01b031916919092161790556007808301549082015560088083018054610be1928401919061278f565b5060098281018054610bf6928401919061278f565b50905050336001600160a01b03168660008051602061355583398151915285604051610c22919061329a565b60405180910390a3505050505050565b610c4a60008051602061353583398151915233611695565b80610c685750610c6860008051602061351583398151915233611695565b610cc85760405162461bcd60e51b815260206004820152602b60248201527f4d7573742068617665204c61777965722f4a7564676520726f6c6520746f206360448201526a6c6f73652061206361736560a81b606482015260840161046c565b60008181526003602052604081206002015460ff166001811115610cee57610cee612d90565b14610d3b5760405162461bcd60e51b815260206004820152601a60248201527f43617365206d757374206265206f70656e20746f20636c6f7365000000000000604482015260640161046c565b6000818152600360205260409081902060028101805460ff191660011790554260048201559051339183917f5929886f02db1e3db5cd7195cf9c452e7740e10ea5326a07c1dba33f367473a291610d919161329a565b60405180910390a350565b610db460008051602061351583398151915233611695565b610e165760405162461bcd60e51b815260206004820152602d60248201527f4d7573742068617665204a7564676520726f6c6520746f20757064617465206160448201526c206e6578742068656172696e6760981b606482015260840161046c565b60008281526003602052604090819020600781018390554260058201556006810180546001600160a01b031916339081179091559151849160008051602061355583398151915291610e68919061329a565b60405180910390a35050565b6000838152600360205260409020600281015461010090046001600160a01b03163314610ef45760405162461bcd60e51b815260206004820152602860248201527f4d75737420626520636c69656e7420746f2064656c65746520617574686f72696044820152673d32b2103ab9b2b960c11b606482015260840161046c565b60005b60088201548110156110955783826008018281548110610f1957610f196132ad565b9060005260206000200154036110835760005b60008581526004602052604090206003015481101561107d57600085815260046020526040902060030180546001600160a01b038616919083908110610f7457610f746132ad565b6000918252602090912001546001600160a01b03160361106b5760008581526004602052604090206003018054610fad906001906132f2565b81548110610fbd57610fbd6132ad565b60009182526020808320909101548783526004909152604090912060030180546001600160a01b039092169183908110610ff957610ff96132ad565b600091825260208083209190910180546001600160a01b0319166001600160a01b03949094169390931790925586815260049091526040902060030180548061104457611044613305565b600082815260209020810160001990810180546001600160a01b031916905501905561107d565b80611075816132d9565b915050610f2c565b50611095565b8061108d816132d9565b915050610ef7565b504260058201556006810180546001600160a01b0319163317905560008481526003602052604090208154815581906001818101906110d690840182613096565b50600282810154908201805460ff9092169160ff1916600183818111156110ff576110ff612d90565b021790555060028281015490820180546001600160a01b03610100938490048116909302610100600160a81b031990911617905560038084015490830155600480840154908301556005808401549083015560068084015490830180546001600160a01b03191691909216179055600780830154908201556008808301805461118b928401919061278f565b50600982810180546111a0928401919061278f565b50905050336001600160a01b031684600080516020613555833981519152836040516111cc919061329a565b60405180910390a350505050565b6000818152600460205260408120606091805b600383015481101561124d57336001600160a01b0316836003018281548110611218576112186132ad565b6000918252602090912001546001600160a01b03160361123b576001915061124d565b80611245816132d9565b9150506111ed565b5060058201546001600160a01b03163314806112665750805b80611284575061128460008051602061351583398151915233611695565b806112b457506112b47f3420d2a02f28e92b971806872c4fa85469cb08e4ff28a33001ea8f96d6f4025a33611695565b611328576040805162461bcd60e51b81526020600482015260248101919091527f4d757374206861766520436c69656e742f4c61777965722f4a756467652f446560448201527f7465637469766520726f6c6520746f2067657420646f63756d656e7420636964606482015260840161046c565b81600201805461133790612e31565b80601f016020809104026020016040519081016040528092919081815260200182805461136390612e31565b80156113b05780601f10611385576101008083540402835291602001916113b0565b820191906000526020600020905b81548152906001019060200180831161139357829003601f168201915b505050505092505050919050565b6000828152600360205260409020600281015461010090046001600160a01b0316331461143f5760405162461bcd60e51b815260206004820152602960248201527f4d75737420626520636c69656e7420746f2064656c657465206c61777965722060448201526866726f6d206361736560b81b606482015260840161046c565b60005b600982015481101561155157826001600160a01b031682600901828154811061146d5761146d6132ad565b6000918252602090912001546001600160a01b03160361153f57600982018054611499906001906132f2565b815481106114a9576114a96132ad565b6000918252602090912001546009830180546001600160a01b0390921691839081106114d7576114d76132ad565b9060005260206000200160006101000a8154816001600160a01b0302191690836001600160a01b031602179055508160090180548061151857611518613305565b600082815260209020810160001990810180546001600160a01b0319169055019055611551565b80611549816132d9565b915050611442565b504260058201556006810180546001600160a01b0319163317905560008381526003602052604090208154815581906001818101906107c590840182613096565b6000838152600360205260409020600281015461010090046001600160a01b0316331461160f5760405162461bcd60e51b815260206004820152602560248201527f4d75737420626520636c69656e7420746f2061646420617574686f72697a6564604482015264103ab9b2b960d91b606482015260840161046c565b60005b60088201548110156110955783826008018281548110611634576116346132ad565b9060005260206000200154036116835760008481526004602090815260408220600301805460018101825590835291200180546001600160a01b0319166001600160a01b038516179055611095565b8061168d816132d9565b915050611612565b6000828152602081815260408083206001600160a01b038516845290915290205460ff165b92915050565b60008281526020818152604080832083805290915281205460ff1661170957506000828152602081815260408083206001600160a01b038516845290915290205460ff166116ba565b50600192915050565b60026020526000908152604090208054819061172d90612e31565b80601f016020809104026020016040519081016040528092919081815260200182805461175990612e31565b80156117a65780601f1061177b576101008083540402835291602001916117a6565b820191906000526020600020905b81548152906001019060200180831161178957829003601f168201915b5050505050908060010180546117bb90612e31565b80601f01602080910402602001604051908101604052809291908181526020018280546117e790612e31565b80156118345780601f1061180957610100808354040283529160200191611834565b820191906000526020600020905b81548152906001019060200180831161181757829003601f168201915b50505050509080600201805461184990612e31565b80601f016020809104026020016040519081016040528092919081815260200182805461187590612e31565b80156118c25780601f10611897576101008083540402835291602001916118c2565b820191906000526020600020905b8154815290600101906020018083116118a557829003601f168201915b5050505050908060030180546118d790612e31565b80601f016020809104026020016040519081016040528092919081815260200182805461190390612e31565b80156119505780601f1061192557610100808354040283529160200191611950565b820191906000526020600020905b81548152906001019060200180831161193357829003601f168201915b50505050509080600401805461196590612e31565b80601f016020809104026020016040519081016040528092919081815260200182805461199190612e31565b80156119de5780601f106119b3576101008083540402835291602001916119de565b820191906000526020600020905b8154815290600101906020018083116119c157829003601f168201915b5050505050908060050180546119f390612e31565b80601f0160208091040260200160405190810160405280929190818152602001828054611a1f90612e31565b8015611a6c5780601f10611a4157610100808354040283529160200191611a6c565b820191906000526020600020905b815481529060010190602001808311611a4f57829003601f168201915b5050505050905086565b611a8e60008051602061353583398151915233611695565b611ae95760405162461bcd60e51b815260206004820152602660248201527f4d7573742068617665204c617779657220726f6c6520746f206372656174652060448201526561206361736560d01b606482015260840161046c565b60006005546001611afa919061331b565b9050600060405180610160016040528083815260200186815260200160006001811115611b2957611b29612d90565b8152602001856001600160a01b0316815260200142815260200160008152602001428152602001336001600160a01b03168152602001848152602001600067ffffffffffffffff811115611b7f57611b7f6128db565b604051908082528060200260200182016040528015611ba8578160200160208202803683370190505b5081526020016000604051908082528060200260200182016040528015611bd9578160200160208202803683370190505b5090526000838152600360209081526040909120825181559082015191925082916001820190611c099082612eba565b50604082015160028201805460ff191660018381811115611c2c57611c2c612d90565b02179055506060820151600282018054610100600160a81b0319166101006001600160a01b039384168102919091179091556080840151600384015560a0840151600484015560c0840151600584015560e08401516006840180546001600160a01b031916919093161790915582015160078201556101208201518051611cbd916008840191602090910190612834565b506101408201518051611cda9160098401916020909101906127df565b50506005805491506000611ced836132d9565b909155505080516040513391907f8be421981ddf495943cb2795a688edb49cec6f69cfd7640ca308a70e894bf7d190611d27908590613397565b60405180910390a35050505050565b6000828152600360209081526040808320848452600490925282209091805b6003830154811015611db557336001600160a01b0316836003018281548110611d8057611d806132ad565b6000918252602090912001546001600160a01b031603611da35760019150611db5565b80611dad816132d9565b915050611d55565b50600283015461010090046001600160a01b0316331480611dd35750805b611e335760405162461bcd60e51b815260206004820152602b60248201527f4d75737420626520636c69656e74206f72206c617779657220746f2064656c6560448201526a1d1948191bd8dd5b595b9d60aa1b606482015260840161046c565b600084815260046020526040812081815590611e52600183018261286f565b611e6060028301600061286f565b611e6e6003830160006128ac565b50600060048201819055600591820180546001600160a01b031990811690915542928601929092556006850180549092163317909155858152600360205260409020835481558390600181810190611ec890840182613096565b50600282810154908201805460ff9092169160ff191660018381811115611ef157611ef1612d90565b021790555060028281015490820180546001600160a01b03610100938490048116909302610100600160a81b031990911617905560038084015490830155600480840154908301556005808401549083015560068084015490830180546001600160a01b031916919092161790556007808301549082015560088083018054611f7d928401919061278f565b5060098281018054611f92928401919061278f565b50905050336001600160a01b03168560008051602061355583398151915285604051611d27919061329a565b611fd660008051602061353583398151915233611695565b80611ff45750611ff460008051602061351583398151915233611695565b6120555760405162461bcd60e51b815260206004820152602c60248201527f4d7573742068617665204c61777965722f4a7564676520726f6c6520746f207560448201526b70646174652061206361736560a01b606482015260840161046c565b60008281526003602052604090206001016120708282612eba565b50600082815260036020526040908190204260058201556006810180546001600160a01b031916339081179091559151849160008051602061355583398151915291610e68919061329a565b6000828152600160205260409020546106d490336124b5565b33600090815260026020908152604091829020825180840190935260048352636e616d6560e01b928201929092528351908401207fdc9eba7c981969c9c04338f8882f81442dc6b17602f52350eb805332e2d6b2a001612140578061213a8382612eba565b5061238c565b604080518082019091526008815267757365726e616d6560c01b6020918201528351908401207f75bbf69d04e80f016d75c26cfec88bc019c470b3f31a5a259c66ecefefc26511016121f15780600101805461219b90612e31565b1590506121e35760405162461bcd60e51b81526020600482015260166024820152752ab9b2b93730b6b29030b63932b0b23c903a30b5b2b760511b604482015260640161046c565b6001810161213a8382612eba565b60408051808201909152600681526530bb30ba30b960d11b6020918201528351908401207f2e07936c27ceee652670167c19bc58bce1b5366d1c15291cff80b22e52099cbd01612249576002810161213a8382612eba565b60408051808201909152600381526262696f60e81b6020918201528351908401207f01068e811df4c9afa69f342f9f2dad8d946875e97db8e4e14a86ac20c02ea70f0161229e576003810161213a8382612eba565b6040805180820190915260088152673637b1b0ba34b7b760c11b6020918201528351908401207fcdbe7ef90276506bcfa268785349f75afe48b60a0e87c303584c079ba6adab36016122f8576004810161213a8382612eba565b604080518082019091526005815264195b585a5b60da1b6020918201528351908401207f5d7be617c6125e077efaef2f4a8778d4ee9acd91230917a8a9ecf784294881cb0161234f576005810161213a8382612eba565b60405162461bcd60e51b8152602060048201526012602482015271496e76616c6964206669656c64206e616d6560701b604482015260640161046c565b336001600160a01b03167ff12465ed0fb713415cff89dd51510fda6b6eba598e2fa46ec320b0219e549a62826040516123c59190613083565b60405180910390a2505050565b600360205260009081526040902080546001820180549192916123f490612e31565b80601f016020809104026020016040519081016040528092919081815260200182805461242090612e31565b801561246d5780601f106124425761010080835404028352916020019161246d565b820191906000526020600020905b81548152906001019060200180831161245057829003601f168201915b50505060028401546003850154600486015460058701546006880154600790980154969760ff8516976001600160a01b03610100909604861697509395509193909291169089565b6000828152602081815260408083206001600160a01b038516845290915290205460ff16610678576124f1816001600160a01b031660146125ec565b6124fc8360206125ec565b60405160200161250d929190613479565b60408051601f198184030181529082905262461bcd60e51b825261046c91600401612be8565b6000828152602081815260408083206001600160a01b0385168085529252808320805460ff1916600117905551339285917f2f8788117e7eff1d82e926ec794901d17c78024a50270940304540a733656f0d9190a45050565b61259682826124b5565b6000828152602081815260408083206001600160a01b0385168085529252808320805460ff1916905551339285917ff6391f5c32d9c69d2a47ea670b442974b53935d1edc7fd64eb21e047a839171b9190a45050565b606060006125fb8360026134e6565b61260690600261331b565b67ffffffffffffffff81111561261e5761261e6128db565b6040519080825280601f01601f191660200182016040528015612648576020820181803683370190505b509050600360fc1b81600081518110612663576126636132ad565b60200101906001600160f81b031916908160001a905350600f60fb1b81600181518110612692576126926132ad565b60200101906001600160f81b031916908160001a90535060006126b68460026134e6565b6126c190600161331b565b90505b6001811115612739576f181899199a1a9b1b9c1cb0b131b232b360811b85600f16601081106126f5576126f56132ad565b1a60f81b82828151811061270b5761270b6132ad565b60200101906001600160f81b031916908160001a90535060049490941c93612732816134fd565b90506126c4565b5083156127885760405162461bcd60e51b815260206004820181905260248201527f537472696e67733a20686578206c656e67746820696e73756666696369656e74604482015260640161046c565b9392505050565b8280548282559060005260206000209081019282156127cf5760005260206000209182015b828111156127cf5782548255916001019190600101906127b4565b506127db9291506128c6565b5090565b8280548282559060005260206000209081019282156127cf579160200282015b828111156127cf57825182546001600160a01b0319166001600160a01b039091161782556020909201916001909101906127ff565b8280548282559060005260206000209081019282156127cf579160200282015b828111156127cf578251825591602001919060010190612854565b50805461287b90612e31565b6000825580601f1061288b575050565b601f0160209004906000526020600020908101906128a991906128c6565b50565b50805460008255906000526020600020908101906128a991905b5b808211156127db57600081556001016128c7565b634e487b7160e01b600052604160045260246000fd5b600082601f83011261290257600080fd5b813567ffffffffffffffff8082111561291d5761291d6128db565b604051601f8301601f19908116603f01168101908282118183101715612945576129456128db565b8160405283815286602085880101111561295e57600080fd5b836020870160208301376000602085830101528094505050505092915050565b60008060008060008060c0878903121561299757600080fd5b863567ffffffffffffffff808211156129af57600080fd5b6129bb8a838b016128f1565b975060208901359150808211156129d157600080fd5b6129dd8a838b016128f1565b965060408901359150808211156129f357600080fd5b6129ff8a838b016128f1565b95506060890135915080821115612a1557600080fd5b612a218a838b016128f1565b94506080890135915080821115612a3757600080fd5b612a438a838b016128f1565b935060a0890135915080821115612a5957600080fd5b50612a6689828a016128f1565b9150509295509295509295565b600060208284031215612a8557600080fd5b5035919050565b80356001600160a01b0381168114612aa357600080fd5b919050565b60008060408385031215612abb57600080fd5b82359150612acb60208401612a8c565b90509250929050565b600080600060608486031215612ae957600080fd5b83359250602084013567ffffffffffffffff80821115612b0857600080fd5b612b14878388016128f1565b93506040860135915080821115612b2a57600080fd5b50612b37868287016128f1565b9150509250925092565b60008060408385031215612b5457600080fd5b50508035926020909101359150565b600080600060608486031215612b7857600080fd5b8335925060208401359150612b8f60408501612a8c565b90509250925092565b60005b83811015612bb3578181015183820152602001612b9b565b50506000910152565b60008151808452612bd4816020860160208601612b98565b601f01601f19169290920160200192915050565b6020815260006127886020830184612bbc565b600060208284031215612c0d57600080fd5b61278882612a8c565b60c081526000612c2960c0830189612bbc565b8281036020840152612c3b8189612bbc565b90508281036040840152612c4f8188612bbc565b90508281036060840152612c638187612bbc565b90508281036080840152612c778186612bbc565b905082810360a0840152612c8b8185612bbc565b9998505050505050505050565b600080600060608486031215612cad57600080fd5b833567ffffffffffffffff811115612cc457600080fd5b612cd0868287016128f1565b935050612cdf60208501612a8c565b9150604084013590509250925092565b60008060408385031215612d0257600080fd5b82359150602083013567ffffffffffffffff811115612d2057600080fd5b612d2c858286016128f1565b9150509250929050565b60008060408385031215612d4957600080fd5b823567ffffffffffffffff80821115612d6157600080fd5b612d6d868387016128f1565b93506020850135915080821115612d8357600080fd5b50612d2c858286016128f1565b634e487b7160e01b600052602160045260246000fd5b60028110612dc457634e487b7160e01b600052602160045260246000fd5b9052565b60006101208b8352806020840152612de28184018c612bbc565b915050612df2604083018a612da6565b6001600160a01b039788166060830152608082019690965260a081019490945260c084019290925290931660e082015261010001919091529392505050565b600181811c90821680612e4557607f821691505b602082108103612e6557634e487b7160e01b600052602260045260246000fd5b50919050565b601f821115612eb557600081815260208120601f850160051c81016020861015612e925750805b601f850160051c820191505b81811015612eb157828155600101612e9e565b5050505b505050565b815167ffffffffffffffff811115612ed457612ed46128db565b612ee881612ee28454612e31565b84612e6b565b602080601f831160018114612f1d5760008415612f055750858301515b600019600386901b1c1916600185901b178555612eb1565b600085815260208120601f198616915b82811015612f4c57888601518255948401946001909101908401612f2d565b5085821015612f6a5787850151600019600388901b60f8161c191681555b5050505050600190811b01905550565b60008154612f8781612e31565b808552602060018381168015612fa45760018114612fbe57612fec565b60ff1985168884015283151560051b880183019550612fec565b866000528260002060005b85811015612fe45781548a8201860152908301908401612fc9565b890184019650505b505050505092915050565b60c08252600061300a60c0840183612f7a565b838103602085015261301f8160018501612f7a565b905083810360408501526130368160028501612f7a565b9050838103606085015261304d8160038501612f7a565b905083810360808501526130648160048501612f7a565b905083810360a085015261307b8160058501612f7a565b949350505050565b6020815260006127886020830184612ff7565b8181036130a1575050565b6130ab8254612e31565b67ffffffffffffffff8111156130c3576130c36128db565b6130d181612ee28454612e31565b6000601f82116001811461310557600083156130ed5750848201545b600019600385901b1c1916600184901b17845561316a565b600085815260209020601f19841690600086815260209020845b8381101561313f578286015482556001958601959091019060200161311f565b508583101561315d5781850154600019600388901b60f8161c191681555b50505060018360011b0184555b5050505050565b6000815480845260208085019450836000528060002060005b838110156131a65781548752958201956001918201910161318a565b509495945050505050565b6000815480845260208085019450836000528060002060005b838110156131a65781546001600160a01b0316875295820195600191820191016131ca565b60006101608254845280602085015261320d81850160018501612f7a565b905060028301546132246040860160ff8316612da6565b6001600160a01b03600891821c8116606087015260038501546080870152600485015460a0870152600585015460c087015260068501541660e086015260078401546101008601528482036101208601526132829082908501613171565b905083810361014085015261307b81600985016131b1565b60208152600061278860208301846131ef565b634e487b7160e01b600052603260045260246000fd5b634e487b7160e01b600052601160045260246000fd5b6000600182016132eb576132eb6132c3565b5060010190565b818103818111156116ba576116ba6132c3565b634e487b7160e01b600052603160045260246000fd5b808201808211156116ba576116ba6132c3565b600081518084526020808501945080840160005b838110156131a657815187529582019590820190600101613342565b600081518084526020808501945080840160005b838110156131a65781516001600160a01b031687529582019590820190600101613372565b6020815281516020820152600060208301516101608060408501526133c0610180850183612bbc565b915060408501516133d46060860182612da6565b5060608501516001600160a01b038116608086015250608085015160a085015260a085015160c085015260c085015160e085015260e0850151610100613424818701836001600160a01b03169052565b80870151915050610120818187015280870151915050601f19610140818786030181880152613453858461332e565b90880151878203909201848801529350905061346f838261335e565b9695505050505050565b7402832b936b4b9b9b4b7b7399d1030b1b1b7bab73a1605d1b8152600083516134a9816015850160208801612b98565b7001034b99036b4b9b9b4b733903937b6329607d1b60159184019182015283516134da816026840160208801612b98565b01602601949350505050565b80820281158282048414176116ba576116ba6132c3565b60008161350c5761350c6132c3565b50600019019056febf8b635bcfcd8642c9b343eafd77cdb76547a8c3ff41e4316e9996047ad954b8314036e221c52b2e9bffe531890cefb6b09cd8682ad89fc9f25d863bad9622a69b6a6e8fb680032b5e363d78ba0b4ce647f5623d5d6868b57803dcc3cb75eb31a26469706673582212204372d009a882e8dccc02e3bf526dee6c4d60b1eb21cc5b824bcd8d5c476ff6da64736f6c63430008130033",
  "linkReferences": {},
  "deployedLinkReferences": {}
}