{
  "_format": "hh-sol-artifact-1",
  "contractName": "RecordWarden",
  "sourceName": "contracts/RecordWarden.sol",
  "abi": [
    {
      "inputs": [],
      "stateMutability": "nonpayable",
      "type": "constructor"
    },
    {
      "anonymous": false,
      "inputs": [
        {
          "indexed": true,
          "internalType": "uint256",
          "name": "id",
          "type": "uint256"
        },
        {
          "indexed": true,
          "internalType": "address",
          "name": "lawyer",
          "type": "address"
        },
        {
          "components": [
            {
              "internalType": "uint256",
              "name": "id",
              "type": "uint256"
            },
            {
              "internalType": "string",
              "name": "description",
              "type": "string"
            },
            {
              "internalType": "enum CaseStatus",
              "name": "status",
              "type": "uint8"
            },
            {
              "internalType": "address",
              "name": "client",
              "type": "address"
            },
            {
              "internalType": "uint256",
              "name": "createdAt",
              "type": "uint256"
            },
            {
              "internalType": "uint256",
              "name": "closedAt",
              "type": "uint256"
            },
            {
              "internalType": "uint256",
              "name": "updatedAt",
              "type": "uint256"
            },
            {
              "internalType": "uint256[]",
              "name": "documents",
              "type": "uint256[]"
            },
            {
              "internalType": "address[]",
              "name": "lawyers",
              "type": "address[]"
            }
          ],
          "indexed": false,
          "internalType": "struct Case",
          "name": "c",
          "type": "tuple"
        }
      ],
      "name": "CaseClosed",
      "type": "event"
    },
    {
      "anonymous": false,
      "inputs": [
        {
          "indexed": true,
          "internalType": "uint256",
          "name": "id",
          "type": "uint256"
        },
        {
          "indexed": true,
          "internalType": "address",
          "name": "lawyer",
          "type": "address"
        },
        {
          "components": [
            {
              "internalType": "uint256",
              "name": "id",
              "type": "uint256"
            },
            {
              "internalType": "string",
              "name": "description",
              "type": "string"
            },
            {
              "internalType": "enum CaseStatus",
              "name": "status",
              "type": "uint8"
            },
            {
              "internalType": "address",
              "name": "client",
              "type": "address"
            },
            {
              "internalType": "uint256",
              "name": "createdAt",
              "type": "uint256"
            },
            {
              "internalType": "uint256",
              "name": "closedAt",
              "type": "uint256"
            },
            {
              "internalType": "uint256",
              "name": "updatedAt",
              "type": "uint256"
            },
            {
              "internalType": "uint256[]",
              "name": "documents",
              "type": "uint256[]"
            },
            {
              "internalType": "address[]",
              "name": "lawyers",
              "type": "address[]"
            }
          ],
          "indexed": false,
          "internalType": "struct Case",
          "name": "c",
          "type": "tuple"
        }
      ],
      "name": "CaseCreated",
      "type": "event"
    },
    {
      "anonymous": false,
      "inputs": [
        {
          "indexed": true,
          "internalType": "uint256",
          "name": "id",
          "type": "uint256"
        },
        {
          "indexed": true,
          "internalType": "address",
          "name": "lawyer",
          "type": "address"
        },
        {
          "components": [
            {
              "internalType": "uint256",
              "name": "id",
              "type": "uint256"
            },
            {
              "internalType": "string",
              "name": "description",
              "type": "string"
            },
            {
              "internalType": "enum CaseStatus",
              "name": "status",
              "type": "uint8"
            },
            {
              "internalType": "address",
              "name": "client",
              "type": "address"
            },
            {
              "internalType": "uint256",
              "name": "createdAt",
              "type": "uint256"
            },
            {
              "internalType": "uint256",
              "name": "closedAt",
              "type": "uint256"
            },
            {
              "internalType": "uint256",
              "name": "updatedAt",
              "type": "uint256"
            },
            {
              "internalType": "uint256[]",
              "name": "documents",
              "type": "uint256[]"
            },
            {
              "internalType": "address[]",
              "name": "lawyers",
              "type": "address[]"
            }
          ],
          "indexed": false,
          "internalType": "struct Case",
          "name": "c",
          "type": "tuple"
        }
      ],
      "name": "CaseUpdated",
      "type": "event"
    },
    {
      "anonymous": false,
      "inputs": [
        {
          "indexed": true,
          "internalType": "bytes32",
          "name": "role",
          "type": "bytes32"
        },
        {
          "indexed": true,
          "internalType": "bytes32",
          "name": "previousAdminRole",
          "type": "bytes32"
        },
        {
          "indexed": true,
          "internalType": "bytes32",
          "name": "newAdminRole",
          "type": "bytes32"
        }
      ],
      "name": "RoleAdminChanged",
      "type": "event"
    },
    {
      "anonymous": false,
      "inputs": [
        {
          "indexed": true,
          "internalType": "bytes32",
          "name": "role",
          "type": "bytes32"
        },
        {
          "indexed": true,
          "internalType": "address",
          "name": "account",
          "type": "address"
        },
        {
          "indexed": true,
          "internalType": "address",
          "name": "sender",
          "type": "address"
        }
      ],
      "name": "RoleGranted",
      "type": "event"
    },
    {
      "anonymous": false,
      "inputs": [
        {
          "indexed": true,
          "internalType": "bytes32",
          "name": "role",
          "type": "bytes32"
        },
        {
          "indexed": true,
          "internalType": "address",
          "name": "account",
          "type": "address"
        },
        {
          "indexed": true,
          "internalType": "address",
          "name": "sender",
          "type": "address"
        }
      ],
      "name": "RoleRevoked",
      "type": "event"
    },
    {
      "anonymous": false,
      "inputs": [
        {
          "indexed": true,
          "internalType": "address",
          "name": "user",
          "type": "address"
        },
        {
          "components": [
            {
              "internalType": "string",
              "name": "name",
              "type": "string"
            },
            {
              "internalType": "string",
              "name": "username",
              "type": "string"
            },
            {
              "internalType": "string",
              "name": "avatar",
              "type": "string"
            },
            {
              "internalType": "string",
              "name": "bio",
              "type": "string"
            },
            {
              "internalType": "string",
              "name": "location",
              "type": "string"
            },
            {
              "internalType": "string",
              "name": "email",
              "type": "string"
            }
          ],
          "indexed": false,
          "internalType": "struct User",
          "name": "u",
          "type": "tuple"
        }
      ],
      "name": "UserCreated",
      "type": "event"
    },
    {
      "anonymous": false,
      "inputs": [
        {
          "indexed": true,
          "internalType": "address",
          "name": "user",
          "type": "address"
        },
        {
          "components": [
            {
              "internalType": "string",
              "name": "name",
              "type": "string"
            },
            {
              "internalType": "string",
              "name": "username",
              "type": "string"
            },
            {
              "internalType": "string",
              "name": "avatar",
              "type": "string"
            },
            {
              "internalType": "string",
              "name": "bio",
              "type": "string"
            },
            {
              "internalType": "string",
              "name": "location",
              "type": "string"
            },
            {
              "internalType": "string",
              "name": "email",
              "type": "string"
            }
          ],
          "indexed": false,
          "internalType": "struct User",
          "name": "u",
          "type": "tuple"
        }
      ],
      "name": "UserUpdated",
      "type": "event"
    },
    {
      "inputs": [],
      "name": "DEFAULT_ADMIN_ROLE",
      "outputs": [
        {
          "internalType": "bytes32",
          "name": "",
          "type": "bytes32"
        }
      ],
      "stateMutability": "view",
      "type": "function"
    },
    {
      "inputs": [],
      "name": "DetectiveRole",
      "outputs": [
        {
          "internalType": "bytes32",
          "name": "",
          "type": "bytes32"
        }
      ],
      "stateMutability": "view",
      "type": "function"
    },
    {
      "inputs": [],
      "name": "JudgeRole",
      "outputs": [
        {
          "internalType": "bytes32",
          "name": "",
          "type": "bytes32"
        }
      ],
      "stateMutability": "view",
      "type": "function"
    },
    {
      "inputs": [],
      "name": "LawyerRole",
      "outputs": [
        {
          "internalType": "bytes32",
          "name": "",
          "type": "bytes32"
        }
      ],
      "stateMutability": "view",
      "type": "function"
    },
    {
      "inputs": [
        {
          "internalType": "uint256",
          "name": "id",
          "type": "uint256"
        },
        {
          "internalType": "string",
          "name": "name",
          "type": "string"
        },
        {
          "internalType": "string",
          "name": "cid",
          "type": "string"
        }
      ],
      "name": "addCaseDocument",
      "outputs": [],
      "stateMutability": "nonpayable",
      "type": "function"
    },
    {
      "inputs": [
        {
          "internalType": "uint256",
          "name": "id",
          "type": "uint256"
        },
        {
          "internalType": "address",
          "name": "lawyer",
          "type": "address"
        }
      ],
      "name": "addCaseLawyer",
      "outputs": [],
      "stateMutability": "nonpayable",
      "type": "function"
    },
    {
      "inputs": [
        {
          "internalType": "address",
          "name": "detective",
          "type": "address"
        }
      ],
      "name": "addDetective",
      "outputs": [],
      "stateMutability": "nonpayable",
      "type": "function"
    },
    {
      "inputs": [
        {
          "internalType": "uint256",
          "name": "id",
          "type": "uint256"
        },
        {
          "internalType": "uint256",
          "name": "docId",
          "type": "uint256"
        },
        {
          "internalType": "address",
          "name": "user",
          "type": "address"
        }
      ],
      "name": "addDocumentAuthorized",
      "outputs": [],
      "stateMutability": "nonpayable",
      "type": "function"
    },
    {
      "inputs": [
        {
          "internalType": "address",
          "name": "judge",
          "type": "address"
        }
      ],
      "name": "addJudge",
      "outputs": [],
      "stateMutability": "nonpayable",
      "type": "function"
    },
    {
      "inputs": [
        {
          "internalType": "address",
          "name": "lawyer",
          "type": "address"
        }
      ],
      "name": "addLawyer",
      "outputs": [],
      "stateMutability": "nonpayable",
      "type": "function"
    },
    {
      "inputs": [],
      "name": "caseCount",
      "outputs": [
        {
          "internalType": "uint256",
          "name": "",
          "type": "uint256"
        }
      ],
      "stateMutability": "view",
      "type": "function"
    },
    {
      "inputs": [
        {
          "internalType": "uint256",
          "name": "",
          "type": "uint256"
        }
      ],
      "name": "cases",
      "outputs": [
        {
          "internalType": "uint256",
          "name": "id",
          "type": "uint256"
        },
        {
          "internalType": "string",
          "name": "description",
          "type": "string"
        },
        {
          "internalType": "enum CaseStatus",
          "name": "status",
          "type": "uint8"
        },
        {
          "internalType": "address",
          "name": "client",
          "type": "address"
        },
        {
          "internalType": "uint256",
          "name": "createdAt",
          "type": "uint256"
        },
        {
          "internalType": "uint256",
          "name": "closedAt",
          "type": "uint256"
        },
        {
          "internalType": "uint256",
          "name": "updatedAt",
          "type": "uint256"
        }
      ],
      "stateMutability": "view",
      "type": "function"
    },
    {
      "inputs": [
        {
          "internalType": "uint256",
          "name": "id",
          "type": "uint256"
        }
      ],
      "name": "closeCase",
      "outputs": [],
      "stateMutability": "nonpayable",
      "type": "function"
    },
    {
      "inputs": [
        {
          "internalType": "string",
          "name": "description",
          "type": "string"
        },
        {
          "internalType": "address",
          "name": "client",
          "type": "address"
        }
      ],
      "name": "createCase",
      "outputs": [],
      "stateMutability": "nonpayable",
      "type": "function"
    },
    {
      "inputs": [
        {
          "internalType": "string",
          "name": "name",
          "type": "string"
        },
        {
          "internalType": "string",
          "name": "username",
          "type": "string"
        },
        {
          "internalType": "string",
          "name": "avatar",
          "type": "string"
        },
        {
          "internalType": "string",
          "name": "bio",
          "type": "string"
        },
        {
          "internalType": "string",
          "name": "location",
          "type": "string"
        },
        {
          "internalType": "string",
          "name": "email",
          "type": "string"
        }
      ],
      "name": "createUser",
      "outputs": [],
      "stateMutability": "nonpayable",
      "type": "function"
    },
    {
      "inputs": [
        {
          "internalType": "uint256",
          "name": "id",
          "type": "uint256"
        },
        {
          "internalType": "uint256",
          "name": "docId",
          "type": "uint256"
        }
      ],
      "name": "deleteCaseDocument",
      "outputs": [],
      "stateMutability": "nonpayable",
      "type": "function"
    },
    {
      "inputs": [
        {
          "internalType": "uint256",
          "name": "id",
          "type": "uint256"
        },
        {
          "internalType": "address",
          "name": "lawyer",
          "type": "address"
        }
      ],
      "name": "deleteCaseLawyer",
      "outputs": [],
      "stateMutability": "nonpayable",
      "type": "function"
    },
    {
      "inputs": [
        {
          "internalType": "address",
          "name": "detective",
          "type": "address"
        }
      ],
      "name": "deleteDetective",
      "outputs": [],
      "stateMutability": "nonpayable",
      "type": "function"
    },
    {
      "inputs": [
        {
          "internalType": "uint256",
          "name": "id",
          "type": "uint256"
        },
        {
          "internalType": "uint256",
          "name": "docId",
          "type": "uint256"
        },
        {
          "internalType": "address",
          "name": "user",
          "type": "address"
        }
      ],
      "name": "deleteDocumentAuthorized",
      "outputs": [],
      "stateMutability": "nonpayable",
      "type": "function"
    },
    {
      "inputs": [
        {
          "internalType": "address",
          "name": "judge",
          "type": "address"
        }
      ],
      "name": "deleteJudge",
      "outputs": [],
      "stateMutability": "nonpayable",
      "type": "function"
    },
    {
      "inputs": [
        {
          "internalType": "address",
          "name": "lawyer",
          "type": "address"
        }
      ],
      "name": "deleteLawyer",
      "outputs": [],
      "stateMutability": "nonpayable",
      "type": "function"
    },
    {
      "inputs": [],
      "name": "documentCount",
      "outputs": [
        {
          "internalType": "uint256",
          "name": "",
          "type": "uint256"
        }
      ],
      "stateMutability": "view",
      "type": "function"
    },
    {
      "inputs": [
        {
          "internalType": "uint256",
          "name": "id",
          "type": "uint256"
        }
      ],
      "name": "getDocumentCID",
      "outputs": [
        {
          "internalType": "string",
          "name": "",
          "type": "string"
        }
      ],
      "stateMutability": "view",
      "type": "function"
    },
    {
      "inputs": [
        {
          "internalType": "bytes32",
          "name": "role",
          "type": "bytes32"
        }
      ],
      "name": "getRoleAdmin",
      "outputs": [
        {
          "internalType": "bytes32",
          "name": "",
          "type": "bytes32"
        }
      ],
      "stateMutability": "view",
      "type": "function"
    },
    {
      "inputs": [
        {
          "internalType": "bytes32",
          "name": "role",
          "type": "bytes32"
        },
        {
          "internalType": "address",
          "name": "account",
          "type": "address"
        }
      ],
      "name": "grantRole",
      "outputs": [],
      "stateMutability": "nonpayable",
      "type": "function"
    },
    {
      "inputs": [
        {
          "internalType": "bytes32",
          "name": "role",
          "type": "bytes32"
        },
        {
          "internalType": "address",
          "name": "account",
          "type": "address"
        }
      ],
      "name": "hasRole",
      "outputs": [
        {
          "internalType": "bool",
          "name": "",
          "type": "bool"
        }
      ],
      "stateMutability": "view",
      "type": "function"
    },
    {
      "inputs": [
        {
          "internalType": "bytes32",
          "name": "role",
          "type": "bytes32"
        },
        {
          "internalType": "address",
          "name": "account",
          "type": "address"
        }
      ],
      "name": "hasRoleWithSwitch",
      "outputs": [
        {
          "internalType": "bool",
          "name": "",
          "type": "bool"
        }
      ],
      "stateMutability": "view",
      "type": "function"
    },
    {
      "inputs": [
        {
          "internalType": "bytes32",
          "name": "role",
          "type": "bytes32"
        },
        {
          "internalType": "address",
          "name": "account",
          "type": "address"
        }
      ],
      "name": "renounceRole",
      "outputs": [],
      "stateMutability": "nonpayable",
      "type": "function"
    },
    {
      "inputs": [
        {
          "internalType": "bytes32",
          "name": "role",
          "type": "bytes32"
        },
        {
          "internalType": "address",
          "name": "account",
          "type": "address"
        }
      ],
      "name": "revokeRole",
      "outputs": [],
      "stateMutability": "nonpayable",
      "type": "function"
    },
    {
      "inputs": [
        {
          "internalType": "uint256",
          "name": "id",
          "type": "uint256"
        },
        {
          "internalType": "string",
          "name": "description",
          "type": "string"
        }
      ],
      "name": "updateCaseDescription",
      "outputs": [],
      "stateMutability": "nonpayable",
      "type": "function"
    },
    {
      "inputs": [
        {
          "internalType": "string",
          "name": "avatar",
          "type": "string"
        }
      ],
      "name": "updateUserAvatar",
      "outputs": [],
      "stateMutability": "nonpayable",
      "type": "function"
    },
    {
      "inputs": [
        {
          "internalType": "string",
          "name": "bio",
          "type": "string"
        }
      ],
      "name": "updateUserBio",
      "outputs": [],
      "stateMutability": "nonpayable",
      "type": "function"
    },
    {
      "inputs": [
        {
          "internalType": "string",
          "name": "email",
          "type": "string"
        }
      ],
      "name": "updateUserEmail",
      "outputs": [],
      "stateMutability": "nonpayable",
      "type": "function"
    },
    {
      "inputs": [
        {
          "internalType": "string",
          "name": "location",
          "type": "string"
        }
      ],
      "name": "updateUserLocation",
      "outputs": [],
      "stateMutability": "nonpayable",
      "type": "function"
    },
    {
      "inputs": [
        {
          "internalType": "string",
          "name": "name",
          "type": "string"
        }
      ],
      "name": "updateUserName",
      "outputs": [],
      "stateMutability": "nonpayable",
      "type": "function"
    },
    {
      "inputs": [
        {
          "internalType": "string",
          "name": "username",
          "type": "string"
        }
      ],
      "name": "updateUserUsername",
      "outputs": [],
      "stateMutability": "nonpayable",
      "type": "function"
    },
    {
      "inputs": [
        {
          "internalType": "address",
          "name": "",
          "type": "address"
        }
      ],
      "name": "users",
      "outputs": [
        {
          "internalType": "string",
          "name": "name",
          "type": "string"
        },
        {
          "internalType": "string",
          "name": "username",
          "type": "string"
        },
        {
          "internalType": "string",
          "name": "avatar",
          "type": "string"
        },
        {
          "internalType": "string",
          "name": "bio",
          "type": "string"
        },
        {
          "internalType": "string",
          "name": "location",
          "type": "string"
        },
        {
          "internalType": "string",
          "name": "email",
          "type": "string"
        }
      ],
      "stateMutability": "view",
      "type": "function"
    }
  ],
  "bytecode": "0x60806040523480156200001157600080fd5b50620000276000801b336200002d60201b60201c565b620000f4565b600160008084815260200190815260200160002060008373ffffffffffffffffffffffffffffffffffffffff1673ffffffffffffffffffffffffffffffffffffffff16815260200190815260200160002060006101000a81548160ff0219169083151502179055503373ffffffffffffffffffffffffffffffffffffffff168173ffffffffffffffffffffffffffffffffffffffff16837f2f8788117e7eff1d82e926ec794901d17c78024a50270940304540a733656f0d60405160405180910390a45050565b6159c780620001046000396000f3fe608060405234801561001057600080fd5b50600436106102275760003560e01c80639079b5c511610130578063aa05af4a116100b8578063bf97c2bd1161007c578063bf97c2bd1461061b578063d547741f14610639578063da2d7e9514610655578063e8db61bb14610673578063f09790dd1461069157610227565b8063aa05af4a1461058f578063af9036a1146105ab578063b5712f1f146105c7578063b6306af4146105e3578063be2bb350146105ff57610227565b8063a217fddf116100ff578063a217fddf146104d2578063a28a4548146104f0578063a32fa5b31461050c578063a5b16b2e1461053c578063a87430ba1461055a57610227565b80639079b5c51461044c57806391d1485414610468578063927cab47146104985780639c0574f3146104b457610227565b80633ffad912116101b35780635a724ef0116101825780635a724ef0146103ac5780635fe73215146103c857806369e354a7146103e4578063735d9fbb146104145780638d97d5061461043057610227565b80633ffad9121461033c57806344fa961d146103585780634522e43114610374578063470d3b4c1461039057610227565b80632e5ff4da116101fa5780632e5ff4da146102b05780632f2ff15d146102cc57806336568abe146102e857806337683eb814610304578063386f8fe71461032057610227565b806301dadb2b1461022c578063064e0e58146102485780630fc3c8b214610264578063248a9ca314610280575b600080fd5b61024660048036038101906102419190613807565b6106c7565b005b610262600480360381019061025d919061393c565b610970565b005b61027e600480360381019061027991906139e3565b610a4f565b005b61029a60048036038101906102959190613a46565b610ac8565b6040516102a79190613a82565b60405180910390f35b6102ca60048036038101906102c5919061393c565b610ae5565b005b6102e660048036038101906102e19190613a9d565b610bc4565b005b61030260048036038101906102fd9190613a9d565b610c8c565b005b61031e60048036038101906103199190613b13565b610d08565b005b61033a60048036038101906103359190613b53565b610e6a565b005b61035660048036038101906103519190613bde565b6111ab565b005b610372600480360381019061036d91906139e3565b61138d565b005b61038e60048036038101906103899190613c0b565b611406565b005b6103aa60048036038101906103a5919061393c565b61175b565b005b6103c660048036038101906103c191906139e3565b61183a565b005b6103e260048036038101906103dd919061393c565b6118b3565b005b6103fe60048036038101906103f99190613bde565b611992565b60405161040b9190613cdd565b60405180910390f35b61042e60048036038101906104299190613b13565b611be0565b005b61044a60048036038101906104459190613c0b565b611e76565b005b610466600480360381019061046191906139e3565b61203d565b005b610482600480360381019061047d9190613a9d565b6120b6565b60405161048f9190613d1a565b60405180910390f35b6104b260048036038101906104ad91906139e3565b61211d565b005b6104bc612196565b6040516104c99190613a82565b60405180910390f35b6104da6121ba565b6040516104e79190613a82565b60405180910390f35b61050a6004803603810190610505919061393c565b6121c1565b005b61052660048036038101906105219190613a9d565b612331565b6040516105339190613d1a565b60405180910390f35b610544612403565b6040516105519190613d44565b60405180910390f35b610574600480360381019061056f91906139e3565b612409565b60405161058696959493929190613d5f565b60405180910390f35b6105a960048036038101906105a49190613dea565b612775565b005b6105c560048036038101906105c0919061393c565b612a59565b005b6105e160048036038101906105dc9190613e46565b612b38565b005b6105fd60048036038101906105f891906139e3565b612d76565b005b61061960048036038101906106149190613e86565b612def565b005b610623612f2d565b6040516106309190613a82565b60405180910390f35b610653600480360381019061064e9190613a9d565b612f51565b005b61065d612f7c565b60405161066a9190613d44565b60405180910390f35b61067b612f82565b6040516106889190613a82565b60405180910390f35b6106ab60048036038101906106a69190613bde565b612fa6565b6040516106be9796959493929190613f68565b60405180910390f35b6000600260003373ffffffffffffffffffffffffffffffffffffffff1673ffffffffffffffffffffffffffffffffffffffff16815260200190815260200160002060010180546107169061400d565b905014610758576040517f08c379a000000000000000000000000000000000000000000000000000000000815260040161074f9061408a565b60405180910390fd5b6000600260003373ffffffffffffffffffffffffffffffffffffffff1673ffffffffffffffffffffffffffffffffffffffff16815260200190815260200160002060010180546107a79061400d565b9050146107e9576040517f08c379a00000000000000000000000000000000000000000000000000000000081526004016107e0906140f6565b60405180910390fd5b6040518060c0016040528087815260200186815260200185815260200184815260200183815260200182815250600260003373ffffffffffffffffffffffffffffffffffffffff1673ffffffffffffffffffffffffffffffffffffffff168152602001908152602001600020600082015181600001908161086a91906142c2565b50602082015181600101908161088091906142c2565b50604082015181600201908161089691906142c2565b5060608201518160030190816108ac91906142c2565b5060808201518160040190816108c291906142c2565b5060a08201518160050190816108d891906142c2565b509050503373ffffffffffffffffffffffffffffffffffffffff167f9cc4cf5bb33683f960046cee1f7588a07d47fdd2d774b48920524a15b2069f54600260003373ffffffffffffffffffffffffffffffffffffffff1673ffffffffffffffffffffffffffffffffffffffff16815260200190815260200160002060405161096091906144d1565b60405180910390a2505050505050565b80600260003373ffffffffffffffffffffffffffffffffffffffff1673ffffffffffffffffffffffffffffffffffffffff16815260200190815260200160002060030190816109bf91906142c2565b503373ffffffffffffffffffffffffffffffffffffffff167ff12465ed0fb713415cff89dd51510fda6b6eba598e2fa46ec320b0219e549a62600260003373ffffffffffffffffffffffffffffffffffffffff1673ffffffffffffffffffffffffffffffffffffffff168152602001908152602001600020604051610a4491906144d1565b60405180910390a250565b610a5c6000801b336120b6565b610a9b576040517f08c379a0000000000000000000000000000000000000000000000000000000008152600401610a9290614565565b60405180910390fd5b610ac57f3420d2a02f28e92b971806872c4fa85469cb08e4ff28a33001ea8f96d6f4025a82612f51565b50565b600060016000838152602001908152602001600020549050919050565b80600260003373ffffffffffffffffffffffffffffffffffffffff1673ffffffffffffffffffffffffffffffffffffffff1681526020019081526020016000206002019081610b3491906142c2565b503373ffffffffffffffffffffffffffffffffffffffff167ff12465ed0fb713415cff89dd51510fda6b6eba598e2fa46ec320b0219e549a62600260003373ffffffffffffffffffffffffffffffffffffffff1673ffffffffffffffffffffffffffffffffffffffff168152602001908152602001600020604051610bb991906144d1565b60405180910390a250565b610be160016000848152602001908152602001600020543361309d565b60008083815260200190815260200160002060008273ffffffffffffffffffffffffffffffffffffffff1673ffffffffffffffffffffffffffffffffffffffff16815260200190815260200160002060009054906101000a900460ff1615610c7e576040517f08c379a0000000000000000000000000000000000000000000000000000000008152600401610c75906145d1565b60405180910390fd5b610c88828261318d565b5050565b8073ffffffffffffffffffffffffffffffffffffffff163373ffffffffffffffffffffffffffffffffffffffff1614610cfa576040517f08c379a0000000000000000000000000000000000000000000000000000000008152600401610cf19061463d565b60405180910390fd5b610d048282613254565b5050565b60006003600084815260200190815260200160002090503373ffffffffffffffffffffffffffffffffffffffff168160020160019054906101000a900473ffffffffffffffffffffffffffffffffffffffff1673ffffffffffffffffffffffffffffffffffffffff1614610db1576040517f08c379a0000000000000000000000000000000000000000000000000000000008152600401610da8906146cf565b60405180910390fd5b80600701829080600181540180825580915050600190039060005260206000200160009091909190916101000a81548173ffffffffffffffffffffffffffffffffffffffff021916908373ffffffffffffffffffffffffffffffffffffffff1602179055503373ffffffffffffffffffffffffffffffffffffffff16837f7ab4deebe626f6dd0708f3cbbc92d178d591d0e1d85e2f8cdabd28340929551083604051610e5d9190614a7d565b60405180910390a3505050565b60006003600085815260200190815260200160002090506000805b8260070180549050811015610f23573373ffffffffffffffffffffffffffffffffffffffff16836007018281548110610ec157610ec0614a9f565b5b9060005260206000200160009054906101000a900473ffffffffffffffffffffffffffffffffffffffff1673ffffffffffffffffffffffffffffffffffffffff1603610f105760019150610f23565b8080610f1b90614afd565b915050610e85565b503373ffffffffffffffffffffffffffffffffffffffff168260020160019054906101000a900473ffffffffffffffffffffffffffffffffffffffff1673ffffffffffffffffffffffffffffffffffffffff161480610f7f5750805b610fbe576040517f08c379a0000000000000000000000000000000000000000000000000000000008152600401610fb590614bb7565b60405180910390fd5b60006040518060c001604052806006548152602001868152602001858152602001600067ffffffffffffffff811115610ffa57610ff96136dc565b5b6040519080825280602002602001820160405280156110285781602001602082028036833780820191505090505b5081526020014281526020013373ffffffffffffffffffffffffffffffffffffffff1681525090508060046000600654815260200190815260200160002060008201518160000155602082015181600101908161108591906142c2565b50604082015181600201908161109b91906142c2565b5060608201518160030190805190602001906110b8929190613558565b506080820151816004015560a08201518160050160006101000a81548173ffffffffffffffffffffffffffffffffffffffff021916908373ffffffffffffffffffffffffffffffffffffffff1602179055509050506006600081548092919061112090614afd565b919050555082600601816000015190806001815401808255809150506001900390600052602060002001600090919091909150553373ffffffffffffffffffffffffffffffffffffffff16867f7ab4deebe626f6dd0708f3cbbc92d178d591d0e1d85e2f8cdabd2834092955108560405161119b9190614a7d565b60405180910390a3505050505050565b6111d57f314036e221c52b2e9bffe531890cefb6b09cd8682ad89fc9f25d863bad9622a6336120b6565b8061120657506112057fbf8b635bcfcd8642c9b343eafd77cdb76547a8c3ff41e4316e9996047ad954b8336120b6565b5b611245576040517f08c379a000000000000000000000000000000000000000000000000000000000815260040161123c90614c49565b60405180910390fd5b6000600181111561125957611258613ee2565b5b6003600083815260200190815260200160002060020160009054906101000a900460ff16600181111561128f5761128e613ee2565b5b146112cf576040517f08c379a00000000000000000000000000000000000000000000000000000000081526004016112c690614cb5565b60405180910390fd5b60016003600083815260200190815260200160002060020160006101000a81548160ff0219169083600181111561130957611308613ee2565b5b02179055504260036000838152602001908152602001600020600401819055503373ffffffffffffffffffffffffffffffffffffffff16817f383cf0b3fff0f52377fb114f691cb2418a65d0a906c2bc8ec908ed91b41aff2f600360008581526020019081526020016000206040516113829190614de1565b60405180910390a350565b61139a6000801b336120b6565b6113d9576040517f08c379a00000000000000000000000000000000000000000000000000000000081526004016113d090614e75565b60405180910390fd5b6114037f314036e221c52b2e9bffe531890cefb6b09cd8682ad89fc9f25d863bad9622a682612f51565b50565b60006003600085815260200190815260200160002090503373ffffffffffffffffffffffffffffffffffffffff168160020160019054906101000a900473ffffffffffffffffffffffffffffffffffffffff1673ffffffffffffffffffffffffffffffffffffffff16146114af576040517f08c379a00000000000000000000000000000000000000000000000000000000081526004016114a690614f07565b60405180910390fd5b60005b816006018054905081101561170557838260060182815481106114d8576114d7614a9f565b5b9060005260206000200154036116f25760005b60046000868152602001908152602001600020600301805490508110156116ec578373ffffffffffffffffffffffffffffffffffffffff1660046000878152602001908152602001600020600301828154811061154b5761154a614a9f565b5b9060005260206000200160009054906101000a900473ffffffffffffffffffffffffffffffffffffffff1673ffffffffffffffffffffffffffffffffffffffff16036116d95760046000868152602001908152602001600020600301600160046000888152602001908152602001600020600301805490506115cd9190614f27565b815481106115de576115dd614a9f565b5b9060005260206000200160009054906101000a900473ffffffffffffffffffffffffffffffffffffffff1660046000878152602001908152602001600020600301828154811061163157611630614a9f565b5b9060005260206000200160006101000a81548173ffffffffffffffffffffffffffffffffffffffff021916908373ffffffffffffffffffffffffffffffffffffffff1602179055506004600086815260200190815260200160002060030180548061169f5761169e614f5b565b5b6001900381819060005260206000200160006101000a81549073ffffffffffffffffffffffffffffffffffffffff021916905590556116ec565b80806116e490614afd565b9150506114eb565b50611705565b80806116fd90614afd565b9150506114b2565b503373ffffffffffffffffffffffffffffffffffffffff16847f7ab4deebe626f6dd0708f3cbbc92d178d591d0e1d85e2f8cdabd2834092955108360405161174d9190614a7d565b60405180910390a350505050565b80600260003373ffffffffffffffffffffffffffffffffffffffff1673ffffffffffffffffffffffffffffffffffffffff16815260200190815260200160002060050190816117aa91906142c2565b503373ffffffffffffffffffffffffffffffffffffffff167ff12465ed0fb713415cff89dd51510fda6b6eba598e2fa46ec320b0219e549a62600260003373ffffffffffffffffffffffffffffffffffffffff1673ffffffffffffffffffffffffffffffffffffffff16815260200190815260200160002060405161182f91906144d1565b60405180910390a250565b6118476000801b336120b6565b611886576040517f08c379a000000000000000000000000000000000000000000000000000000000815260040161187d90614ffc565b60405180910390fd5b6118b07f314036e221c52b2e9bffe531890cefb6b09cd8682ad89fc9f25d863bad9622a68261318d565b50565b80600260003373ffffffffffffffffffffffffffffffffffffffff1673ffffffffffffffffffffffffffffffffffffffff168152602001908152602001600020600401908161190291906142c2565b503373ffffffffffffffffffffffffffffffffffffffff167ff12465ed0fb713415cff89dd51510fda6b6eba598e2fa46ec320b0219e549a62600260003373ffffffffffffffffffffffffffffffffffffffff1673ffffffffffffffffffffffffffffffffffffffff16815260200190815260200160002060405161198791906144d1565b60405180910390a250565b606060006004600084815260200190815260200160002090506000805b8260030180549050811015611a4d573373ffffffffffffffffffffffffffffffffffffffff168360030182815481106119eb576119ea614a9f565b5b9060005260206000200160009054906101000a900473ffffffffffffffffffffffffffffffffffffffff1673ffffffffffffffffffffffffffffffffffffffff1603611a3a5760019150611a4d565b8080611a4590614afd565b9150506119af565b508160050160009054906101000a900473ffffffffffffffffffffffffffffffffffffffff1673ffffffffffffffffffffffffffffffffffffffff163373ffffffffffffffffffffffffffffffffffffffff161480611aa95750805b80611ada5750611ad97fbf8b635bcfcd8642c9b343eafd77cdb76547a8c3ff41e4316e9996047ad954b8336120b6565b5b80611b0b5750611b0a7f3420d2a02f28e92b971806872c4fa85469cb08e4ff28a33001ea8f96d6f4025a336120b6565b5b611b4a576040517f08c379a0000000000000000000000000000000000000000000000000000000008152600401611b419061508e565b60405180910390fd5b816002018054611b599061400d565b80601f0160208091040260200160405190810160405280929190818152602001828054611b859061400d565b8015611bd25780601f10611ba757610100808354040283529160200191611bd2565b820191906000526020600020905b815481529060010190602001808311611bb557829003601f168201915b505050505092505050919050565b60006003600084815260200190815260200160002090503373ffffffffffffffffffffffffffffffffffffffff168160020160019054906101000a900473ffffffffffffffffffffffffffffffffffffffff1673ffffffffffffffffffffffffffffffffffffffff1614611c89576040517f08c379a0000000000000000000000000000000000000000000000000000000008152600401611c8090615120565b60405180910390fd5b60005b8160070180549050811015611e21578273ffffffffffffffffffffffffffffffffffffffff16826007018281548110611cc857611cc7614a9f565b5b9060005260206000200160009054906101000a900473ffffffffffffffffffffffffffffffffffffffff1673ffffffffffffffffffffffffffffffffffffffff1603611e0e578160070160018360070180549050611d269190614f27565b81548110611d3757611d36614a9f565b5b9060005260206000200160009054906101000a900473ffffffffffffffffffffffffffffffffffffffff16826007018281548110611d7857611d77614a9f565b5b9060005260206000200160006101000a81548173ffffffffffffffffffffffffffffffffffffffff021916908373ffffffffffffffffffffffffffffffffffffffff16021790555081600701805480611dd457611dd3614f5b565b5b6001900381819060005260206000200160006101000a81549073ffffffffffffffffffffffffffffffffffffffff02191690559055611e21565b8080611e1990614afd565b915050611c8c565b503373ffffffffffffffffffffffffffffffffffffffff16837f7ab4deebe626f6dd0708f3cbbc92d178d591d0e1d85e2f8cdabd28340929551083604051611e699190614a7d565b60405180910390a3505050565b60006003600085815260200190815260200160002090503373ffffffffffffffffffffffffffffffffffffffff168160020160019054906101000a900473ffffffffffffffffffffffffffffffffffffffff1673ffffffffffffffffffffffffffffffffffffffff1614611f1f576040517f08c379a0000000000000000000000000000000000000000000000000000000008152600401611f16906151b2565b60405180910390fd5b60005b8160060180549050811015611fe75783826006018281548110611f4857611f47614a9f565b5b906000526020600020015403611fd45760046000858152602001908152602001600020600301839080600181540180825580915050600190039060005260206000200160009091909190916101000a81548173ffffffffffffffffffffffffffffffffffffffff021916908373ffffffffffffffffffffffffffffffffffffffff160217905550611fe7565b8080611fdf90614afd565b915050611f22565b503373ffffffffffffffffffffffffffffffffffffffff16847f7ab4deebe626f6dd0708f3cbbc92d178d591d0e1d85e2f8cdabd2834092955108360405161202f9190614a7d565b60405180910390a350505050565b61204a6000801b336120b6565b612089576040517f08c379a000000000000000000000000000000000000000000000000000000000815260040161208090615244565b60405180910390fd5b6120b37fbf8b635bcfcd8642c9b343eafd77cdb76547a8c3ff41e4316e9996047ad954b882612f51565b50565b600080600084815260200190815260200160002060008373ffffffffffffffffffffffffffffffffffffffff1673ffffffffffffffffffffffffffffffffffffffff16815260200190815260200160002060009054906101000a900460ff16905092915050565b61212a6000801b336120b6565b612169576040517f08c379a0000000000000000000000000000000000000000000000000000000008152600401612160906152d6565b60405180910390fd5b6121937fbf8b635bcfcd8642c9b343eafd77cdb76547a8c3ff41e4316e9996047ad954b88261318d565b50565b7f314036e221c52b2e9bffe531890cefb6b09cd8682ad89fc9f25d863bad9622a681565b6000801b81565b6000600260003373ffffffffffffffffffffffffffffffffffffffff1673ffffffffffffffffffffffffffffffffffffffff16815260200190815260200160002060010180546122109061400d565b905014612252576040517f08c379a0000000000000000000000000000000000000000000000000000000008152600401612249906140f6565b60405180910390fd5b80600260003373ffffffffffffffffffffffffffffffffffffffff1673ffffffffffffffffffffffffffffffffffffffff16815260200190815260200160002060010190816122a191906142c2565b503373ffffffffffffffffffffffffffffffffffffffff167ff12465ed0fb713415cff89dd51510fda6b6eba598e2fa46ec320b0219e549a62600260003373ffffffffffffffffffffffffffffffffffffffff1673ffffffffffffffffffffffffffffffffffffffff16815260200190815260200160002060405161232691906144d1565b60405180910390a250565b600080600084815260200190815260200160002060008073ffffffffffffffffffffffffffffffffffffffff1673ffffffffffffffffffffffffffffffffffffffff16815260200190815260200160002060009054906101000a900460ff166123f85760008084815260200190815260200160002060008373ffffffffffffffffffffffffffffffffffffffff1673ffffffffffffffffffffffffffffffffffffffff16815260200190815260200160002060009054906101000a900460ff1690506123fd565b600190505b92915050565b60065481565b600260205280600052604060002060009150905080600001805461242c9061400d565b80601f01602080910402602001604051908101604052809291908181526020018280546124589061400d565b80156124a55780601f1061247a576101008083540402835291602001916124a5565b820191906000526020600020905b81548152906001019060200180831161248857829003601f168201915b5050505050908060010180546124ba9061400d565b80601f01602080910402602001604051908101604052809291908181526020018280546124e69061400d565b80156125335780601f1061250857610100808354040283529160200191612533565b820191906000526020600020905b81548152906001019060200180831161251657829003601f168201915b5050505050908060020180546125489061400d565b80601f01602080910402602001604051908101604052809291908181526020018280546125749061400d565b80156125c15780601f10612596576101008083540402835291602001916125c1565b820191906000526020600020905b8154815290600101906020018083116125a457829003601f168201915b5050505050908060030180546125d69061400d565b80601f01602080910402602001604051908101604052809291908181526020018280546126029061400d565b801561264f5780601f106126245761010080835404028352916020019161264f565b820191906000526020600020905b81548152906001019060200180831161263257829003601f168201915b5050505050908060040180546126649061400d565b80601f01602080910402602001604051908101604052809291908181526020018280546126909061400d565b80156126dd5780601f106126b2576101008083540402835291602001916126dd565b820191906000526020600020905b8154815290600101906020018083116126c057829003601f168201915b5050505050908060050180546126f29061400d565b80601f016020809104026020016040519081016040528092919081815260200182805461271e9061400d565b801561276b5780601f106127405761010080835404028352916020019161276b565b820191906000526020600020905b81548152906001019060200180831161274e57829003601f168201915b5050505050905086565b61279f7f314036e221c52b2e9bffe531890cefb6b09cd8682ad89fc9f25d863bad9622a6336120b6565b6127de576040517f08c379a00000000000000000000000000000000000000000000000000000000081526004016127d590615368565b60405180910390fd5b600060405180610120016040528060055481526020018481526020016000600181111561280e5761280d613ee2565b5b81526020018373ffffffffffffffffffffffffffffffffffffffff16815260200142815260200160008152602001428152602001600067ffffffffffffffff81111561285d5761285c6136dc565b5b60405190808252806020026020018201604052801561288b5781602001602082028036833780820191505090505b508152602001600067ffffffffffffffff8111156128ac576128ab6136dc565b5b6040519080825280602002602001820160405280156128da5781602001602082028036833780820191505090505b5081525090508060036000600554815260200190815260200160002060008201518160000155602082015181600101908161291591906142c2565b5060408201518160020160006101000a81548160ff0219169083600181111561294157612940613ee2565b5b021790555060608201518160020160016101000a81548173ffffffffffffffffffffffffffffffffffffffff021916908373ffffffffffffffffffffffffffffffffffffffff1602179055506080820151816003015560a0820151816004015560c0820151816005015560e08201518160060190805190602001906129c79291906135e2565b506101008201518160070190805190602001906129e5929190613558565b50905050600560008154809291906129fc90614afd565b91905055503373ffffffffffffffffffffffffffffffffffffffff1681600001517fba7172cd7ac8a02edf793c7289afac38b1aea6b74a202f5556e41510715472ca83604051612a4c91906155a0565b60405180910390a3505050565b80600260003373ffffffffffffffffffffffffffffffffffffffff1673ffffffffffffffffffffffffffffffffffffffff1681526020019081526020016000206000019081612aa891906142c2565b503373ffffffffffffffffffffffffffffffffffffffff167ff12465ed0fb713415cff89dd51510fda6b6eba598e2fa46ec320b0219e549a62600260003373ffffffffffffffffffffffffffffffffffffffff1673ffffffffffffffffffffffffffffffffffffffff168152602001908152602001600020604051612b2d91906144d1565b60405180910390a250565b600060036000848152602001908152602001600020905060006004600084815260200190815260200160002090506000805b8260030180549050811015612c08573373ffffffffffffffffffffffffffffffffffffffff16836003018281548110612ba657612ba5614a9f565b5b9060005260206000200160009054906101000a900473ffffffffffffffffffffffffffffffffffffffff1673ffffffffffffffffffffffffffffffffffffffff1603612bf55760019150612c08565b8080612c0090614afd565b915050612b6a565b503373ffffffffffffffffffffffffffffffffffffffff168360020160019054906101000a900473ffffffffffffffffffffffffffffffffffffffff1673ffffffffffffffffffffffffffffffffffffffff161480612c645750805b612ca3576040517f08c379a0000000000000000000000000000000000000000000000000000000008152600401612c9a90615634565b60405180910390fd5b60046000858152602001908152602001600020600080820160009055600182016000612ccf919061362f565b600282016000612cdf919061362f565b600382016000612cef919061366f565b60048201600090556005820160006101000a81549073ffffffffffffffffffffffffffffffffffffffff021916905550503373ffffffffffffffffffffffffffffffffffffffff16857f7ab4deebe626f6dd0708f3cbbc92d178d591d0e1d85e2f8cdabd28340929551085604051612d679190614a7d565b60405180910390a35050505050565b612d836000801b336120b6565b612dc2576040517f08c379a0000000000000000000000000000000000000000000000000000000008152600401612db9906156c6565b60405180910390fd5b612dec7f3420d2a02f28e92b971806872c4fa85469cb08e4ff28a33001ea8f96d6f4025a8261318d565b50565b612e197f314036e221c52b2e9bffe531890cefb6b09cd8682ad89fc9f25d863bad9622a6336120b6565b80612e4a5750612e497fbf8b635bcfcd8642c9b343eafd77cdb76547a8c3ff41e4316e9996047ad954b8336120b6565b5b612e89576040517f08c379a0000000000000000000000000000000000000000000000000000000008152600401612e8090615758565b60405180910390fd5b80600360008481526020019081526020016000206001019081612eac91906142c2565b504260036000848152602001908152602001600020600501819055503373ffffffffffffffffffffffffffffffffffffffff16827f7ab4deebe626f6dd0708f3cbbc92d178d591d0e1d85e2f8cdabd28340929551060036000868152602001908152602001600020604051612f219190614de1565b60405180910390a35050565b7f3420d2a02f28e92b971806872c4fa85469cb08e4ff28a33001ea8f96d6f4025a81565b612f6e60016000848152602001908152602001600020543361309d565b612f788282613254565b5050565b60055481565b7fbf8b635bcfcd8642c9b343eafd77cdb76547a8c3ff41e4316e9996047ad954b881565b6003602052806000526040600020600091509050806000015490806001018054612fcf9061400d565b80601f0160208091040260200160405190810160405280929190818152602001828054612ffb9061400d565b80156130485780601f1061301d57610100808354040283529160200191613048565b820191906000526020600020905b81548152906001019060200180831161302b57829003601f168201915b5050505050908060020160009054906101000a900460ff16908060020160019054906101000a900473ffffffffffffffffffffffffffffffffffffffff16908060030154908060040154908060050154905087565b60008083815260200190815260200160002060008273ffffffffffffffffffffffffffffffffffffffff1673ffffffffffffffffffffffffffffffffffffffff16815260200190815260200160002060009054906101000a900460ff166131895761311f8173ffffffffffffffffffffffffffffffffffffffff16601461331c565b61312d8360001c602061331c565b60405160200161313e92919061584c565b6040516020818303038152906040526040517f08c379a00000000000000000000000000000000000000000000000000000000081526004016131809190613cdd565b60405180910390fd5b5050565b600160008084815260200190815260200160002060008373ffffffffffffffffffffffffffffffffffffffff1673ffffffffffffffffffffffffffffffffffffffff16815260200190815260200160002060006101000a81548160ff0219169083151502179055503373ffffffffffffffffffffffffffffffffffffffff168173ffffffffffffffffffffffffffffffffffffffff16837f2f8788117e7eff1d82e926ec794901d17c78024a50270940304540a733656f0d60405160405180910390a45050565b61325e828261309d565b60008083815260200190815260200160002060008273ffffffffffffffffffffffffffffffffffffffff1673ffffffffffffffffffffffffffffffffffffffff16815260200190815260200160002060006101000a81549060ff02191690553373ffffffffffffffffffffffffffffffffffffffff168173ffffffffffffffffffffffffffffffffffffffff16837ff6391f5c32d9c69d2a47ea670b442974b53935d1edc7fd64eb21e047a839171b60405160405180910390a45050565b60606000600283600261332f9190615886565b61333991906158c8565b67ffffffffffffffff811115613352576133516136dc565b5b6040519080825280601f01601f1916602001820160405280156133845781602001600182028036833780820191505090505b5090507f3000000000000000000000000000000000000000000000000000000000000000816000815181106133bc576133bb614a9f565b5b60200101907effffffffffffffffffffffffffffffffffffffffffffffffffffffffffffff1916908160001a9053507f7800000000000000000000000000000000000000000000000000000000000000816001815181106134205761341f614a9f565b5b60200101907effffffffffffffffffffffffffffffffffffffffffffffffffffffffffffff1916908160001a905350600060018460026134609190615886565b61346a91906158c8565b90505b600181111561350a577f3031323334353637383961626364656600000000000000000000000000000000600f8616601081106134ac576134ab614a9f565b5b1a60f81b8282815181106134c3576134c2614a9f565b5b60200101907effffffffffffffffffffffffffffffffffffffffffffffffffffffffffffff1916908160001a905350600485901c945080613503906158fc565b905061346d565b506000841461354e576040517f08c379a000000000000000000000000000000000000000000000000000000000815260040161354590615971565b60405180910390fd5b8091505092915050565b8280548282559060005260206000209081019282156135d1579160200282015b828111156135d05782518260006101000a81548173ffffffffffffffffffffffffffffffffffffffff021916908373ffffffffffffffffffffffffffffffffffffffff16021790555091602001919060010190613578565b5b5090506135de9190613690565b5090565b82805482825590600052602060002090810192821561361e579160200282015b8281111561361d578251825591602001919060010190613602565b5b50905061362b9190613690565b5090565b50805461363b9061400d565b6000825580601f1061364d575061366c565b601f01602090049060005260206000209081019061366b9190613690565b5b50565b508054600082559060005260206000209081019061368d9190613690565b50565b5b808211156136a9576000816000905550600101613691565b5090565b6000604051905090565b600080fd5b600080fd5b600080fd5b600080fd5b6000601f19601f8301169050919050565b7f4e487b7100000000000000000000000000000000000000000000000000000000600052604160045260246000fd5b613714826136cb565b810181811067ffffffffffffffff82111715613733576137326136dc565b5b80604052505050565b60006137466136ad565b9050613752828261370b565b919050565b600067ffffffffffffffff821115613772576137716136dc565b5b61377b826136cb565b9050602081019050919050565b82818337600083830152505050565b60006137aa6137a584613757565b61373c565b9050828152602081018484840111156137c6576137c56136c6565b5b6137d1848285613788565b509392505050565b600082601f8301126137ee576137ed6136c1565b5b81356137fe848260208601613797565b91505092915050565b60008060008060008060c08789031215613824576138236136b7565b5b600087013567ffffffffffffffff811115613842576138416136bc565b5b61384e89828a016137d9565b965050602087013567ffffffffffffffff81111561386f5761386e6136bc565b5b61387b89828a016137d9565b955050604087013567ffffffffffffffff81111561389c5761389b6136bc565b5b6138a889828a016137d9565b945050606087013567ffffffffffffffff8111156138c9576138c86136bc565b5b6138d589828a016137d9565b935050608087013567ffffffffffffffff8111156138f6576138f56136bc565b5b61390289828a016137d9565b92505060a087013567ffffffffffffffff811115613923576139226136bc565b5b61392f89828a016137d9565b9150509295509295509295565b600060208284031215613952576139516136b7565b5b600082013567ffffffffffffffff8111156139705761396f6136bc565b5b61397c848285016137d9565b91505092915050565b600073ffffffffffffffffffffffffffffffffffffffff82169050919050565b60006139b082613985565b9050919050565b6139c0816139a5565b81146139cb57600080fd5b50565b6000813590506139dd816139b7565b92915050565b6000602082840312156139f9576139f86136b7565b5b6000613a07848285016139ce565b91505092915050565b6000819050919050565b613a2381613a10565b8114613a2e57600080fd5b50565b600081359050613a4081613a1a565b92915050565b600060208284031215613a5c57613a5b6136b7565b5b6000613a6a84828501613a31565b91505092915050565b613a7c81613a10565b82525050565b6000602082019050613a976000830184613a73565b92915050565b60008060408385031215613ab457613ab36136b7565b5b6000613ac285828601613a31565b9250506020613ad3858286016139ce565b9150509250929050565b6000819050919050565b613af081613add565b8114613afb57600080fd5b50565b600081359050613b0d81613ae7565b92915050565b60008060408385031215613b2a57613b296136b7565b5b6000613b3885828601613afe565b9250506020613b49858286016139ce565b9150509250929050565b600080600060608486031215613b6c57613b6b6136b7565b5b6000613b7a86828701613afe565b935050602084013567ffffffffffffffff811115613b9b57613b9a6136bc565b5b613ba7868287016137d9565b925050604084013567ffffffffffffffff811115613bc857613bc76136bc565b5b613bd4868287016137d9565b9150509250925092565b600060208284031215613bf457613bf36136b7565b5b6000613c0284828501613afe565b91505092915050565b600080600060608486031215613c2457613c236136b7565b5b6000613c3286828701613afe565b9350506020613c4386828701613afe565b9250506040613c54868287016139ce565b9150509250925092565b600081519050919050565b600082825260208201905092915050565b60005b83811015613c98578082015181840152602081019050613c7d565b60008484015250505050565b6000613caf82613c5e565b613cb98185613c69565b9350613cc9818560208601613c7a565b613cd2816136cb565b840191505092915050565b60006020820190508181036000830152613cf78184613ca4565b905092915050565b60008115159050919050565b613d1481613cff565b82525050565b6000602082019050613d2f6000830184613d0b565b92915050565b613d3e81613add565b82525050565b6000602082019050613d596000830184613d35565b92915050565b600060c0820190508181036000830152613d798189613ca4565b90508181036020830152613d8d8188613ca4565b90508181036040830152613da18187613ca4565b90508181036060830152613db58186613ca4565b90508181036080830152613dc98185613ca4565b905081810360a0830152613ddd8184613ca4565b9050979650505050505050565b60008060408385031215613e0157613e006136b7565b5b600083013567ffffffffffffffff811115613e1f57613e1e6136bc565b5b613e2b858286016137d9565b9250506020613e3c858286016139ce565b9150509250929050565b60008060408385031215613e5d57613e5c6136b7565b5b6000613e6b85828601613afe565b9250506020613e7c85828601613afe565b9150509250929050565b60008060408385031215613e9d57613e9c6136b7565b5b6000613eab85828601613afe565b925050602083013567ffffffffffffffff811115613ecc57613ecb6136bc565b5b613ed8858286016137d9565b9150509250929050565b7f4e487b7100000000000000000000000000000000000000000000000000000000600052602160045260246000fd5b60028110613f2257613f21613ee2565b5b50565b6000819050613f3382613f11565b919050565b6000613f4382613f25565b9050919050565b613f5381613f38565b82525050565b613f62816139a5565b82525050565b600060e082019050613f7d600083018a613d35565b8181036020830152613f8f8189613ca4565b9050613f9e6040830188613f4a565b613fab6060830187613f59565b613fb86080830186613d35565b613fc560a0830185613d35565b613fd260c0830184613d35565b98975050505050505050565b7f4e487b7100000000000000000000000000000000000000000000000000000000600052602260045260246000fd5b6000600282049050600182168061402557607f821691505b60208210810361403857614037613fde565b5b50919050565b7f5573657220616c72656164792065786973747300000000000000000000000000600082015250565b6000614074601383613c69565b915061407f8261403e565b602082019050919050565b600060208201905081810360008301526140a381614067565b9050919050565b7f557365726e616d6520616c72656164792074616b656e00000000000000000000600082015250565b60006140e0601683613c69565b91506140eb826140aa565b602082019050919050565b6000602082019050818103600083015261410f816140d3565b9050919050565b60008190508160005260206000209050919050565b60006020601f8301049050919050565b600082821b905092915050565b6000600883026141787fffffffffffffffffffffffffffffffffffffffffffffffffffffffffffffffff8261413b565b614182868361413b565b95508019841693508086168417925050509392505050565b6000819050919050565b60006141bf6141ba6141b584613add565b61419a565b613add565b9050919050565b6000819050919050565b6141d9836141a4565b6141ed6141e5826141c6565b848454614148565b825550505050565b600090565b6142026141f5565b61420d8184846141d0565b505050565b5b81811015614231576142266000826141fa565b600181019050614213565b5050565b601f8211156142765761424781614116565b6142508461412b565b8101602085101561425f578190505b61427361426b8561412b565b830182614212565b50505b505050565b600082821c905092915050565b60006142996000198460080261427b565b1980831691505092915050565b60006142b28383614288565b9150826002028217905092915050565b6142cb82613c5e565b67ffffffffffffffff8111156142e4576142e36136dc565b5b6142ee825461400d565b6142f9828285614235565b600060209050601f83116001811461432c576000841561431a578287015190505b61432485826142a6565b86555061438c565b601f19841661433a86614116565b60005b828110156143625784890151825560018201915060208501945060208101905061433d565b8683101561437f578489015161437b601f891682614288565b8355505b6001600288020188555050505b505050505050565b600082825260208201905092915050565b600081546143b28161400d565b6143bc8186614394565b945060018216600081146143d757600181146143ed57614420565b60ff198316865281151560200286019350614420565b6143f685614116565b60005b83811015614418578154818901526001820191506020810190506143f9565b808801955050505b50505092915050565b600060c083016000808401858303600087015261444683826143a5565b92505060018401858303602087015261445f83826143a5565b92505060028401858303604087015261447883826143a5565b92505060038401858303606087015261449183826143a5565b9250506004840185830360808701526144aa83826143a5565b9250506005840185830360a08701526144c383826143a5565b925050819250505092915050565b600060208201905081810360008301526144eb8184614429565b905092915050565b7f4d75737420686176652061646d696e20726f6c6520746f2064656c657465206460008201527f6574656374697665000000000000000000000000000000000000000000000000602082015250565b600061454f602883613c69565b915061455a826144f3565b604082019050919050565b6000602082019050818103600083015261457e81614542565b9050919050565b7f43616e206f6e6c79206772616e7420746f206e6f6e20686f6c64657273000000600082015250565b60006145bb601d83613c69565b91506145c682614585565b602082019050919050565b600060208201905081810360008301526145ea816145ae565b9050919050565b7f43616e206f6e6c792072656e6f756e636520666f722073656c66000000000000600082015250565b6000614627601a83613c69565b9150614632826145f1565b602082019050919050565b600060208201905081810360008301526146568161461a565b9050919050565b7f4d75737420626520636c69656e7420746f20616464206c617779657220746f2060008201527f6361736500000000000000000000000000000000000000000000000000000000602082015250565b60006146b9602483613c69565b91506146c48261465d565b604082019050919050565b600060208201905081810360008301526146e8816146ac565b9050919050565b60008160001c9050919050565b6000819050919050565b6000614719614714836146ef565b6146fc565b9050919050565b61472981613add565b82525050565b600060ff82169050919050565b600061474f61474a836146ef565b61472f565b9050919050565b61475f81613f38565b82525050565b60008160081c9050919050565b600073ffffffffffffffffffffffffffffffffffffffff82169050919050565b60006147a56147a083614765565b614772565b9050919050565b6147b5816139a5565b82525050565b600081549050919050565b600082825260208201905092915050565b60008190508160005260206000209050919050565b60006147f88383614720565b60208301905092915050565b60006148108254614706565b9050919050565b6000600182019050919050565b600061482f826147bb565b61483981856147c6565b9350614844836147d7565b8060005b8381101561487c5761485982614804565b61486388826147ec565b975061486e83614817565b925050600181019050614848565b5085935050505092915050565b600081549050919050565b600082825260208201905092915050565b60008190508160005260206000209050919050565b60006148c683836147ac565b60208301905092915050565b60006148e56148e0836146ef565b614772565b9050919050565b60006148f882546148d2565b9050919050565b6000600182019050919050565b600061491782614889565b6149218185614894565b935061492c836148a5565b8060005b8381101561496457614941826148ec565b61494b88826148ba565b9750614956836148ff565b925050600181019050614930565b5085935050505092915050565b60006101208301600080840154905061498981614706565b6149966000870182614720565b506001840185830360208701526149ad83826143a5565b925050600284015490506149c08161473c565b6149cd6040870182614756565b506149d781614792565b6149e460608701826147ac565b50600384015490506149f581614706565b614a026080870182614720565b5060048401549050614a1381614706565b614a2060a0870182614720565b5060058401549050614a3181614706565b614a3e60c0870182614720565b506006840185830360e0870152614a558382614824565b92505060078401858303610100870152614a6f838261490c565b925050819250505092915050565b60006020820190508181036000830152614a978184614971565b905092915050565b7f4e487b7100000000000000000000000000000000000000000000000000000000600052603260045260246000fd5b7f4e487b7100000000000000000000000000000000000000000000000000000000600052601160045260246000fd5b6000614b0882613add565b91507fffffffffffffffffffffffffffffffffffffffffffffffffffffffffffffffff8203614b3a57614b39614ace565b5b600182019050919050565b7f4d75737420626520636c69656e74206f72206c617779657220746f206164642060008201527f646f63756d656e74000000000000000000000000000000000000000000000000602082015250565b6000614ba1602883613c69565b9150614bac82614b45565b604082019050919050565b60006020820190508181036000830152614bd081614b94565b9050919050565b7f4d7573742068617665204c61777965722f4a7564676520726f6c6520746f206360008201527f6c6f736520612063617365000000000000000000000000000000000000000000602082015250565b6000614c33602b83613c69565b9150614c3e82614bd7565b604082019050919050565b60006020820190508181036000830152614c6281614c26565b9050919050565b7f43617365206d757374206265206f70656e20746f20636c6f7365000000000000600082015250565b6000614c9f601a83613c69565b9150614caa82614c69565b602082019050919050565b60006020820190508181036000830152614cce81614c92565b9050919050565b600061012083016000808401549050614ced81614706565b614cfa6000870182614720565b50600184018583036020870152614d1183826143a5565b92505060028401549050614d248161473c565b614d316040870182614756565b50614d3b81614792565b614d4860608701826147ac565b5060038401549050614d5981614706565b614d666080870182614720565b5060048401549050614d7781614706565b614d8460a0870182614720565b5060058401549050614d9581614706565b614da260c0870182614720565b506006840185830360e0870152614db98382614824565b92505060078401858303610100870152614dd3838261490c565b925050819250505092915050565b60006020820190508181036000830152614dfb8184614cd5565b905092915050565b7f4d75737420686176652061646d696e20726f6c6520746f2064656c657465206c60008201527f6177796572000000000000000000000000000000000000000000000000000000602082015250565b6000614e5f602583613c69565b9150614e6a82614e03565b604082019050919050565b60006020820190508181036000830152614e8e81614e52565b9050919050565b7f4d75737420626520636c69656e7420746f2064656c65746520617574686f726960008201527f7a65642075736572000000000000000000000000000000000000000000000000602082015250565b6000614ef1602883613c69565b9150614efc82614e95565b604082019050919050565b60006020820190508181036000830152614f2081614ee4565b9050919050565b6000614f3282613add565b9150614f3d83613add565b9250828203905081811115614f5557614f54614ace565b5b92915050565b7f4e487b7100000000000000000000000000000000000000000000000000000000600052603160045260246000fd5b7f4d75737420686176652061646d696e20726f6c6520746f20616464206c61777960008201527f6572000000000000000000000000000000000000000000000000000000000000602082015250565b6000614fe6602283613c69565b9150614ff182614f8a565b604082019050919050565b6000602082019050818103600083015261501581614fd9565b9050919050565b7f4d757374206861766520436c69656e742f4c61777965722f4a756467652f446560008201527f7465637469766520726f6c6520746f2067657420646f63756d656e7420636964602082015250565b6000615078604083613c69565b91506150838261501c565b604082019050919050565b600060208201905081810360008301526150a78161506b565b9050919050565b7f4d75737420626520636c69656e7420746f2064656c657465206c61777965722060008201527f66726f6d20636173650000000000000000000000000000000000000000000000602082015250565b600061510a602983613c69565b9150615115826150ae565b604082019050919050565b60006020820190508181036000830152615139816150fd565b9050919050565b7f4d75737420626520636c69656e7420746f2061646420617574686f72697a656460008201527f2075736572000000000000000000000000000000000000000000000000000000602082015250565b600061519c602583613c69565b91506151a782615140565b604082019050919050565b600060208201905081810360008301526151cb8161518f565b9050919050565b7f4d75737420686176652061646d696e20726f6c6520746f2064656c657465206a60008201527f7564676500000000000000000000000000000000000000000000000000000000602082015250565b600061522e602483613c69565b9150615239826151d2565b604082019050919050565b6000602082019050818103600083015261525d81615221565b9050919050565b7f4d75737420686176652061646d696e20726f6c6520746f20616464206a75646760008201527f6500000000000000000000000000000000000000000000000000000000000000602082015250565b60006152c0602183613c69565b91506152cb82615264565b604082019050919050565b600060208201905081810360008301526152ef816152b3565b9050919050565b7f4d7573742068617665204c617779657220726f6c6520746f206372656174652060008201527f6120636173650000000000000000000000000000000000000000000000000000602082015250565b6000615352602683613c69565b915061535d826152f6565b604082019050919050565b6000602082019050818103600083015261538181615345565b9050919050565b600061539382613c5e565b61539d8185614394565b93506153ad818560208601613c7a565b6153b6816136cb565b840191505092915050565b600081519050919050565b6000819050602082019050919050565b6000602082019050919050565b60006153f4826153c1565b6153fe81856147c6565b9350615409836153cc565b8060005b8381101561543a57815161542188826147ec565b975061542c836153dc565b92505060018101905061540d565b5085935050505092915050565b600081519050919050565b6000819050602082019050919050565b6000602082019050919050565b600061547a82615447565b6154848185614894565b935061548f83615452565b8060005b838110156154c05781516154a788826148ba565b97506154b283615462565b925050600181019050615493565b5085935050505092915050565b6000610120830160008301516154e66000860182614720565b50602083015184820360208601526154fe8282615388565b91505060408301516155136040860182614756565b50606083015161552660608601826147ac565b5060808301516155396080860182614720565b5060a083015161554c60a0860182614720565b5060c083015161555f60c0860182614720565b5060e083015184820360e086015261557782826153e9565b915050610100830151848203610100860152615593828261546f565b9150508091505092915050565b600060208201905081810360008301526155ba81846154cd565b905092915050565b7f4d75737420626520636c69656e74206f72206c617779657220746f2064656c6560008201527f746520646f63756d656e74000000000000000000000000000000000000000000602082015250565b600061561e602b83613c69565b9150615629826155c2565b604082019050919050565b6000602082019050818103600083015261564d81615611565b9050919050565b7f4d75737420686176652061646d696e20726f6c6520746f20616464206465746560008201527f6374697665000000000000000000000000000000000000000000000000000000602082015250565b60006156b0602583613c69565b91506156bb82615654565b604082019050919050565b600060208201905081810360008301526156df816156a3565b9050919050565b7f4d7573742068617665204c61777965722f4a7564676520726f6c6520746f207560008201527f7064617465206120636173650000000000000000000000000000000000000000602082015250565b6000615742602c83613c69565b915061574d826156e6565b604082019050919050565b6000602082019050818103600083015261577181615735565b9050919050565b600081905092915050565b7f5065726d697373696f6e733a206163636f756e74200000000000000000000000600082015250565b60006157b9601583615778565b91506157c482615783565b601582019050919050565b60006157da82613c5e565b6157e48185615778565b93506157f4818560208601613c7a565b80840191505092915050565b7f206973206d697373696e6720726f6c6520000000000000000000000000000000600082015250565b6000615836601183615778565b915061584182615800565b601182019050919050565b6000615857826157ac565b915061586382856157cf565b915061586e82615829565b915061587a82846157cf565b91508190509392505050565b600061589182613add565b915061589c83613add565b92508282026158aa81613add565b915082820484148315176158c1576158c0614ace565b5b5092915050565b60006158d382613add565b91506158de83613add565b92508282019050808211156158f6576158f5614ace565b5b92915050565b600061590782613add565b91506000820361591a57615919614ace565b5b600182039050919050565b7f537472696e67733a20686578206c656e67746820696e73756666696369656e74600082015250565b600061595b602083613c69565b915061596682615925565b602082019050919050565b6000602082019050818103600083015261598a8161594e565b905091905056fea264697066735822122026954f31997c06d7acacbe00988c87200a11a4878b024ad5468a81981c2e292164736f6c63430008130033",
  "linkReferences": {},
  "deployedLinkReferences": {}
}