{
  "_format": "hh-sol-artifact-1",
  "contractName": "RecordWarden",
  "sourceName": "contracts/RecordWarden.sol",
  "abi": [
    {
      "inputs": [],
      "stateMutability": "nonpayable",
      "type": "constructor"
    },
    {
      "anonymous": false,
      "inputs": [
        {
          "indexed": true,
          "internalType": "uint256",
          "name": "id",
          "type": "uint256"
        },
        {
          "indexed": true,
          "internalType": "address",
          "name": "lawyer",
          "type": "address"
        },
        {
          "components": [
            {
              "internalType": "uint256",
              "name": "id",
              "type": "uint256"
            },
            {
              "internalType": "string",
              "name": "description",
              "type": "string"
            },
            {
              "internalType": "enum CaseStatus",
              "name": "status",
              "type": "uint8"
            },
            {
              "internalType": "address",
              "name": "client",
              "type": "address"
            },
            {
              "internalType": "uint256",
              "name": "createdAt",
              "type": "uint256"
            },
            {
              "internalType": "uint256",
              "name": "closedAt",
              "type": "uint256"
            },
            {
              "internalType": "uint256",
              "name": "updatedAt",
              "type": "uint256"
            },
            {
              "internalType": "address",
              "name": "updatedBy",
              "type": "address"
            },
            {
              "internalType": "uint256",
              "name": "nextHearing",
              "type": "uint256"
            },
            {
              "internalType": "uint256[]",
              "name": "documents",
              "type": "uint256[]"
            },
            {
              "internalType": "address[]",
              "name": "lawyers",
              "type": "address[]"
            }
          ],
          "indexed": false,
          "internalType": "struct Case",
          "name": "c",
          "type": "tuple"
        }
      ],
      "name": "CaseClosed",
      "type": "event"
    },
    {
      "anonymous": false,
      "inputs": [
        {
          "indexed": true,
          "internalType": "uint256",
          "name": "id",
          "type": "uint256"
        },
        {
          "indexed": true,
          "internalType": "address",
          "name": "lawyer",
          "type": "address"
        },
        {
          "components": [
            {
              "internalType": "uint256",
              "name": "id",
              "type": "uint256"
            },
            {
              "internalType": "string",
              "name": "description",
              "type": "string"
            },
            {
              "internalType": "enum CaseStatus",
              "name": "status",
              "type": "uint8"
            },
            {
              "internalType": "address",
              "name": "client",
              "type": "address"
            },
            {
              "internalType": "uint256",
              "name": "createdAt",
              "type": "uint256"
            },
            {
              "internalType": "uint256",
              "name": "closedAt",
              "type": "uint256"
            },
            {
              "internalType": "uint256",
              "name": "updatedAt",
              "type": "uint256"
            },
            {
              "internalType": "address",
              "name": "updatedBy",
              "type": "address"
            },
            {
              "internalType": "uint256",
              "name": "nextHearing",
              "type": "uint256"
            },
            {
              "internalType": "uint256[]",
              "name": "documents",
              "type": "uint256[]"
            },
            {
              "internalType": "address[]",
              "name": "lawyers",
              "type": "address[]"
            }
          ],
          "indexed": false,
          "internalType": "struct Case",
          "name": "c",
          "type": "tuple"
        }
      ],
      "name": "CaseCreated",
      "type": "event"
    },
    {
      "anonymous": false,
      "inputs": [
        {
          "indexed": true,
          "internalType": "uint256",
          "name": "id",
          "type": "uint256"
        },
        {
          "indexed": true,
          "internalType": "address",
          "name": "lawyer",
          "type": "address"
        },
        {
          "components": [
            {
              "internalType": "uint256",
              "name": "id",
              "type": "uint256"
            },
            {
              "internalType": "string",
              "name": "description",
              "type": "string"
            },
            {
              "internalType": "enum CaseStatus",
              "name": "status",
              "type": "uint8"
            },
            {
              "internalType": "address",
              "name": "client",
              "type": "address"
            },
            {
              "internalType": "uint256",
              "name": "createdAt",
              "type": "uint256"
            },
            {
              "internalType": "uint256",
              "name": "closedAt",
              "type": "uint256"
            },
            {
              "internalType": "uint256",
              "name": "updatedAt",
              "type": "uint256"
            },
            {
              "internalType": "address",
              "name": "updatedBy",
              "type": "address"
            },
            {
              "internalType": "uint256",
              "name": "nextHearing",
              "type": "uint256"
            },
            {
              "internalType": "uint256[]",
              "name": "documents",
              "type": "uint256[]"
            },
            {
              "internalType": "address[]",
              "name": "lawyers",
              "type": "address[]"
            }
          ],
          "indexed": false,
          "internalType": "struct Case",
          "name": "c",
          "type": "tuple"
        }
      ],
      "name": "CaseUpdated",
      "type": "event"
    },
    {
      "anonymous": false,
      "inputs": [
        {
          "indexed": true,
          "internalType": "bytes32",
          "name": "role",
          "type": "bytes32"
        },
        {
          "indexed": true,
          "internalType": "bytes32",
          "name": "previousAdminRole",
          "type": "bytes32"
        },
        {
          "indexed": true,
          "internalType": "bytes32",
          "name": "newAdminRole",
          "type": "bytes32"
        }
      ],
      "name": "RoleAdminChanged",
      "type": "event"
    },
    {
      "anonymous": false,
      "inputs": [
        {
          "indexed": true,
          "internalType": "bytes32",
          "name": "role",
          "type": "bytes32"
        },
        {
          "indexed": true,
          "internalType": "address",
          "name": "account",
          "type": "address"
        },
        {
          "indexed": true,
          "internalType": "address",
          "name": "sender",
          "type": "address"
        }
      ],
      "name": "RoleGranted",
      "type": "event"
    },
    {
      "anonymous": false,
      "inputs": [
        {
          "indexed": true,
          "internalType": "bytes32",
          "name": "role",
          "type": "bytes32"
        },
        {
          "indexed": true,
          "internalType": "address",
          "name": "account",
          "type": "address"
        },
        {
          "indexed": true,
          "internalType": "address",
          "name": "sender",
          "type": "address"
        }
      ],
      "name": "RoleRevoked",
      "type": "event"
    },
    {
      "anonymous": false,
      "inputs": [
        {
          "indexed": true,
          "internalType": "address",
          "name": "user",
          "type": "address"
        },
        {
          "components": [
            {
              "internalType": "string",
              "name": "name",
              "type": "string"
            },
            {
              "internalType": "string",
              "name": "username",
              "type": "string"
            },
            {
              "internalType": "string",
              "name": "avatar",
              "type": "string"
            },
            {
              "internalType": "string",
              "name": "bio",
              "type": "string"
            },
            {
              "internalType": "string",
              "name": "location",
              "type": "string"
            },
            {
              "internalType": "string",
              "name": "email",
              "type": "string"
            }
          ],
          "indexed": false,
          "internalType": "struct User",
          "name": "u",
          "type": "tuple"
        }
      ],
      "name": "UserCreated",
      "type": "event"
    },
    {
      "anonymous": false,
      "inputs": [
        {
          "indexed": true,
          "internalType": "address",
          "name": "user",
          "type": "address"
        },
        {
          "components": [
            {
              "internalType": "string",
              "name": "name",
              "type": "string"
            },
            {
              "internalType": "string",
              "name": "username",
              "type": "string"
            },
            {
              "internalType": "string",
              "name": "avatar",
              "type": "string"
            },
            {
              "internalType": "string",
              "name": "bio",
              "type": "string"
            },
            {
              "internalType": "string",
              "name": "location",
              "type": "string"
            },
            {
              "internalType": "string",
              "name": "email",
              "type": "string"
            }
          ],
          "indexed": false,
          "internalType": "struct User",
          "name": "u",
          "type": "tuple"
        }
      ],
      "name": "UserUpdated",
      "type": "event"
    },
    {
      "inputs": [],
      "name": "DEFAULT_ADMIN_ROLE",
      "outputs": [
        {
          "internalType": "bytes32",
          "name": "",
          "type": "bytes32"
        }
      ],
      "stateMutability": "view",
      "type": "function"
    },
    {
      "inputs": [],
      "name": "DetectiveRole",
      "outputs": [
        {
          "internalType": "bytes32",
          "name": "",
          "type": "bytes32"
        }
      ],
      "stateMutability": "view",
      "type": "function"
    },
    {
      "inputs": [],
      "name": "JudgeRole",
      "outputs": [
        {
          "internalType": "bytes32",
          "name": "",
          "type": "bytes32"
        }
      ],
      "stateMutability": "view",
      "type": "function"
    },
    {
      "inputs": [],
      "name": "LawyerRole",
      "outputs": [
        {
          "internalType": "bytes32",
          "name": "",
          "type": "bytes32"
        }
      ],
      "stateMutability": "view",
      "type": "function"
    },
    {
      "inputs": [
        {
          "internalType": "uint256",
          "name": "id",
          "type": "uint256"
        },
        {
          "internalType": "string",
          "name": "name",
          "type": "string"
        },
        {
          "internalType": "string",
          "name": "cid",
          "type": "string"
        }
      ],
      "name": "addCaseDocument",
      "outputs": [],
      "stateMutability": "nonpayable",
      "type": "function"
    },
    {
      "inputs": [
        {
          "internalType": "uint256",
          "name": "id",
          "type": "uint256"
        },
        {
          "internalType": "address",
          "name": "lawyer",
          "type": "address"
        }
      ],
      "name": "addCaseLawyer",
      "outputs": [],
      "stateMutability": "nonpayable",
      "type": "function"
    },
    {
      "inputs": [
        {
          "internalType": "address",
          "name": "detective",
          "type": "address"
        }
      ],
      "name": "addDetective",
      "outputs": [],
      "stateMutability": "nonpayable",
      "type": "function"
    },
    {
      "inputs": [
        {
          "internalType": "uint256",
          "name": "id",
          "type": "uint256"
        },
        {
          "internalType": "uint256",
          "name": "docId",
          "type": "uint256"
        },
        {
          "internalType": "address",
          "name": "user",
          "type": "address"
        }
      ],
      "name": "addDocumentAuthorized",
      "outputs": [],
      "stateMutability": "nonpayable",
      "type": "function"
    },
    {
      "inputs": [
        {
          "internalType": "address",
          "name": "judge",
          "type": "address"
        }
      ],
      "name": "addJudge",
      "outputs": [],
      "stateMutability": "nonpayable",
      "type": "function"
    },
    {
      "inputs": [
        {
          "internalType": "address",
          "name": "lawyer",
          "type": "address"
        }
      ],
      "name": "addLawyer",
      "outputs": [],
      "stateMutability": "nonpayable",
      "type": "function"
    },
    {
      "inputs": [],
      "name": "caseCount",
      "outputs": [
        {
          "internalType": "uint256",
          "name": "",
          "type": "uint256"
        }
      ],
      "stateMutability": "view",
      "type": "function"
    },
    {
      "inputs": [
        {
          "internalType": "uint256",
          "name": "",
          "type": "uint256"
        }
      ],
      "name": "cases",
      "outputs": [
        {
          "internalType": "uint256",
          "name": "id",
          "type": "uint256"
        },
        {
          "internalType": "string",
          "name": "description",
          "type": "string"
        },
        {
          "internalType": "enum CaseStatus",
          "name": "status",
          "type": "uint8"
        },
        {
          "internalType": "address",
          "name": "client",
          "type": "address"
        },
        {
          "internalType": "uint256",
          "name": "createdAt",
          "type": "uint256"
        },
        {
          "internalType": "uint256",
          "name": "closedAt",
          "type": "uint256"
        },
        {
          "internalType": "uint256",
          "name": "updatedAt",
          "type": "uint256"
        },
        {
          "internalType": "address",
          "name": "updatedBy",
          "type": "address"
        },
        {
          "internalType": "uint256",
          "name": "nextHearing",
          "type": "uint256"
        }
      ],
      "stateMutability": "view",
      "type": "function"
    },
    {
      "inputs": [
        {
          "internalType": "uint256",
          "name": "id",
          "type": "uint256"
        }
      ],
      "name": "closeCase",
      "outputs": [],
      "stateMutability": "nonpayable",
      "type": "function"
    },
    {
      "inputs": [
        {
          "internalType": "string",
          "name": "description",
          "type": "string"
        },
        {
          "internalType": "address",
          "name": "client",
          "type": "address"
        },
        {
          "internalType": "uint256",
          "name": "nextHearing",
          "type": "uint256"
        }
      ],
      "name": "createCase",
      "outputs": [],
      "stateMutability": "nonpayable",
      "type": "function"
    },
    {
      "inputs": [
        {
          "internalType": "string",
          "name": "name",
          "type": "string"
        },
        {
          "internalType": "string",
          "name": "username",
          "type": "string"
        },
        {
          "internalType": "string",
          "name": "avatar",
          "type": "string"
        },
        {
          "internalType": "string",
          "name": "bio",
          "type": "string"
        },
        {
          "internalType": "string",
          "name": "location",
          "type": "string"
        },
        {
          "internalType": "string",
          "name": "email",
          "type": "string"
        }
      ],
      "name": "createUser",
      "outputs": [],
      "stateMutability": "nonpayable",
      "type": "function"
    },
    {
      "inputs": [
        {
          "internalType": "uint256",
          "name": "id",
          "type": "uint256"
        },
        {
          "internalType": "uint256",
          "name": "docId",
          "type": "uint256"
        }
      ],
      "name": "deleteCaseDocument",
      "outputs": [],
      "stateMutability": "nonpayable",
      "type": "function"
    },
    {
      "inputs": [
        {
          "internalType": "uint256",
          "name": "id",
          "type": "uint256"
        },
        {
          "internalType": "address",
          "name": "lawyer",
          "type": "address"
        }
      ],
      "name": "deleteCaseLawyer",
      "outputs": [],
      "stateMutability": "nonpayable",
      "type": "function"
    },
    {
      "inputs": [
        {
          "internalType": "address",
          "name": "detective",
          "type": "address"
        }
      ],
      "name": "deleteDetective",
      "outputs": [],
      "stateMutability": "nonpayable",
      "type": "function"
    },
    {
      "inputs": [
        {
          "internalType": "uint256",
          "name": "id",
          "type": "uint256"
        },
        {
          "internalType": "uint256",
          "name": "docId",
          "type": "uint256"
        },
        {
          "internalType": "address",
          "name": "user",
          "type": "address"
        }
      ],
      "name": "deleteDocumentAuthorized",
      "outputs": [],
      "stateMutability": "nonpayable",
      "type": "function"
    },
    {
      "inputs": [
        {
          "internalType": "address",
          "name": "judge",
          "type": "address"
        }
      ],
      "name": "deleteJudge",
      "outputs": [],
      "stateMutability": "nonpayable",
      "type": "function"
    },
    {
      "inputs": [
        {
          "internalType": "address",
          "name": "lawyer",
          "type": "address"
        }
      ],
      "name": "deleteLawyer",
      "outputs": [],
      "stateMutability": "nonpayable",
      "type": "function"
    },
    {
      "inputs": [],
      "name": "documentCount",
      "outputs": [
        {
          "internalType": "uint256",
          "name": "",
          "type": "uint256"
        }
      ],
      "stateMutability": "view",
      "type": "function"
    },
    {
      "inputs": [
        {
          "internalType": "uint256",
          "name": "id",
          "type": "uint256"
        }
      ],
      "name": "getDocumentCID",
      "outputs": [
        {
          "internalType": "string",
          "name": "",
          "type": "string"
        }
      ],
      "stateMutability": "view",
      "type": "function"
    },
    {
      "inputs": [
        {
          "internalType": "bytes32",
          "name": "role",
          "type": "bytes32"
        }
      ],
      "name": "getRoleAdmin",
      "outputs": [
        {
          "internalType": "bytes32",
          "name": "",
          "type": "bytes32"
        }
      ],
      "stateMutability": "view",
      "type": "function"
    },
    {
      "inputs": [
        {
          "internalType": "bytes32",
          "name": "role",
          "type": "bytes32"
        },
        {
          "internalType": "address",
          "name": "account",
          "type": "address"
        }
      ],
      "name": "grantRole",
      "outputs": [],
      "stateMutability": "nonpayable",
      "type": "function"
    },
    {
      "inputs": [
        {
          "internalType": "bytes32",
          "name": "role",
          "type": "bytes32"
        },
        {
          "internalType": "address",
          "name": "account",
          "type": "address"
        }
      ],
      "name": "hasRole",
      "outputs": [
        {
          "internalType": "bool",
          "name": "",
          "type": "bool"
        }
      ],
      "stateMutability": "view",
      "type": "function"
    },
    {
      "inputs": [
        {
          "internalType": "bytes32",
          "name": "role",
          "type": "bytes32"
        },
        {
          "internalType": "address",
          "name": "account",
          "type": "address"
        }
      ],
      "name": "hasRoleWithSwitch",
      "outputs": [
        {
          "internalType": "bool",
          "name": "",
          "type": "bool"
        }
      ],
      "stateMutability": "view",
      "type": "function"
    },
    {
      "inputs": [
        {
          "internalType": "bytes32",
          "name": "role",
          "type": "bytes32"
        },
        {
          "internalType": "address",
          "name": "account",
          "type": "address"
        }
      ],
      "name": "renounceRole",
      "outputs": [],
      "stateMutability": "nonpayable",
      "type": "function"
    },
    {
      "inputs": [
        {
          "internalType": "bytes32",
          "name": "role",
          "type": "bytes32"
        },
        {
          "internalType": "address",
          "name": "account",
          "type": "address"
        }
      ],
      "name": "revokeRole",
      "outputs": [],
      "stateMutability": "nonpayable",
      "type": "function"
    },
    {
      "inputs": [
        {
          "internalType": "uint256",
          "name": "id",
          "type": "uint256"
        },
        {
          "internalType": "string",
          "name": "description",
          "type": "string"
        }
      ],
      "name": "updateCaseDescription",
      "outputs": [],
      "stateMutability": "nonpayable",
      "type": "function"
    },
    {
      "inputs": [
        {
          "internalType": "uint256",
          "name": "id",
          "type": "uint256"
        },
        {
          "internalType": "uint256",
          "name": "nextHearing",
          "type": "uint256"
        }
      ],
      "name": "updateNextHearing",
      "outputs": [],
      "stateMutability": "nonpayable",
      "type": "function"
    },
    {
      "inputs": [
        {
          "internalType": "string",
          "name": "avatar",
          "type": "string"
        }
      ],
      "name": "updateUserAvatar",
      "outputs": [],
      "stateMutability": "nonpayable",
      "type": "function"
    },
    {
      "inputs": [
        {
          "internalType": "string",
          "name": "bio",
          "type": "string"
        }
      ],
      "name": "updateUserBio",
      "outputs": [],
      "stateMutability": "nonpayable",
      "type": "function"
    },
    {
      "inputs": [
        {
          "internalType": "string",
          "name": "email",
          "type": "string"
        }
      ],
      "name": "updateUserEmail",
      "outputs": [],
      "stateMutability": "nonpayable",
      "type": "function"
    },
    {
      "inputs": [
        {
          "internalType": "string",
          "name": "location",
          "type": "string"
        }
      ],
      "name": "updateUserLocation",
      "outputs": [],
      "stateMutability": "nonpayable",
      "type": "function"
    },
    {
      "inputs": [
        {
          "internalType": "string",
          "name": "name",
          "type": "string"
        }
      ],
      "name": "updateUserName",
      "outputs": [],
      "stateMutability": "nonpayable",
      "type": "function"
    },
    {
      "inputs": [
        {
          "internalType": "string",
          "name": "username",
          "type": "string"
        }
      ],
      "name": "updateUserUsername",
      "outputs": [],
      "stateMutability": "nonpayable",
      "type": "function"
    },
    {
      "inputs": [
        {
          "internalType": "address",
          "name": "",
          "type": "address"
        }
      ],
      "name": "users",
      "outputs": [
        {
          "internalType": "string",
          "name": "name",
          "type": "string"
        },
        {
          "internalType": "string",
          "name": "username",
          "type": "string"
        },
        {
          "internalType": "string",
          "name": "avatar",
          "type": "string"
        },
        {
          "internalType": "string",
          "name": "bio",
          "type": "string"
        },
        {
          "internalType": "string",
          "name": "location",
          "type": "string"
        },
        {
          "internalType": "string",
          "name": "email",
          "type": "string"
        }
      ],
      "stateMutability": "view",
      "type": "function"
    }
  ],
  "bytecode": "0x60806040523480156200001157600080fd5b50620000276000801b336200002d60201b60201c565b620000f4565b600160008084815260200190815260200160002060008373ffffffffffffffffffffffffffffffffffffffff1673ffffffffffffffffffffffffffffffffffffffff16815260200190815260200160002060006101000a81548160ff0219169083151502179055503373ffffffffffffffffffffffffffffffffffffffff168173ffffffffffffffffffffffffffffffffffffffff16837f2f8788117e7eff1d82e926ec794901d17c78024a50270940304540a733656f0d60405160405180910390a45050565b615f7180620001046000396000f3fe608060405234801561001057600080fd5b50600436106102325760003560e01c80639079b5c511610130578063aaa536f4116100b8578063bf97c2bd1161007c578063bf97c2bd14610642578063d547741f14610660578063da2d7e951461067c578063e8db61bb1461069a578063f09790dd146106b857610232565b8063aaa536f4146105b6578063af9036a1146105d2578063b5712f1f146105ee578063b6306af41461060a578063be2bb3501461062657610232565b8063a217fddf116100ff578063a217fddf146104f9578063a28a454814610517578063a32fa5b314610533578063a5b16b2e14610563578063a87430ba1461058157610232565b80639079b5c51461047357806391d148541461048f578063927cab47146104bf5780639c0574f3146104db57610232565b80633ffad912116101be5780635a724ef0116101825780635a724ef0146103d35780635fe73215146103ef57806369e354a71461040b578063735d9fbb1461043b5780638d97d5061461045757610232565b80633ffad912146103475780634081b9341461036357806344fa961d1461037f5780634522e4311461039b578063470d3b4c146103b757610232565b80632e5ff4da116102055780632e5ff4da146102bb5780632f2ff15d146102d757806336568abe146102f357806337683eb81461030f578063386f8fe71461032b57610232565b806301dadb2b14610237578063064e0e58146102535780630fc3c8b21461026f578063248a9ca31461028b575b600080fd5b610251600480360381019061024c9190613c48565b6106f0565b005b61026d60048036038101906102689190613d7d565b610999565b005b61028960048036038101906102849190613e24565b610a78565b005b6102a560048036038101906102a09190613e87565b610af1565b6040516102b29190613ec3565b60405180910390f35b6102d560048036038101906102d09190613d7d565b610b0e565b005b6102f160048036038101906102ec9190613ede565b610bed565b005b61030d60048036038101906103089190613ede565b610cb5565b005b61032960048036038101906103249190613f54565b610d31565b005b61034560048036038101906103409190613f94565b610edf565b005b610361600480360381019061035c919061401f565b61126c565b005b61037d6004803603810190610378919061404c565b61144e565b005b61039960048036038101906103949190613e24565b6115a7565b005b6103b560048036038101906103b0919061408c565b611620565b005b6103d160048036038101906103cc9190613d7d565b6119c1565b005b6103ed60048036038101906103e89190613e24565b611aa0565b005b61040960048036038101906104049190613d7d565b611b19565b005b6104256004803603810190610420919061401f565b611bf8565b604051610432919061415e565b60405180910390f35b61045560048036038101906104509190613f54565b611e46565b005b610471600480360381019061046c919061408c565b612128565b005b61048d60048036038101906104889190613e24565b61233b565b005b6104a960048036038101906104a49190613ede565b6123b4565b6040516104b6919061419b565b60405180910390f35b6104d960048036038101906104d49190613e24565b61241b565b005b6104e3612494565b6040516104f09190613ec3565b60405180910390f35b6105016124b8565b60405161050e9190613ec3565b60405180910390f35b610531600480360381019061052c9190613d7d565b6124bf565b005b61054d60048036038101906105489190613ede565b61262f565b60405161055a919061419b565b60405180910390f35b61056b612701565b60405161057891906141c5565b60405180910390f35b61059b60048036038101906105969190613e24565b612707565b6040516105ad969594939291906141e0565b60405180910390f35b6105d060048036038101906105cb919061426b565b612a73565b005b6105ec60048036038101906105e79190613d7d565b612dcd565b005b6106086004803603810190610603919061404c565b612eac565b005b610624600480360381019061061f9190613e24565b613136565b005b610640600480360381019061063b91906142da565b6131af565b005b61064a613342565b6040516106579190613ec3565b60405180910390f35b61067a60048036038101906106759190613ede565b613366565b005b610684613391565b60405161069191906141c5565b60405180910390f35b6106a2613397565b6040516106af9190613ec3565b60405180910390f35b6106d260048036038101906106cd919061401f565b6133bb565b6040516106e7999897969594939291906143bc565b60405180910390f35b6000600260003373ffffffffffffffffffffffffffffffffffffffff1673ffffffffffffffffffffffffffffffffffffffff168152602001908152602001600020600101805461073f9061447f565b905014610781576040517f08c379a0000000000000000000000000000000000000000000000000000000008152600401610778906144fc565b60405180910390fd5b6000600260003373ffffffffffffffffffffffffffffffffffffffff1673ffffffffffffffffffffffffffffffffffffffff16815260200190815260200160002060010180546107d09061447f565b905014610812576040517f08c379a000000000000000000000000000000000000000000000000000000000815260040161080990614568565b60405180910390fd5b6040518060c0016040528087815260200186815260200185815260200184815260200183815260200182815250600260003373ffffffffffffffffffffffffffffffffffffffff1673ffffffffffffffffffffffffffffffffffffffff16815260200190815260200160002060008201518160000190816108939190614734565b5060208201518160010190816108a99190614734565b5060408201518160020190816108bf9190614734565b5060608201518160030190816108d59190614734565b5060808201518160040190816108eb9190614734565b5060a08201518160050190816109019190614734565b509050503373ffffffffffffffffffffffffffffffffffffffff167f9cc4cf5bb33683f960046cee1f7588a07d47fdd2d774b48920524a15b2069f54600260003373ffffffffffffffffffffffffffffffffffffffff1673ffffffffffffffffffffffffffffffffffffffff1681526020019081526020016000206040516109899190614943565b60405180910390a2505050505050565b80600260003373ffffffffffffffffffffffffffffffffffffffff1673ffffffffffffffffffffffffffffffffffffffff16815260200190815260200160002060030190816109e89190614734565b503373ffffffffffffffffffffffffffffffffffffffff167ff12465ed0fb713415cff89dd51510fda6b6eba598e2fa46ec320b0219e549a62600260003373ffffffffffffffffffffffffffffffffffffffff1673ffffffffffffffffffffffffffffffffffffffff168152602001908152602001600020604051610a6d9190614943565b60405180910390a250565b610a856000801b336123b4565b610ac4576040517f08c379a0000000000000000000000000000000000000000000000000000000008152600401610abb906149d7565b60405180910390fd5b610aee7f3420d2a02f28e92b971806872c4fa85469cb08e4ff28a33001ea8f96d6f4025a82613366565b50565b600060016000838152602001908152602001600020549050919050565b80600260003373ffffffffffffffffffffffffffffffffffffffff1673ffffffffffffffffffffffffffffffffffffffff1681526020019081526020016000206002019081610b5d9190614734565b503373ffffffffffffffffffffffffffffffffffffffff167ff12465ed0fb713415cff89dd51510fda6b6eba598e2fa46ec320b0219e549a62600260003373ffffffffffffffffffffffffffffffffffffffff1673ffffffffffffffffffffffffffffffffffffffff168152602001908152602001600020604051610be29190614943565b60405180910390a250565b610c0a6001600084815260200190815260200160002054336134de565b60008083815260200190815260200160002060008273ffffffffffffffffffffffffffffffffffffffff1673ffffffffffffffffffffffffffffffffffffffff16815260200190815260200160002060009054906101000a900460ff1615610ca7576040517f08c379a0000000000000000000000000000000000000000000000000000000008152600401610c9e90614a43565b60405180910390fd5b610cb182826135ce565b5050565b8073ffffffffffffffffffffffffffffffffffffffff163373ffffffffffffffffffffffffffffffffffffffff1614610d23576040517f08c379a0000000000000000000000000000000000000000000000000000000008152600401610d1a90614aaf565b60405180910390fd5b610d2d8282613695565b5050565b60006003600084815260200190815260200160002090503373ffffffffffffffffffffffffffffffffffffffff168160020160019054906101000a900473ffffffffffffffffffffffffffffffffffffffff1673ffffffffffffffffffffffffffffffffffffffff1614610dda576040517f08c379a0000000000000000000000000000000000000000000000000000000008152600401610dd190614b41565b60405180910390fd5b80600901829080600181540180825580915050600190039060005260206000200160009091909190916101000a81548173ffffffffffffffffffffffffffffffffffffffff021916908373ffffffffffffffffffffffffffffffffffffffff160217905550428160050181905550338160060160006101000a81548173ffffffffffffffffffffffffffffffffffffffff021916908373ffffffffffffffffffffffffffffffffffffffff1602179055503373ffffffffffffffffffffffffffffffffffffffff16837f9b6a6e8fb680032b5e363d78ba0b4ce647f5623d5d6868b57803dcc3cb75eb3183604051610ed29190614f2d565b60405180910390a3505050565b60006003600085815260200190815260200160002090506000805b8260090180549050811015610f98573373ffffffffffffffffffffffffffffffffffffffff16836009018281548110610f3657610f35614f4f565b5b9060005260206000200160009054906101000a900473ffffffffffffffffffffffffffffffffffffffff1673ffffffffffffffffffffffffffffffffffffffff1603610f855760019150610f98565b8080610f9090614fad565b915050610efa565b503373ffffffffffffffffffffffffffffffffffffffff168260020160019054906101000a900473ffffffffffffffffffffffffffffffffffffffff1673ffffffffffffffffffffffffffffffffffffffff161480610ff45750805b611033576040517f08c379a000000000000000000000000000000000000000000000000000000000815260040161102a90615067565b60405180910390fd5b60006040518060c001604052806006548152602001868152602001858152602001600067ffffffffffffffff81111561106f5761106e613b1d565b5b60405190808252806020026020018201604052801561109d5781602001602082028036833780820191505090505b5081526020014281526020013373ffffffffffffffffffffffffffffffffffffffff168152509050806004600060065481526020019081526020016000206000820151816000015560208201518160010190816110fa9190614734565b5060408201518160020190816111109190614734565b50606082015181600301908051906020019061112d929190613999565b506080820151816004015560a08201518160050160006101000a81548173ffffffffffffffffffffffffffffffffffffffff021916908373ffffffffffffffffffffffffffffffffffffffff1602179055509050506006600081548092919061119590614fad565b91905055508260080181600001519080600181540180825580915050600190039060005260206000200160009091909190915055428360050181905550338360060160006101000a81548173ffffffffffffffffffffffffffffffffffffffff021916908373ffffffffffffffffffffffffffffffffffffffff1602179055503373ffffffffffffffffffffffffffffffffffffffff16867f9b6a6e8fb680032b5e363d78ba0b4ce647f5623d5d6868b57803dcc3cb75eb318560405161125c9190614f2d565b60405180910390a3505050505050565b6112967f314036e221c52b2e9bffe531890cefb6b09cd8682ad89fc9f25d863bad9622a6336123b4565b806112c757506112c67fbf8b635bcfcd8642c9b343eafd77cdb76547a8c3ff41e4316e9996047ad954b8336123b4565b5b611306576040517f08c379a00000000000000000000000000000000000000000000000000000000081526004016112fd906150f9565b60405180910390fd5b6000600181111561131a57611319614336565b5b6003600083815260200190815260200160002060020160009054906101000a900460ff1660018111156113505761134f614336565b5b14611390576040517f08c379a000000000000000000000000000000000000000000000000000000000815260040161138790615165565b60405180910390fd5b60016003600083815260200190815260200160002060020160006101000a81548160ff021916908360018111156113ca576113c9614336565b5b02179055504260036000838152602001908152602001600020600401819055503373ffffffffffffffffffffffffffffffffffffffff16817f5929886f02db1e3db5cd7195cf9c452e7740e10ea5326a07c1dba33f367473a26003600085815260200190815260200160002060405161144391906152cf565b60405180910390a350565b6114787fbf8b635bcfcd8642c9b343eafd77cdb76547a8c3ff41e4316e9996047ad954b8336123b4565b6114b7576040517f08c379a00000000000000000000000000000000000000000000000000000000081526004016114ae90615363565b60405180910390fd5b806003600084815260200190815260200160002060070181905550426003600084815260200190815260200160002060050181905550336003600084815260200190815260200160002060060160006101000a81548173ffffffffffffffffffffffffffffffffffffffff021916908373ffffffffffffffffffffffffffffffffffffffff1602179055503373ffffffffffffffffffffffffffffffffffffffff16827f9b6a6e8fb680032b5e363d78ba0b4ce647f5623d5d6868b57803dcc3cb75eb316003600086815260200190815260200160002060405161159b91906152cf565b60405180910390a35050565b6115b46000801b336123b4565b6115f3576040517f08c379a00000000000000000000000000000000000000000000000000000000081526004016115ea906153f5565b60405180910390fd5b61161d7f314036e221c52b2e9bffe531890cefb6b09cd8682ad89fc9f25d863bad9622a682613366565b50565b60006003600085815260200190815260200160002090503373ffffffffffffffffffffffffffffffffffffffff168160020160019054906101000a900473ffffffffffffffffffffffffffffffffffffffff1673ffffffffffffffffffffffffffffffffffffffff16146116c9576040517f08c379a00000000000000000000000000000000000000000000000000000000081526004016116c090615487565b60405180910390fd5b60005b816008018054905081101561191f57838260080182815481106116f2576116f1614f4f565b5b90600052602060002001540361190c5760005b6004600086815260200190815260200160002060030180549050811015611906578373ffffffffffffffffffffffffffffffffffffffff1660046000878152602001908152602001600020600301828154811061176557611764614f4f565b5b9060005260206000200160009054906101000a900473ffffffffffffffffffffffffffffffffffffffff1673ffffffffffffffffffffffffffffffffffffffff16036118f35760046000868152602001908152602001600020600301600160046000888152602001908152602001600020600301805490506117e791906154a7565b815481106117f8576117f7614f4f565b5b9060005260206000200160009054906101000a900473ffffffffffffffffffffffffffffffffffffffff1660046000878152602001908152602001600020600301828154811061184b5761184a614f4f565b5b9060005260206000200160006101000a81548173ffffffffffffffffffffffffffffffffffffffff021916908373ffffffffffffffffffffffffffffffffffffffff160217905550600460008681526020019081526020016000206003018054806118b9576118b86154db565b5b6001900381819060005260206000200160006101000a81549073ffffffffffffffffffffffffffffffffffffffff02191690559055611906565b80806118fe90614fad565b915050611705565b5061191f565b808061191790614fad565b9150506116cc565b50428160050181905550338160060160006101000a81548173ffffffffffffffffffffffffffffffffffffffff021916908373ffffffffffffffffffffffffffffffffffffffff1602179055503373ffffffffffffffffffffffffffffffffffffffff16847f9b6a6e8fb680032b5e363d78ba0b4ce647f5623d5d6868b57803dcc3cb75eb31836040516119b39190614f2d565b60405180910390a350505050565b80600260003373ffffffffffffffffffffffffffffffffffffffff1673ffffffffffffffffffffffffffffffffffffffff1681526020019081526020016000206005019081611a109190614734565b503373ffffffffffffffffffffffffffffffffffffffff167ff12465ed0fb713415cff89dd51510fda6b6eba598e2fa46ec320b0219e549a62600260003373ffffffffffffffffffffffffffffffffffffffff1673ffffffffffffffffffffffffffffffffffffffff168152602001908152602001600020604051611a959190614943565b60405180910390a250565b611aad6000801b336123b4565b611aec576040517f08c379a0000000000000000000000000000000000000000000000000000000008152600401611ae39061557c565b60405180910390fd5b611b167f314036e221c52b2e9bffe531890cefb6b09cd8682ad89fc9f25d863bad9622a6826135ce565b50565b80600260003373ffffffffffffffffffffffffffffffffffffffff1673ffffffffffffffffffffffffffffffffffffffff1681526020019081526020016000206004019081611b689190614734565b503373ffffffffffffffffffffffffffffffffffffffff167ff12465ed0fb713415cff89dd51510fda6b6eba598e2fa46ec320b0219e549a62600260003373ffffffffffffffffffffffffffffffffffffffff1673ffffffffffffffffffffffffffffffffffffffff168152602001908152602001600020604051611bed9190614943565b60405180910390a250565b606060006004600084815260200190815260200160002090506000805b8260030180549050811015611cb3573373ffffffffffffffffffffffffffffffffffffffff16836003018281548110611c5157611c50614f4f565b5b9060005260206000200160009054906101000a900473ffffffffffffffffffffffffffffffffffffffff1673ffffffffffffffffffffffffffffffffffffffff1603611ca05760019150611cb3565b8080611cab90614fad565b915050611c15565b508160050160009054906101000a900473ffffffffffffffffffffffffffffffffffffffff1673ffffffffffffffffffffffffffffffffffffffff163373ffffffffffffffffffffffffffffffffffffffff161480611d0f5750805b80611d405750611d3f7fbf8b635bcfcd8642c9b343eafd77cdb76547a8c3ff41e4316e9996047ad954b8336123b4565b5b80611d715750611d707f3420d2a02f28e92b971806872c4fa85469cb08e4ff28a33001ea8f96d6f4025a336123b4565b5b611db0576040517f08c379a0000000000000000000000000000000000000000000000000000000008152600401611da79061560e565b60405180910390fd5b816002018054611dbf9061447f565b80601f0160208091040260200160405190810160405280929190818152602001828054611deb9061447f565b8015611e385780601f10611e0d57610100808354040283529160200191611e38565b820191906000526020600020905b815481529060010190602001808311611e1b57829003601f168201915b505050505092505050919050565b60006003600084815260200190815260200160002090503373ffffffffffffffffffffffffffffffffffffffff168160020160019054906101000a900473ffffffffffffffffffffffffffffffffffffffff1673ffffffffffffffffffffffffffffffffffffffff1614611eef576040517f08c379a0000000000000000000000000000000000000000000000000000000008152600401611ee6906156a0565b60405180910390fd5b60005b8160090180549050811015612087578273ffffffffffffffffffffffffffffffffffffffff16826009018281548110611f2e57611f2d614f4f565b5b9060005260206000200160009054906101000a900473ffffffffffffffffffffffffffffffffffffffff1673ffffffffffffffffffffffffffffffffffffffff1603612074578160090160018360090180549050611f8c91906154a7565b81548110611f9d57611f9c614f4f565b5b9060005260206000200160009054906101000a900473ffffffffffffffffffffffffffffffffffffffff16826009018281548110611fde57611fdd614f4f565b5b9060005260206000200160006101000a81548173ffffffffffffffffffffffffffffffffffffffff021916908373ffffffffffffffffffffffffffffffffffffffff1602179055508160090180548061203a576120396154db565b5b6001900381819060005260206000200160006101000a81549073ffffffffffffffffffffffffffffffffffffffff02191690559055612087565b808061207f90614fad565b915050611ef2565b50428160050181905550338160060160006101000a81548173ffffffffffffffffffffffffffffffffffffffff021916908373ffffffffffffffffffffffffffffffffffffffff1602179055503373ffffffffffffffffffffffffffffffffffffffff16837f9b6a6e8fb680032b5e363d78ba0b4ce647f5623d5d6868b57803dcc3cb75eb318360405161211b9190614f2d565b60405180910390a3505050565b60006003600085815260200190815260200160002090503373ffffffffffffffffffffffffffffffffffffffff168160020160019054906101000a900473ffffffffffffffffffffffffffffffffffffffff1673ffffffffffffffffffffffffffffffffffffffff16146121d1576040517f08c379a00000000000000000000000000000000000000000000000000000000081526004016121c890615732565b60405180910390fd5b60005b816008018054905081101561229957838260080182815481106121fa576121f9614f4f565b5b9060005260206000200154036122865760046000858152602001908152602001600020600301839080600181540180825580915050600190039060005260206000200160009091909190916101000a81548173ffffffffffffffffffffffffffffffffffffffff021916908373ffffffffffffffffffffffffffffffffffffffff160217905550612299565b808061229190614fad565b9150506121d4565b50428160050181905550338160060160006101000a81548173ffffffffffffffffffffffffffffffffffffffff021916908373ffffffffffffffffffffffffffffffffffffffff1602179055503373ffffffffffffffffffffffffffffffffffffffff16847f9b6a6e8fb680032b5e363d78ba0b4ce647f5623d5d6868b57803dcc3cb75eb318360405161232d9190614f2d565b60405180910390a350505050565b6123486000801b336123b4565b612387576040517f08c379a000000000000000000000000000000000000000000000000000000000815260040161237e906157c4565b60405180910390fd5b6123b17fbf8b635bcfcd8642c9b343eafd77cdb76547a8c3ff41e4316e9996047ad954b882613366565b50565b600080600084815260200190815260200160002060008373ffffffffffffffffffffffffffffffffffffffff1673ffffffffffffffffffffffffffffffffffffffff16815260200190815260200160002060009054906101000a900460ff16905092915050565b6124286000801b336123b4565b612467576040517f08c379a000000000000000000000000000000000000000000000000000000000815260040161245e90615856565b60405180910390fd5b6124917fbf8b635bcfcd8642c9b343eafd77cdb76547a8c3ff41e4316e9996047ad954b8826135ce565b50565b7f314036e221c52b2e9bffe531890cefb6b09cd8682ad89fc9f25d863bad9622a681565b6000801b81565b6000600260003373ffffffffffffffffffffffffffffffffffffffff1673ffffffffffffffffffffffffffffffffffffffff168152602001908152602001600020600101805461250e9061447f565b905014612550576040517f08c379a000000000000000000000000000000000000000000000000000000000815260040161254790614568565b60405180910390fd5b80600260003373ffffffffffffffffffffffffffffffffffffffff1673ffffffffffffffffffffffffffffffffffffffff168152602001908152602001600020600101908161259f9190614734565b503373ffffffffffffffffffffffffffffffffffffffff167ff12465ed0fb713415cff89dd51510fda6b6eba598e2fa46ec320b0219e549a62600260003373ffffffffffffffffffffffffffffffffffffffff1673ffffffffffffffffffffffffffffffffffffffff1681526020019081526020016000206040516126249190614943565b60405180910390a250565b600080600084815260200190815260200160002060008073ffffffffffffffffffffffffffffffffffffffff1673ffffffffffffffffffffffffffffffffffffffff16815260200190815260200160002060009054906101000a900460ff166126f65760008084815260200190815260200160002060008373ffffffffffffffffffffffffffffffffffffffff1673ffffffffffffffffffffffffffffffffffffffff16815260200190815260200160002060009054906101000a900460ff1690506126fb565b600190505b92915050565b60065481565b600260205280600052604060002060009150905080600001805461272a9061447f565b80601f01602080910402602001604051908101604052809291908181526020018280546127569061447f565b80156127a35780601f10612778576101008083540402835291602001916127a3565b820191906000526020600020905b81548152906001019060200180831161278657829003601f168201915b5050505050908060010180546127b89061447f565b80601f01602080910402602001604051908101604052809291908181526020018280546127e49061447f565b80156128315780601f1061280657610100808354040283529160200191612831565b820191906000526020600020905b81548152906001019060200180831161281457829003601f168201915b5050505050908060020180546128469061447f565b80601f01602080910402602001604051908101604052809291908181526020018280546128729061447f565b80156128bf5780601f10612894576101008083540402835291602001916128bf565b820191906000526020600020905b8154815290600101906020018083116128a257829003601f168201915b5050505050908060030180546128d49061447f565b80601f01602080910402602001604051908101604052809291908181526020018280546129009061447f565b801561294d5780601f106129225761010080835404028352916020019161294d565b820191906000526020600020905b81548152906001019060200180831161293057829003601f168201915b5050505050908060040180546129629061447f565b80601f016020809104026020016040519081016040528092919081815260200182805461298e9061447f565b80156129db5780601f106129b0576101008083540402835291602001916129db565b820191906000526020600020905b8154815290600101906020018083116129be57829003601f168201915b5050505050908060050180546129f09061447f565b80601f0160208091040260200160405190810160405280929190818152602001828054612a1c9061447f565b8015612a695780601f10612a3e57610100808354040283529160200191612a69565b820191906000526020600020905b815481529060010190602001808311612a4c57829003601f168201915b5050505050905086565b612a9d7f314036e221c52b2e9bffe531890cefb6b09cd8682ad89fc9f25d863bad9622a6336123b4565b612adc576040517f08c379a0000000000000000000000000000000000000000000000000000000008152600401612ad3906158e8565b60405180910390fd5b6000604051806101600160405280600554815260200185815260200160006001811115612b0c57612b0b614336565b5b81526020018473ffffffffffffffffffffffffffffffffffffffff168152602001428152602001600081526020014281526020013373ffffffffffffffffffffffffffffffffffffffff168152602001838152602001600067ffffffffffffffff811115612b7d57612b7c613b1d565b5b604051908082528060200260200182016040528015612bab5781602001602082028036833780820191505090505b508152602001600067ffffffffffffffff811115612bcc57612bcb613b1d565b5b604051908082528060200260200182016040528015612bfa5781602001602082028036833780820191505090505b50815250905080600360006005548152602001908152602001600020600082015181600001556020820151816001019081612c359190614734565b5060408201518160020160006101000a81548160ff02191690836001811115612c6157612c60614336565b5b021790555060608201518160020160016101000a81548173ffffffffffffffffffffffffffffffffffffffff021916908373ffffffffffffffffffffffffffffffffffffffff1602179055506080820151816003015560a0820151816004015560c0820151816005015560e08201518160060160006101000a81548173ffffffffffffffffffffffffffffffffffffffff021916908373ffffffffffffffffffffffffffffffffffffffff1602179055506101008201518160070155610120820151816008019080519060200190612d3a929190613a23565b50610140820151816009019080519060200190612d58929190613999565b5090505060056000815480929190612d6f90614fad565b91905055503373ffffffffffffffffffffffffffffffffffffffff1681600001517f8be421981ddf495943cb2795a688edb49cec6f69cfd7640ca308a70e894bf7d183604051612dbf9190615b4a565b60405180910390a350505050565b80600260003373ffffffffffffffffffffffffffffffffffffffff1673ffffffffffffffffffffffffffffffffffffffff1681526020019081526020016000206000019081612e1c9190614734565b503373ffffffffffffffffffffffffffffffffffffffff167ff12465ed0fb713415cff89dd51510fda6b6eba598e2fa46ec320b0219e549a62600260003373ffffffffffffffffffffffffffffffffffffffff1673ffffffffffffffffffffffffffffffffffffffff168152602001908152602001600020604051612ea19190614943565b60405180910390a250565b600060036000848152602001908152602001600020905060006004600084815260200190815260200160002090506000805b8260030180549050811015612f7c573373ffffffffffffffffffffffffffffffffffffffff16836003018281548110612f1a57612f19614f4f565b5b9060005260206000200160009054906101000a900473ffffffffffffffffffffffffffffffffffffffff1673ffffffffffffffffffffffffffffffffffffffff1603612f695760019150612f7c565b8080612f7490614fad565b915050612ede565b503373ffffffffffffffffffffffffffffffffffffffff168360020160019054906101000a900473ffffffffffffffffffffffffffffffffffffffff1673ffffffffffffffffffffffffffffffffffffffff161480612fd85750805b613017576040517f08c379a000000000000000000000000000000000000000000000000000000000815260040161300e90615bde565b60405180910390fd5b600460008581526020019081526020016000206000808201600090556001820160006130439190613a70565b6002820160006130539190613a70565b6003820160006130639190613ab0565b60048201600090556005820160006101000a81549073ffffffffffffffffffffffffffffffffffffffff02191690555050428360050181905550338360060160006101000a81548173ffffffffffffffffffffffffffffffffffffffff021916908373ffffffffffffffffffffffffffffffffffffffff1602179055503373ffffffffffffffffffffffffffffffffffffffff16857f9b6a6e8fb680032b5e363d78ba0b4ce647f5623d5d6868b57803dcc3cb75eb31856040516131279190614f2d565b60405180910390a35050505050565b6131436000801b336123b4565b613182576040517f08c379a000000000000000000000000000000000000000000000000000000000815260040161317990615c70565b60405180910390fd5b6131ac7f3420d2a02f28e92b971806872c4fa85469cb08e4ff28a33001ea8f96d6f4025a826135ce565b50565b6131d97f314036e221c52b2e9bffe531890cefb6b09cd8682ad89fc9f25d863bad9622a6336123b4565b8061320a57506132097fbf8b635bcfcd8642c9b343eafd77cdb76547a8c3ff41e4316e9996047ad954b8336123b4565b5b613249576040517f08c379a000000000000000000000000000000000000000000000000000000000815260040161324090615d02565b60405180910390fd5b8060036000848152602001908152602001600020600101908161326c9190614734565b50426003600084815260200190815260200160002060050181905550336003600084815260200190815260200160002060060160006101000a81548173ffffffffffffffffffffffffffffffffffffffff021916908373ffffffffffffffffffffffffffffffffffffffff1602179055503373ffffffffffffffffffffffffffffffffffffffff16827f9b6a6e8fb680032b5e363d78ba0b4ce647f5623d5d6868b57803dcc3cb75eb316003600086815260200190815260200160002060405161333691906152cf565b60405180910390a35050565b7f3420d2a02f28e92b971806872c4fa85469cb08e4ff28a33001ea8f96d6f4025a81565b6133836001600084815260200190815260200160002054336134de565b61338d8282613695565b5050565b60055481565b7fbf8b635bcfcd8642c9b343eafd77cdb76547a8c3ff41e4316e9996047ad954b881565b60036020528060005260406000206000915090508060000154908060010180546133e49061447f565b80601f01602080910402602001604051908101604052809291908181526020018280546134109061447f565b801561345d5780601f106134325761010080835404028352916020019161345d565b820191906000526020600020905b81548152906001019060200180831161344057829003601f168201915b5050505050908060020160009054906101000a900460ff16908060020160019054906101000a900473ffffffffffffffffffffffffffffffffffffffff16908060030154908060040154908060050154908060060160009054906101000a900473ffffffffffffffffffffffffffffffffffffffff16908060070154905089565b60008083815260200190815260200160002060008273ffffffffffffffffffffffffffffffffffffffff1673ffffffffffffffffffffffffffffffffffffffff16815260200190815260200160002060009054906101000a900460ff166135ca576135608173ffffffffffffffffffffffffffffffffffffffff16601461375d565b61356e8360001c602061375d565b60405160200161357f929190615df6565b6040516020818303038152906040526040517f08c379a00000000000000000000000000000000000000000000000000000000081526004016135c1919061415e565b60405180910390fd5b5050565b600160008084815260200190815260200160002060008373ffffffffffffffffffffffffffffffffffffffff1673ffffffffffffffffffffffffffffffffffffffff16815260200190815260200160002060006101000a81548160ff0219169083151502179055503373ffffffffffffffffffffffffffffffffffffffff168173ffffffffffffffffffffffffffffffffffffffff16837f2f8788117e7eff1d82e926ec794901d17c78024a50270940304540a733656f0d60405160405180910390a45050565b61369f82826134de565b60008083815260200190815260200160002060008273ffffffffffffffffffffffffffffffffffffffff1673ffffffffffffffffffffffffffffffffffffffff16815260200190815260200160002060006101000a81549060ff02191690553373ffffffffffffffffffffffffffffffffffffffff168173ffffffffffffffffffffffffffffffffffffffff16837ff6391f5c32d9c69d2a47ea670b442974b53935d1edc7fd64eb21e047a839171b60405160405180910390a45050565b6060600060028360026137709190615e30565b61377a9190615e72565b67ffffffffffffffff81111561379357613792613b1d565b5b6040519080825280601f01601f1916602001820160405280156137c55781602001600182028036833780820191505090505b5090507f3000000000000000000000000000000000000000000000000000000000000000816000815181106137fd576137fc614f4f565b5b60200101907effffffffffffffffffffffffffffffffffffffffffffffffffffffffffffff1916908160001a9053507f78000000000000000000000000000000000000000000000000000000000000008160018151811061386157613860614f4f565b5b60200101907effffffffffffffffffffffffffffffffffffffffffffffffffffffffffffff1916908160001a905350600060018460026138a19190615e30565b6138ab9190615e72565b90505b600181111561394b577f3031323334353637383961626364656600000000000000000000000000000000600f8616601081106138ed576138ec614f4f565b5b1a60f81b82828151811061390457613903614f4f565b5b60200101907effffffffffffffffffffffffffffffffffffffffffffffffffffffffffffff1916908160001a905350600485901c94508061394490615ea6565b90506138ae565b506000841461398f576040517f08c379a000000000000000000000000000000000000000000000000000000000815260040161398690615f1b565b60405180910390fd5b8091505092915050565b828054828255906000526020600020908101928215613a12579160200282015b82811115613a115782518260006101000a81548173ffffffffffffffffffffffffffffffffffffffff021916908373ffffffffffffffffffffffffffffffffffffffff160217905550916020019190600101906139b9565b5b509050613a1f9190613ad1565b5090565b828054828255906000526020600020908101928215613a5f579160200282015b82811115613a5e578251825591602001919060010190613a43565b5b509050613a6c9190613ad1565b5090565b508054613a7c9061447f565b6000825580601f10613a8e5750613aad565b601f016020900490600052602060002090810190613aac9190613ad1565b5b50565b5080546000825590600052602060002090810190613ace9190613ad1565b50565b5b80821115613aea576000816000905550600101613ad2565b5090565b6000604051905090565b600080fd5b600080fd5b600080fd5b600080fd5b6000601f19601f8301169050919050565b7f4e487b7100000000000000000000000000000000000000000000000000000000600052604160045260246000fd5b613b5582613b0c565b810181811067ffffffffffffffff82111715613b7457613b73613b1d565b5b80604052505050565b6000613b87613aee565b9050613b938282613b4c565b919050565b600067ffffffffffffffff821115613bb357613bb2613b1d565b5b613bbc82613b0c565b9050602081019050919050565b82818337600083830152505050565b6000613beb613be684613b98565b613b7d565b905082815260208101848484011115613c0757613c06613b07565b5b613c12848285613bc9565b509392505050565b600082601f830112613c2f57613c2e613b02565b5b8135613c3f848260208601613bd8565b91505092915050565b60008060008060008060c08789031215613c6557613c64613af8565b5b600087013567ffffffffffffffff811115613c8357613c82613afd565b5b613c8f89828a01613c1a565b965050602087013567ffffffffffffffff811115613cb057613caf613afd565b5b613cbc89828a01613c1a565b955050604087013567ffffffffffffffff811115613cdd57613cdc613afd565b5b613ce989828a01613c1a565b945050606087013567ffffffffffffffff811115613d0a57613d09613afd565b5b613d1689828a01613c1a565b935050608087013567ffffffffffffffff811115613d3757613d36613afd565b5b613d4389828a01613c1a565b92505060a087013567ffffffffffffffff811115613d6457613d63613afd565b5b613d7089828a01613c1a565b9150509295509295509295565b600060208284031215613d9357613d92613af8565b5b600082013567ffffffffffffffff811115613db157613db0613afd565b5b613dbd84828501613c1a565b91505092915050565b600073ffffffffffffffffffffffffffffffffffffffff82169050919050565b6000613df182613dc6565b9050919050565b613e0181613de6565b8114613e0c57600080fd5b50565b600081359050613e1e81613df8565b92915050565b600060208284031215613e3a57613e39613af8565b5b6000613e4884828501613e0f565b91505092915050565b6000819050919050565b613e6481613e51565b8114613e6f57600080fd5b50565b600081359050613e8181613e5b565b92915050565b600060208284031215613e9d57613e9c613af8565b5b6000613eab84828501613e72565b91505092915050565b613ebd81613e51565b82525050565b6000602082019050613ed86000830184613eb4565b92915050565b60008060408385031215613ef557613ef4613af8565b5b6000613f0385828601613e72565b9250506020613f1485828601613e0f565b9150509250929050565b6000819050919050565b613f3181613f1e565b8114613f3c57600080fd5b50565b600081359050613f4e81613f28565b92915050565b60008060408385031215613f6b57613f6a613af8565b5b6000613f7985828601613f3f565b9250506020613f8a85828601613e0f565b9150509250929050565b600080600060608486031215613fad57613fac613af8565b5b6000613fbb86828701613f3f565b935050602084013567ffffffffffffffff811115613fdc57613fdb613afd565b5b613fe886828701613c1a565b925050604084013567ffffffffffffffff81111561400957614008613afd565b5b61401586828701613c1a565b9150509250925092565b60006020828403121561403557614034613af8565b5b600061404384828501613f3f565b91505092915050565b6000806040838503121561406357614062613af8565b5b600061407185828601613f3f565b925050602061408285828601613f3f565b9150509250929050565b6000806000606084860312156140a5576140a4613af8565b5b60006140b386828701613f3f565b93505060206140c486828701613f3f565b92505060406140d586828701613e0f565b9150509250925092565b600081519050919050565b600082825260208201905092915050565b60005b838110156141195780820151818401526020810190506140fe565b60008484015250505050565b6000614130826140df565b61413a81856140ea565b935061414a8185602086016140fb565b61415381613b0c565b840191505092915050565b600060208201905081810360008301526141788184614125565b905092915050565b60008115159050919050565b61419581614180565b82525050565b60006020820190506141b0600083018461418c565b92915050565b6141bf81613f1e565b82525050565b60006020820190506141da60008301846141b6565b92915050565b600060c08201905081810360008301526141fa8189614125565b9050818103602083015261420e8188614125565b905081810360408301526142228187614125565b905081810360608301526142368186614125565b9050818103608083015261424a8185614125565b905081810360a083015261425e8184614125565b9050979650505050505050565b60008060006060848603121561428457614283613af8565b5b600084013567ffffffffffffffff8111156142a2576142a1613afd565b5b6142ae86828701613c1a565b93505060206142bf86828701613e0f565b92505060406142d086828701613f3f565b9150509250925092565b600080604083850312156142f1576142f0613af8565b5b60006142ff85828601613f3f565b925050602083013567ffffffffffffffff8111156143205761431f613afd565b5b61432c85828601613c1a565b9150509250929050565b7f4e487b7100000000000000000000000000000000000000000000000000000000600052602160045260246000fd5b6002811061437657614375614336565b5b50565b600081905061438782614365565b919050565b600061439782614379565b9050919050565b6143a78161438c565b82525050565b6143b681613de6565b82525050565b6000610120820190506143d2600083018c6141b6565b81810360208301526143e4818b614125565b90506143f3604083018a61439e565b61440060608301896143ad565b61440d60808301886141b6565b61441a60a08301876141b6565b61442760c08301866141b6565b61443460e08301856143ad565b6144426101008301846141b6565b9a9950505050505050505050565b7f4e487b7100000000000000000000000000000000000000000000000000000000600052602260045260246000fd5b6000600282049050600182168061449757607f821691505b6020821081036144aa576144a9614450565b5b50919050565b7f5573657220616c72656164792065786973747300000000000000000000000000600082015250565b60006144e66013836140ea565b91506144f1826144b0565b602082019050919050565b60006020820190508181036000830152614515816144d9565b9050919050565b7f557365726e616d6520616c72656164792074616b656e00000000000000000000600082015250565b60006145526016836140ea565b915061455d8261451c565b602082019050919050565b6000602082019050818103600083015261458181614545565b9050919050565b60008190508160005260206000209050919050565b60006020601f8301049050919050565b600082821b905092915050565b6000600883026145ea7fffffffffffffffffffffffffffffffffffffffffffffffffffffffffffffffff826145ad565b6145f486836145ad565b95508019841693508086168417925050509392505050565b6000819050919050565b600061463161462c61462784613f1e565b61460c565b613f1e565b9050919050565b6000819050919050565b61464b83614616565b61465f61465782614638565b8484546145ba565b825550505050565b600090565b614674614667565b61467f818484614642565b505050565b5b818110156146a35761469860008261466c565b600181019050614685565b5050565b601f8211156146e8576146b981614588565b6146c28461459d565b810160208510156146d1578190505b6146e56146dd8561459d565b830182614684565b50505b505050565b600082821c905092915050565b600061470b600019846008026146ed565b1980831691505092915050565b600061472483836146fa565b9150826002028217905092915050565b61473d826140df565b67ffffffffffffffff81111561475657614755613b1d565b5b614760825461447f565b61476b8282856146a7565b600060209050601f83116001811461479e576000841561478c578287015190505b6147968582614718565b8655506147fe565b601f1984166147ac86614588565b60005b828110156147d4578489015182556001820191506020850194506020810190506147af565b868310156147f157848901516147ed601f8916826146fa565b8355505b6001600288020188555050505b505050505050565b600082825260208201905092915050565b600081546148248161447f565b61482e8186614806565b94506001821660008114614849576001811461485f57614892565b60ff198316865281151560200286019350614892565b61486885614588565b60005b8381101561488a5781548189015260018201915060208101905061486b565b808801955050505b50505092915050565b600060c08301600080840185830360008701526148b88382614817565b9250506001840185830360208701526148d18382614817565b9250506002840185830360408701526148ea8382614817565b9250506003840185830360608701526149038382614817565b92505060048401858303608087015261491c8382614817565b9250506005840185830360a08701526149358382614817565b925050819250505092915050565b6000602082019050818103600083015261495d818461489b565b905092915050565b7f4d75737420686176652061646d696e20726f6c6520746f2064656c657465206460008201527f6574656374697665000000000000000000000000000000000000000000000000602082015250565b60006149c16028836140ea565b91506149cc82614965565b604082019050919050565b600060208201905081810360008301526149f0816149b4565b9050919050565b7f43616e206f6e6c79206772616e7420746f206e6f6e20686f6c64657273000000600082015250565b6000614a2d601d836140ea565b9150614a38826149f7565b602082019050919050565b60006020820190508181036000830152614a5c81614a20565b9050919050565b7f43616e206f6e6c792072656e6f756e636520666f722073656c66000000000000600082015250565b6000614a99601a836140ea565b9150614aa482614a63565b602082019050919050565b60006020820190508181036000830152614ac881614a8c565b9050919050565b7f4d75737420626520636c69656e7420746f20616464206c617779657220746f2060008201527f6361736500000000000000000000000000000000000000000000000000000000602082015250565b6000614b2b6024836140ea565b9150614b3682614acf565b604082019050919050565b60006020820190508181036000830152614b5a81614b1e565b9050919050565b60008160001c9050919050565b6000819050919050565b6000614b8b614b8683614b61565b614b6e565b9050919050565b614b9b81613f1e565b82525050565b600060ff82169050919050565b6000614bc1614bbc83614b61565b614ba1565b9050919050565b614bd18161438c565b82525050565b60008160081c9050919050565b600073ffffffffffffffffffffffffffffffffffffffff82169050919050565b6000614c17614c1283614bd7565b614be4565b9050919050565b614c2781613de6565b82525050565b6000614c40614c3b83614b61565b614be4565b9050919050565b600081549050919050565b600082825260208201905092915050565b60008190508160005260206000209050919050565b6000614c848383614b92565b60208301905092915050565b6000614c9c8254614b78565b9050919050565b6000600182019050919050565b6000614cbb82614c47565b614cc58185614c52565b9350614cd083614c63565b8060005b83811015614d0857614ce582614c90565b614cef8882614c78565b9750614cfa83614ca3565b925050600181019050614cd4565b5085935050505092915050565b600081549050919050565b600082825260208201905092915050565b60008190508160005260206000209050919050565b6000614d528383614c1e565b60208301905092915050565b6000614d6a8254614c2d565b9050919050565b6000600182019050919050565b6000614d8982614d15565b614d938185614d20565b9350614d9e83614d31565b8060005b83811015614dd657614db382614d5e565b614dbd8882614d46565b9750614dc883614d71565b925050600181019050614da2565b5085935050505092915050565b600061016083016000808401549050614dfb81614b78565b614e086000870182614b92565b50600184018583036020870152614e1f8382614817565b92505060028401549050614e3281614bae565b614e3f6040870182614bc8565b50614e4981614c04565b614e566060870182614c1e565b5060038401549050614e6781614b78565b614e746080870182614b92565b5060048401549050614e8581614b78565b614e9260a0870182614b92565b5060058401549050614ea381614b78565b614eb060c0870182614b92565b5060068401549050614ec181614c2d565b614ece60e0870182614c1e565b5060078401549050614edf81614b78565b614eed610100870182614b92565b5060088401858303610120870152614f058382614cb0565b92505060098401858303610140870152614f1f8382614d7e565b925050819250505092915050565b60006020820190508181036000830152614f478184614de3565b905092915050565b7f4e487b7100000000000000000000000000000000000000000000000000000000600052603260045260246000fd5b7f4e487b7100000000000000000000000000000000000000000000000000000000600052601160045260246000fd5b6000614fb882613f1e565b91507fffffffffffffffffffffffffffffffffffffffffffffffffffffffffffffffff8203614fea57614fe9614f7e565b5b600182019050919050565b7f4d75737420626520636c69656e74206f72206c617779657220746f206164642060008201527f646f63756d656e74000000000000000000000000000000000000000000000000602082015250565b60006150516028836140ea565b915061505c82614ff5565b604082019050919050565b6000602082019050818103600083015261508081615044565b9050919050565b7f4d7573742068617665204c61777965722f4a7564676520726f6c6520746f206360008201527f6c6f736520612063617365000000000000000000000000000000000000000000602082015250565b60006150e3602b836140ea565b91506150ee82615087565b604082019050919050565b60006020820190508181036000830152615112816150d6565b9050919050565b7f43617365206d757374206265206f70656e20746f20636c6f7365000000000000600082015250565b600061514f601a836140ea565b915061515a82615119565b602082019050919050565b6000602082019050818103600083015261517e81615142565b9050919050565b60006101608301600080840154905061519d81614b78565b6151aa6000870182614b92565b506001840185830360208701526151c18382614817565b925050600284015490506151d481614bae565b6151e16040870182614bc8565b506151eb81614c04565b6151f86060870182614c1e565b506003840154905061520981614b78565b6152166080870182614b92565b506004840154905061522781614b78565b61523460a0870182614b92565b506005840154905061524581614b78565b61525260c0870182614b92565b506006840154905061526381614c2d565b61527060e0870182614c1e565b506007840154905061528181614b78565b61528f610100870182614b92565b50600884018583036101208701526152a78382614cb0565b925050600984018583036101408701526152c18382614d7e565b925050819250505092915050565b600060208201905081810360008301526152e98184615185565b905092915050565b7f4d7573742068617665204a7564676520726f6c6520746f20757064617465206160008201527f206e6578742068656172696e6700000000000000000000000000000000000000602082015250565b600061534d602d836140ea565b9150615358826152f1565b604082019050919050565b6000602082019050818103600083015261537c81615340565b9050919050565b7f4d75737420686176652061646d696e20726f6c6520746f2064656c657465206c60008201527f6177796572000000000000000000000000000000000000000000000000000000602082015250565b60006153df6025836140ea565b91506153ea82615383565b604082019050919050565b6000602082019050818103600083015261540e816153d2565b9050919050565b7f4d75737420626520636c69656e7420746f2064656c65746520617574686f726960008201527f7a65642075736572000000000000000000000000000000000000000000000000602082015250565b60006154716028836140ea565b915061547c82615415565b604082019050919050565b600060208201905081810360008301526154a081615464565b9050919050565b60006154b282613f1e565b91506154bd83613f1e565b92508282039050818111156154d5576154d4614f7e565b5b92915050565b7f4e487b7100000000000000000000000000000000000000000000000000000000600052603160045260246000fd5b7f4d75737420686176652061646d696e20726f6c6520746f20616464206c61777960008201527f6572000000000000000000000000000000000000000000000000000000000000602082015250565b60006155666022836140ea565b91506155718261550a565b604082019050919050565b6000602082019050818103600083015261559581615559565b9050919050565b7f4d757374206861766520436c69656e742f4c61777965722f4a756467652f446560008201527f7465637469766520726f6c6520746f2067657420646f63756d656e7420636964602082015250565b60006155f86040836140ea565b91506156038261559c565b604082019050919050565b60006020820190508181036000830152615627816155eb565b9050919050565b7f4d75737420626520636c69656e7420746f2064656c657465206c61777965722060008201527f66726f6d20636173650000000000000000000000000000000000000000000000602082015250565b600061568a6029836140ea565b91506156958261562e565b604082019050919050565b600060208201905081810360008301526156b98161567d565b9050919050565b7f4d75737420626520636c69656e7420746f2061646420617574686f72697a656460008201527f2075736572000000000000000000000000000000000000000000000000000000602082015250565b600061571c6025836140ea565b9150615727826156c0565b604082019050919050565b6000602082019050818103600083015261574b8161570f565b9050919050565b7f4d75737420686176652061646d696e20726f6c6520746f2064656c657465206a60008201527f7564676500000000000000000000000000000000000000000000000000000000602082015250565b60006157ae6024836140ea565b91506157b982615752565b604082019050919050565b600060208201905081810360008301526157dd816157a1565b9050919050565b7f4d75737420686176652061646d696e20726f6c6520746f20616464206a75646760008201527f6500000000000000000000000000000000000000000000000000000000000000602082015250565b60006158406021836140ea565b915061584b826157e4565b604082019050919050565b6000602082019050818103600083015261586f81615833565b9050919050565b7f4d7573742068617665204c617779657220726f6c6520746f206372656174652060008201527f6120636173650000000000000000000000000000000000000000000000000000602082015250565b60006158d26026836140ea565b91506158dd82615876565b604082019050919050565b60006020820190508181036000830152615901816158c5565b9050919050565b6000615913826140df565b61591d8185614806565b935061592d8185602086016140fb565b61593681613b0c565b840191505092915050565b600081519050919050565b6000819050602082019050919050565b6000602082019050919050565b600061597482615941565b61597e8185614c52565b93506159898361594c565b8060005b838110156159ba5781516159a18882614c78565b97506159ac8361595c565b92505060018101905061598d565b5085935050505092915050565b600081519050919050565b6000819050602082019050919050565b6000602082019050919050565b60006159fa826159c7565b615a048185614d20565b9350615a0f836159d2565b8060005b83811015615a40578151615a278882614d46565b9750615a32836159e2565b925050600181019050615a13565b5085935050505092915050565b600061016083016000830151615a666000860182614b92565b5060208301518482036020860152615a7e8282615908565b9150506040830151615a936040860182614bc8565b506060830151615aa66060860182614c1e565b506080830151615ab96080860182614b92565b5060a0830151615acc60a0860182614b92565b5060c0830151615adf60c0860182614b92565b5060e0830151615af260e0860182614c1e565b50610100830151615b07610100860182614b92565b50610120830151848203610120860152615b218282615969565b915050610140830151848203610140860152615b3d82826159ef565b9150508091505092915050565b60006020820190508181036000830152615b648184615a4d565b905092915050565b7f4d75737420626520636c69656e74206f72206c617779657220746f2064656c6560008201527f746520646f63756d656e74000000000000000000000000000000000000000000602082015250565b6000615bc8602b836140ea565b9150615bd382615b6c565b604082019050919050565b60006020820190508181036000830152615bf781615bbb565b9050919050565b7f4d75737420686176652061646d696e20726f6c6520746f20616464206465746560008201527f6374697665000000000000000000000000000000000000000000000000000000602082015250565b6000615c5a6025836140ea565b9150615c6582615bfe565b604082019050919050565b60006020820190508181036000830152615c8981615c4d565b9050919050565b7f4d7573742068617665204c61777965722f4a7564676520726f6c6520746f207560008201527f7064617465206120636173650000000000000000000000000000000000000000602082015250565b6000615cec602c836140ea565b9150615cf782615c90565b604082019050919050565b60006020820190508181036000830152615d1b81615cdf565b9050919050565b600081905092915050565b7f5065726d697373696f6e733a206163636f756e74200000000000000000000000600082015250565b6000615d63601583615d22565b9150615d6e82615d2d565b601582019050919050565b6000615d84826140df565b615d8e8185615d22565b9350615d9e8185602086016140fb565b80840191505092915050565b7f206973206d697373696e6720726f6c6520000000000000000000000000000000600082015250565b6000615de0601183615d22565b9150615deb82615daa565b601182019050919050565b6000615e0182615d56565b9150615e0d8285615d79565b9150615e1882615dd3565b9150615e248284615d79565b91508190509392505050565b6000615e3b82613f1e565b9150615e4683613f1e565b9250828202615e5481613f1e565b91508282048414831517615e6b57615e6a614f7e565b5b5092915050565b6000615e7d82613f1e565b9150615e8883613f1e565b9250828201905080821115615ea057615e9f614f7e565b5b92915050565b6000615eb182613f1e565b915060008203615ec457615ec3614f7e565b5b600182039050919050565b7f537472696e67733a20686578206c656e67746820696e73756666696369656e74600082015250565b6000615f056020836140ea565b9150615f1082615ecf565b602082019050919050565b60006020820190508181036000830152615f3481615ef8565b905091905056fea264697066735822122030d088ffae0ca8edeea7d81081b503ab17b003ca0d5399d75fae5ddada1da41764736f6c63430008130033",
  "linkReferences": {},
  "deployedLinkReferences": {}
}